:020000040800F2
:10100000480E0020D5110008DD1100086D160008FB
:1010100099160008751500089919000800000000CD
:101020000000000000000000000000008917000818
:1010300041160008000000009D1600088D170008EA
:10104000EF110008EF110008EF110008EF11000880
:10105000EF110008EF110008EF1100084516000815
:101060000000000079150008EF110008A515000820
:10107000CD130008EF110008EF1100080000000078
:1010800071190008EF110008000000003519000870
:101090004919000861190008EF110008EF11000854
:1010A000EF110008EF110008EF1100089519000872
:1010B000EF11000800000000000000000000000028
:1010C000EF11000800000000EF11000800F002F826
:1010D00000F070F814A696E8000CB244B344DA4568
:1010E00001D100F067F8BAE80F000FA696E83000CB
:1010F000A5EB040504EB0607AAEB0704A7F101071B
:101100004FEA15154FEA3414A4F10104AC4201D39F
:1011100000F050F813F0010F18BFFB1A43F0010361
:1011200000F001F8DBE71847685C0000885C00000D
:101130000A444FF0000C10F8013B13F0070408BFFD
:1011400010F8014B1D1108BF10F8015B641E05D09B
:1011500010F8016B641E01F8016BF9D113F0080F50
:101160001EBF10F8014BAD1C0C1B09D16D1E58BFE2
:1011700001F801CBFAD505E014F8016B01F8016B19
:101180006D1EF9D59142D6D370470000704700001C
:101190000023002400250026103A28BF78C1FBD880
:1011A000520728BF30C148BF0B6070471FB51FBD35
:1011B00010B510BD00F0CFF81146FFF7F7FF03F0B0
:1011C000A9F800F0EDF803B4FFF7F2FF03BC00F05C
:1011D000F5F800000948804709480047FEE7FEE7A8
:1011E000FEE7FEE7FEE7FEE7FEE7FEE7FEE7FEE7D7
:1011F00004480549054A064B70470000911700084E
:10120000CD10000848080020480E0020480A0020A1
:10121000480A0020032A40F2308010F0030C00F04E
:10122000158011F8013BBCF1020F624498BF11F820
:1012300001CB00F8013B38BF11F8013BA2F10402D9
:1012400098BF00F801CB38BF00F8013B11F0030351
:1012500000F04F80083AC0F0088051F8043B083A8B
:1012600051F804CBA0E80810F5E7121D5CBF51F857
:10127000043B40F8043BAFF30080D20724BF11F8D1
:10128000013B11F801CB48BF11F8012B24BF00F836
:10129000013B00F801CB48BF00F8012B70474FF02D
:1012A000000200B5134694469646203922BFA0E8B6
:1012B0000C50A0E80C50B1F12001BFF4F7AF0907C2
:1012C00028BFA0E80C5048BF0CC05DF804EB8900B3
:1012D00028BF40F8042B08BF704748BF20F8022BF6
:1012E00011F0804F18BF00F8012B7047704770470E
:1012F000704710B5203AC0F00B80B1E81850A0E854
:101300001850B1E81850A0E81850203ABFF4F5AFD3
:101310005FEA027C24BFB1E81850A0E8185044BF2F
:1013200018C918C0BDE810405FEA827C24BF51F89C
:10133000043B40F8043B08BF7047D20728BF31F890
:10134000023B48BF11F8012B28BF20F8023B48BFE1
:1013500000F8012B7047754600F02CF8AE460500EA
:101360006946534620F00700854618B020B5FFF7C0
:101370003FFFBDE820404FF000064FF000074FF060
:1013800000084FF0000BAC46ACE8C009ACE8C0095F
:10139000ACE8C009ACE8C00921F007018D467047F0
:1013A00010B50446AFF300802046BDE81040FFF7BB
:1013B0000ABF000000487047B00300200149182010
:1013C000ABBEFEE7260002007047000041F2240099
:1013D00040F2C441C4F20000C2F200010068096892
:1013E000B0EB510F08D940F21440C4F201004FF4A1
:1013F0000011016002F0D2BD80B502F0CBFB40F2DB
:101400000E01C2F200010978884218BF80BD40F287
:101410001440C4F201004FF40011016080BD0000CF
:1014200040F2E440C2F20000C18840F2AA42C2F297
:1014300000021180018840F2AE42C2F20002118027
:10144000408840F29441C2F20001088070470000D9
:10145000F0B587B042F200444FF0904003210022E3
:101460004023C4F20104002702F0A2FC4FF0904098
:1014700003210022082302F09BFC4FF4A01001215D
:1014800001F09CFD0825C4F20205284602F0D0F8C0
:1014900002AE304602F07EF80420C0F20010CDF813
:1014A000120040F2E440C2F20000039004F14C004C
:1014B000029040F20110C0F20120CDF8160028463B
:1014C0003146ADF8107002F075F82846012102F09F
:1014D0005BF80920C0F21800012101F06FFD072020
:1014E00001F04CFC01AD284600F090FA40F20110EA
:1014F000C0F2004001902046294600F065FA2046DF
:1015000003210122032300F0A9FA2046062102222A
:10151000032300F0A3FA204611210322032300F045
:101520009DFA204610210422072300F097FA01209B
:1015300000F0E2FB20460721012200F0BDFB20461F
:10154000012100F07BFA2046012100F081FA2046BB
:1015500000F060FA204600F063FA0028FAD1204635
:1015600000F062FA204600F065FA0028FAD107B0D0
:10157000F0BD0000FEE70000B0B5022002F012F856
:10158000012818BFB0BD0424C4F20204012525605F
:10159000FFF746FF082002F005F8012808BF256084
:1015A000B0BD0000B0B540F26945C2F20005287830
:1015B00004240128C4F2020412D14FF480302060C8
:1015C000606D20F001006065002005F019FA40F21E
:1015D0001040C4F201004FF400410160B0BD00BFF3
:1015E0004FF4802001F0DEFF012808D1287802287E
:1015F00005D14FF480202060012005F001FA4FF45E
:10160000003001F0CFFF012810D14FF4803020606E
:10161000606D20F001006065002005F0F1F940F2F6
:101620001040C4F201004FF4004101604FF400206B
:1016300001F0B8FF012804BF4FF480302060B0BD36
:101640007047000040F2E461C2F200010A6840F213
:1016500014400132C4F201000A600168090458BF55
:1016600070474FF40041016004F008B8FEE7000045
:1016700043F20000C4F2000045F2555101604CF6FF
:10168000CC410160032141604FF47A6181604AF6E8
:10169000AA21016070470000FEE7000070470000CB
:1016A00070B544F20C40C4F20100016840F200043D
:1016B00021F001010160C2F20004E17BE07C40F214
:1016C00050450129C2F200050AD10130C1B20729F3
:1016D000E07422BF0120E074287300F001000AE0EA
:1016E00001380106E07403D106200121E07429735A
:1016F000012121EA0000A073EFF3108072B6E87BAD
:1017000010B9E07C00F0DEFB62B600F0A7FB686F6A
:1017100040F6C511884224BF0120E0720020E17C20
:1017200040F2CC46A5F81B00206DC2F20006B5F8C9
:101730004620B5F8483006EB41014881991800EB86
:10174000510040F22161C2F2000191F82F204108BE
:1017500021651AB16A7F5143890902E0A178020923
:101760005143E27AC1EB9000002AE986A5F84000D7
:1017700008BF01F07DFF306842F20F7188429CBFC4
:101780000130306070BD00007047000070470000FD
:1017900041F20000C4F20200016841F00101016061
:1017A0000168890709D4016889075CBF01685FEA9D
:1017B000817102D401688907F2D5416821F00301E3
:1017C000416000BF416811F00C0F0BD0416811F06F
:1017D0000C0F07D0416811F00C0F03D0416811F0D5
:1017E0000C0FEFD101684FF6FF72CFF6F262114095
:1017F00001600021416041F61071C1624FF4801117
:1018000001634FF41F0181604EF6085041F2000160
:10181000CEF20000C0F600010160704710B50B2049
:10182000C0F21800012101F0C9FB42F60044C4F2E5
:10183000010441F28730E0620020A06246F66800B1
:10184000A0616820E06120460021012205F040F8F7
:1018500020460221012205F03BF820460421012206
:1018600005F036F82046012105F062F8606C32215F
:1018700061F3070060641124C0F2140420460121C2
:1018800001F09CFB601C012101F098FB40F2004438
:10189000C4F60004204602210022022302F088FA46
:1018A000204602210022012302F082FA4FF09040EC
:1018B00002210022802302F07BFA2046012102222D
:1018C00002F096FA20460021022202F091FA4FF02F
:1018D00090400721022202F08BFA4FF09040022143
:1018E00000224FF4806302F063FA4FF0904002212F
:1018F00000224FF4007302F05BFA4FF09040022197
:1019000000224FF4807302F053FA4FF090400A2106
:10191000022202F06DFA4FF090400921022202F0FB
:1019200067FA4FF0904008210222BDE8104002F013
:101930005FBA000042F21000C4F200004FF6FE71E0
:10194000016004F05BBD000044F21000C4F201002D
:101950004FF6FE7101604FF6FD71016070470000A7
:1019600044F21040C4F2010000210160FFF798BE6C
:1019700040F21040C4F200000168890744BF4FF6EE
:10198000FD7101600168C9071CBF4FF6FE7101605F
:101990007047000070470000FEE700004EF60C5054
:1019A000BFF34F8FCEF200000168042201F4E06122
:1019B000C0F2FA5211430160BFF34F8F00BF00BF66
:1019C00000BF00BFFAE700000A78436802F0010296
:1019D00023F4807343EA022242604A78836862F308
:1019E000410383608A78836802F0010223F4006374
:1019F00043EAC2228260C978C26A013901F00F014C
:101A000022F4700242EA0151C16270474FF08071C6
:101A100001607047816841F00801816070470000F3
:101A20008068C0F3C0007047816841F004018160A4
:101A3000704700008068C0F380007047826801F042
:101A4000010122F4807242EA0121816070470000A6
:101A5000826861F3000282607047000080B511293E
:101A600000F2BB80DFE801F00A121C26303A444E37
:101A700058626C747E88929CA6B000BFD0F810C0EB
:101A800063F3020CC0F810C0A7E000BFD0F810C08C
:101A900003F0070E2CF0380343EACE0303619CE009
:101AA000D0F810C003F0070E2CF4E07343EA8E1355
:101AB000036192E0D0F810C003F0070E2CF46063CD
:101AC00043EA4E23036188E0D0F810C003F0070E0C
:101AD0002CF4E04343EA0E3303617EE0D0F810C0FB
:101AE00003F0070E2CF4603343EACE33036174E055
:101AF000D0F810C003F0070E2CF4E01343EA8E4335
:101B000003616AE0D0F810C003F0070E2CF4600304
:101B100043EA4E53036160E0D0F810C003F0070EB3
:101B20002CF0E06343EA0E63036156E0D0F810C086
:101B300003F0070E2CF0605343EACE6303614CE0E0
:101B4000D0F80CC063F3020CC0F80CC045E000BF35
:101B5000D0F80CC003F0070E2CF0380343EACE0394
:101B60003AE000BFD0F80CC003F0070E2CF4E0738D
:101B700043EA8E1330E000BFD0F80CC003F0070E2C
:101B80002CF4606343EA4E2326E000BFD0F80CC07B
:101B900003F0070E2CF4E04343EA0E331CE000BFD1
:101BA000D0F80CC003F0070E2CF4603343EACE33B8
:101BB00012E000BFD0F80CC003F0070E2CF4E013C5
:101BC00043EA8E4308E000BFD0F80CC003F0070ED4
:101BD0002CF4600343EA4E53C360013A0F2A88BFD6
:101BE00080BDDFE802F0090F151B21272D33393F97
:101BF000454B51575D6300BF426B61F30402426382
:101C000080BD00BF426B61F34912426380BD00BFDB
:101C1000426B61F38E22426380BD00BF426B61F371
:101C2000D332426380BD00BF426B61F318524263FE
:101C300080BD00BF426B61F35D62426380BD00BF47
:101C4000026B61F30402026380BD00BF026B61F3AB
:101C50004912026380BD00BF026B61F38E220263F2
:101C600080BD00BF026B61F3D332026380BD00BF51
:101C7000026B61F31852026380BD00BF026B61F317
:101C80005D62026380BD00BFC26A61F30402C2628A
:101C900080BD00BFC26A61F34912C26280BD00BF4D
:101CA000C26A61F38E22C26280BD00BFC26A61F364
:101CB000D332C26280BD00008368072923F000731D
:101CC00088BF03F100738360836802F0010261F34F
:101CD00053438360816821F4801141EA025181609D
:101CE00070470000826801F0010122F4800242EA9C
:101CF000815181607047000042F20841C4F2010145
:101D00000A6800F0010022F4000242EAC0500860B4
:101D100070470000F0B581B02825C4F6000505F530
:101D2000767420460121002202230126022702F0B8
:101D30003FF84FF09040012100224FF48063C5F836
:101D400000744FF4806702F033F82046012100222E
:101D500001232F6002F02CF84FF090400121002267
:101D60004FF40073C5F800644FF4007402F020F8DB
:101D70004FF090400121002280232C60802402F04B
:101D800017F84FF09040012100224FF480732C602F
:101D90004FF4807402F00CF82C6001B0F0BD00002C
:101DA00070B540F22165C2F20005287D40F2004482
:101DB000C4F600040028204606D002210022022397
:101DC00001F0F6FF07E000BF0121002202230226F6
:101DD00001F0EEFFA6624FF09040022100224FF486
:101DE000806301F0E5FF287D30B12046022100220A
:101DF000012301F0DDFF07E020460121002201233D
:101E0000012601F0D5FFA6624FF09040022100228A
:101E10004FF4007301F0CCFF287D38B14FF09040B3
:101E200002210022802301F0C3FF0CE04FF090401C
:101E3000012100228023802501F0BAFF4FF62840BF
:101E4000CFF6FF7025504FF09040022100224FF452
:101E50008073BDE8704001F0ABBF000040F2C441A8
:101E6000C2F200010A681009182840F21C00C4F2EE
:101E7000010004D8026822F0040202600A68B2F588
:101E8000167F03D9016841F00401016040F20E01A0
:101E9000C2F200010A78B2FA82F252095205C0F881
:101EA000EC2309784905C0F8F0137047002818BFE3
:101EB00070471C20C4F20100026861F30002026056
:101EC000704700000138052888BF70472DE9F041B0
:101ED000DFE810F0060046008800CA000C014E0141
:101EE0002826C5254FF09040012100228023C4F60A
:101EF0000006C4F200050127802401F059FF4FF0CD
:101F00009040012100224FF4807334604FF48074BC
:101F100001F04EFF346006F5767420460121002260
:101F2000012301F045FF4FF09040012100224FF4C2
:101F30000073C6F8F0734FF4007701F039FF40F2F8
:101F400021603760C2F20000007D002800F050815F
:101F5000204602210022022301F02AFF10358EE1E3
:101F60002826C4F6000606F5767440F2C508204619
:101F7000012100220223C4F200080127022501F0FA
:101F800017FF4FF09040012100224FF48063C6F804
:101F900000544FF4806501F00BFF20460121002220
:101FA0000123356001F004FF4FF090400121002231
:101FB0004FF40073C6F8F0734FF4007401F0F8FEAC
:101FC00040F221603460C2F20000007D002800F081
:101FD0001B814FF0904002210022802301F0E8FE97
:101FE0001BE100BF2826C4F6000606F57674C52559
:101FF0002046012100220123C4F20005012701F03F
:10200000D7FE4FF09040012100224FF40073C6F834
:1020100000744FF4007701F0CBFE2046012100222E
:1020200002233760022401F0C3FE4FF090400121EB
:1020300000224FF48063C6F8F0434FF4806401F04F
:10204000B7FE40F221603460C2F20000007D00283B
:1020500000F0E8804FF0904002210022802301F040
:10206000A7FE4FF480730CE12826C5254FF0904061
:10207000012100228023C4F60006C4F200054FF0BF
:102080000108802401F094FE4FF0904001210022CD
:102090004FF4807334604FF4807401F089FE346033
:1020A00006F576742046012100220223022701F062
:1020B0007FFE4FF09040012100224FF48063C6F86C
:1020C000F0734FF4806701F073FE40F221603760D7
:1020D000C2F20000007D002800F0B08020460221FE
:1020E0000022012301F064FEB0E000BF2826C4F600
:1020F000000606F57674C52520460121002202233C
:10210000C4F200054FF00108022701F051FE4FF024
:102110009040012100224FF48063C6F800744FF410
:10212000806701F045FE4FF090400121002280239E
:102130003760802701F03CFE4FF0904001210022E3
:102140004FF4807346F8107C4FF4807701F030FE36
:1021500040F221603760C2F20000007D002879D093
:10216000204602210022012301F022FE7AE000BF76
:102170002826C4F6000606F57674C52520460121FA
:1021800000220123C4F20005012701F011FE4FF0E7
:102190009040012100224FF40073C6F800744FF400
:1021A000007701F005FE4FF09040012100228023CE
:1021B0003760802701F0FCFD4FF0904001210022A4
:1021C0004FF4807346F8107C4FF4807701F0F0FDF7
:1021D00040F221603760C2F20000007D002845D047
:1021E000204602210022022301F0E2FD47E000BF69
:1021F0002046012100220223022401F0D9FDC6F865
:10220000004410353BE000BF4FF090400121002218
:102210008023802401F0CCFD346008F120054FF4C8
:1022200080732EE04FF09040012100228023802413
:1022300001F0BEFD34604FF4807322E0204601219E
:102240000022012301F0B4FDC6F8008410354FF4DC
:10225000007316E0204601210022012301F0A8FDB1
:10226000C6F8008420354FF400730AE020460121AF
:1022700000220223022401F09BFDC6F800444FF423
:1022800080634FF090400221002201F091FD1C205C
:10229000C4F201000560BDE8F04170472DE9F04F40
:1022A0009DB040F27C01C2F20001097840F2104377
:1022B000B1F12002A1F10101C2F200034FF00007C9
:1022C00018BF0122002818BF1F21DF8140F2694397
:1022D000C2F200031B7801250193022B40F2404318
:1022E000C2F2000308BF04251E8840F28003C2F238
:1022F00000031B88002840F260404FEA4212C2F2FD
:1023000000001C9318BF002200784FF0010C1A90B7
:1023100040F22050C2F200001B920395A5EB070883
:102320001C9DCA1BBB464FF0000905E0A9F101093D
:1023300018EB090300F0FA8102EB090303F03F07F1
:10234000213303F03F0350F8277050F82330FC1A74
:102350001FFA84FEB645E9D9AE45E7D204911B9930
:102360000027A1EB0B0101EB0902531C02F03F0116
:1023700003F03F0350F8233050F82110CDF808B097
:10238000591A89B2B1EB5E1F02F1020102F1030397
:1023900001F03F0103F03F0350F8233050F82110C3
:1023A00088BF01271997591A131D571D03F03F03C2
:1023B00007F03F0750F8277050F823301FFA81FAD2
:1023C000A7EB030B911DD31D02F1080702F10905CC
:1023D00001F03F0103F03F0307F03F0705F03F0521
:1023E00050F8233050F8211050F8255050F827703D
:1023F000A3EB010CE91B169102F10A0302F10B0792
:1024000002F10C0502F10D0103F03F0307F03F0755
:1024100005F03F0501F03F0150F8277050F82330D8
:1024200050F8211050F82550FB1A491B14931591B0
:1024300002F10E0102F10F0301F03F0103F03F032F
:1024400002F1100502F1110750F8233050F8211065
:1024500005F03F0507F03F0750F8277050F825506A
:10246000591A0F91791B119102F1120102F1130314
:1024700002F1140502F1150701F03F0103F03F03DB
:1024800005F03F0507F03F0750F8233050F82110C2
:1024900050F8277050F825505B1A7F1B02F1160187
:1024A00002F1170501F03F0105F03F0550F82550F6
:1024B00050F82110CDF84CA06D1A0021BAEB5E1F28
:1024C00088BF01210C911FFA8BF11791B1EB5E1FB0
:1024D0004FF0000188BF01210D911FFA8CF1189176
:1024E000B1EB5E1F4FF0000188BF01210E911699DC
:1024F0009BB289B21091B1EB5E1F4FF0000188BF13
:102500000121089114994FF0000C89B21291B1EB9E
:102510005E1F4FF0000188BF01210A91159902F159
:10252000180A89B21491B1EB5E1F4FF0000188BF09
:10253000012109910F9902F1190B89B21691B1EBA2
:102540005E1F4FF0000188BF01210B9111990AF025
:102550003F0A89B20F91B1EB5E1F4FF0000188BFB7
:1025600001211193B3EB5E1FBBB288BF4FF0010C8A
:102570001593B3EB5E1F4FF000030BF03F0788BFCE
:10258000012350F827B050F82A70ADB2B5EB5E1FAA
:10259000ABEB07054FF0000788BF012707971FFA2D
:1025A00085FA02F11A0702F11B0507F03F0705F053
:1025B0003F0550F8255050F82770BAEB5E1FA5EB89
:1025C0000705069502F11D0505F03F0502F11C0700
:1025D00050F825B002F11E0502F11F0205F03F057B
:1025E00002F03F0250F8222050F8255007F03F0734
:1025F000A2EB05024FF0000550F82770059288BF46
:102600000125DDF864A0089AABEB070B82EA0A0209
:102610004A400C990A9F4FEA8A2A81EA07018CEA0C
:10262000010C0D9F099918BF08224F407B40079F5E
:102630000E9963F341020B9B79406CF3820281EAAD
:10264000030C06991FFA8BF389B2B1EB5E1F4FEAB8
:10265000C50188BF0431B3EB5E1F059B88BF023103
:102660009BB2B3EB5E1F88BF01311A9B42EA0C029A
:10267000002B18BF81F00F01109B40F21045B3EB07
:102680005E1F88BF0AF1400A0F9BC2F20005B3EB40
:102690005E1F88BF0AF1040A139B4FF0000CB3EBD6
:1026A0005E1F88BF0AF5007A129BB3EB5E1F88BFDE
:1026B0004AF0200A119BB3EB5E1F88BF4AF0020A62
:1026C000179BB3EB5E1F88BF4AF4807A149BB3EB71
:1026D0005E1F88BF4AF0100A189BB3EB5E1F88BFCD
:1026E0004AF0800A169BB3EB5E1F88BF4AF0080AC7
:1026F000159BB3EB5E1F88BF4AF0010AB1EB020BDA
:1027000018BF4FF0010B91424FEA5E11A981EF61B2
:1027100011D0029908EB0903A1EB0902DDE903518D
:10272000013B02F101077FF4F9AD04E05FEACC70F0
:102730006BD14FF0010B40F26046C2F200063078D8
:10274000002840F21040C2F20000C48110D001986D
:10275000002857D040F27C012020C2F2000108700E
:1027600040F269410120C2F2000108704AE000BF56
:1027700001F02CFAB0B140F21042C2F200025079DE
:102780000130C1B250710020652990713AD340F2F6
:102790006740C2F200000078002804BF01203070BA
:1027A00030E000BF40F21040C2F20000807940F2F9
:1027B00069424028C2F2000214D31178012911D1D4
:1027C00040F27C014020C2F200010870022010702B
:1027D00002F0E0FF40F21040C2F2000080792128B0
:1027E0000AD20FE03F2807D840F210410130C2F270
:1027F00000018871212805D340F210410020C2F267
:1028000000014871BBF1000F0CD040F21041C2F240
:102810000001888A013088820020C8711DB0BDE89F
:10282000F08F00BF40F2924040F21042C2F200002E
:102830000021C2F200020180108AD1690130012911
:10284000108205D140F25E40C2F200000121017009
:1028500040F21040C2F20000C07958B1022827D0DF
:1028600001282DD140F21041C2F20001A1F812A0BE
:102870000220D2E7BAF1300F38D340F21040C2F252
:102880000000407890B340F28C40C2F20000A0F803
:1028900000A040F22060C2F200000021017040F26E
:1028A0001040C2F2000081701DB0BDE8F08F00BF83
:1028B00040F21041C2F2000181F808A00320ACE709
:1028C000032808BFBAF1250FA8D140F21043C2F285
:1028D0000003187A598A40F22162C2F20002505471
:1028E0000020D8711DB0BDE8F08F00BFAAF1010033
:1028F0002E280FD840F28C40C2F200000021018047
:1029000040F22061C2F200015FFA8AF081F800A073
:1029100027E000BFBAF1000F06D040F22060C2F2FB
:10292000000000781DE000BF40F21040C2F200003D
:102930000078012805D140F210410020C2F20001C8
:10294000487040F28C41C2F200010020088040F241
:102950002061C2F20001087040F21041C2F2000191
:10296000887000283FF45AAF40F26341C2F2000180
:10297000097800297FF452AF40F26741C2F20001AA
:10298000097800293FF44AAF40F21041C2F2000139
:10299000C97888421EBFD0700021917005280AD3E3
:1029A00040F21043C2F2000399780131CAB2062AFC
:1029B0009970FFF433AF411E40F2104200242329E6
:1029C000C2F20002947000F2D880DFE811F0250016
:1029D0002D0035003D0045004D005500630071009D
:1029E0007900D60081009500A900D600D600D60057
:1029F000D600D600B500C300D600D600D600D6005B
:102A0000D600D600D600D600D600D600D600D60016
:102A1000D600D600CF0000BF40F25B41C2F20001F9
:102A200001200870A9E000BF40F25B41C2F2000142
:102A300002200870A1E000BF40F25B41C2F2000139
:102A40000320087099E000BF40F25B41C2F2000130
:102A50000420087091E000BF40F25B41C2F2000127
:102A60000520087089E000BF40F26F40C2F200000C
:102A700001210170062080E040F22160C2F20000D6
:102A80000021417440F20F00C2F2000001210170E8
:102A9000072072E040F22160C2F20000012141747F
:102AA00040F20F00C2F2000000210170082064E033
:102AB00040F22160C2F200000021817409205CE034
:102AC00040F22160C2F20000012181740A2054E02A
:102AD00002F0ACFE40F22160C2F20000407C40F205
:102AE0005B42411C40F22060C2F20000C2F20002D0
:102AF0000078117041E000BF40F21043C2F20003C1
:102B0000197801204FF46062187101295A8102BFBF
:102B100040F21041C2F2000148700D202DE000BFCC
:102B200040F210410020C2F20001087140F6FF603F
:102B300048810E2021E000BF40F22160C2F2000077
:102B4000407C40F20F01C0F10100C2F200010870A8
:102B5000142012E040F22160C2F20000407C40F2FA
:102B60000F01C2F200010870152006E040F210418A
:102B70000120C2F20001C871242040F27C71C2F22F
:102B80000001087040F22060C2F2000004701DB025
:102B9000BDE8F08F70B582B040F22055C2F200055A
:102BA000D5E9000140F27652081AA0F2213140F234
:102BB00038449142C2F200043CD8227840F292415B
:102BC000C2F2000100230B80D2B3A178002951D0BA
:102BD000E17840F2E14290420BD840F21A02C2F290
:102BE000000213880131C3EBC3031844C008E1702D
:102BF0001080C8B24C2870D340F21A00C2F2000014
:102C000001880025193101804FF61250CFF6FF7070
:102C100010FA81F000EBD07040F221614008C2F25E
:102C2000000181F82000257002F000FEE57002F03E
:102C3000F9FB52E040F28840C2F2000051E000BFD0
:102C400040F22161C2F20001897C39B340F21E01D9
:102C5000C2F200010A88904234D940F21C01C2F24B
:102C600000010B88511C4FF4FA661A4640F2E93312
:102C70002FE000BF617840F21C0600290CBFE08005
:102C8000E0880131C2F200066170318880B200F044
:102C90007DFF332842D30020207060E040F21A010B
:102CA00040F21C02C2F20001C2F20002098812883E
:102CB00040F2FF762F23009602F064FA3128B8BF65
:102CC000002009E040F21A01C2F2000109884FF425
:102CD0007A76009602F056FAE06040F29240C2F234
:102CE000000040F28C41C2F2000140F2D806E268D6
:102CF0000B88C2F200063668D51AB5424FF00005BF
:102D0000058003DD9A190A8002B070BD981AB0429E
:102D1000C8BF9A1B0A8002B070BD00BF3088D5E9D9
:102D20000012C0EBC000511A08446178C008332972
:102D3000308014D34FF62A111938CFF6FF71308046
:102D400011FA80F000EBD07040F221614008C2F22D
:102D5000000181F821000120A07002F097FBA0780B
:102D600031880028E180B8D0D5E90001081AE1785F
:102D700040F2E14290427FF630AF3AE741F204017F
:102D8000C4F202010A6860F38F320A600A688008A0
:102D900060F31C720A60704741F20401C4F2020140
:102DA0000A6800F00F0022F0F00242EA001008600A
:102DB0007047000041F20401C4F202010A6800F009
:102DC000070022F4E06242EA002008607047000039
:102DD00041F20401C4F202010A6800F0070022F483
:102DE000605242EAC02008607047000041F254017E
:102DF000C4F202010A68012822F0300208BF303212
:102E00000A607047042888BF7047DFE800F0030DB0
:102E10001B29330041F20000C4F20200026861F392
:102E200000020260704700BF41F20000C4F20200DD
:102E3000026801F0010122F4803242EA014101609E
:102E4000704700BF41F20000C4F20200026801F0C6
:102E5000010122F0807242EA01610160704700BF07
:102E600041F20000C4F20200026A61F30002026251
:102E7000704700BF41F20000C4F20200426A61F3F1
:102E80000002426270470000F0B541F20401C4F252
:102E900002010A68C2F3810341F20022022BC0F250
:102EA0007A020DD0002B48D10B6D9B0545D5CB6A1E
:102EB0009B0144BF46F60042C0F2DC223DE000BF69
:102EC0000B688C6A1F0C002C1ED40C680B68C4F3B2
:102ED0008344C3F341731D016E1C0F2C354618BF8C
:102EE0000225002B18BF3546FB0705EB040305D070
:102EF0000F68BF0302D45A431FE000BF40F6001220
:102F0000C0F23D025A4318E08B6A8C6AC3F3031E79
:102F10008B6A40F6001CC0F23D0CC4F30824FD0788
:102F200003F0070303D00D68AD0358BF94460CFBB4
:102F300004F20EFA03F3B2FBF3F202600B6812A77D
:102F4000C3F30313FB5C46F67857DA4042600B6824
:102F5000C0F60007C3F30223FB5C22FA03F3C3604D
:102F60000B68C3F3C223FB5C0427DA4082600B6862
:102F7000096807EA9363C1F38131194406A3595CD8
:102F8000B2FBF1F10161F0BD0000000000000000A3
:102F9000010203040607080902040608020C0810CF
:102FA00041F20002010CC4F20202895800F01F0035
:102FB00021FA00F000F001007047000041F2000229
:102FC00000F01F034FF0010CC4F2020201290CFAB9
:102FD00003F14FEA1040835814BF23EA010119435B
:102FE0008150704741F2000200F01F034FF0010CC6
:102FF000C4F2020201290CFA03F14FEA104083588F
:1030000014BF23EA010119438150704741F20402C1
:10301000C4F20202136868B143F48033136013688A
:10302000012807BF23F400334FF0007043F400334E
:10303000002002E023F4803300201360136861F362
:10304000954313601368090961F35E731360916A15
:1030500021F0E061084390627047000041F20000F7
:10306000C4F20200016841F00101016001688907B2
:1030700009D4016889075CBF01685FEA817102D4E5
:1030800001688907F2D5416821F00301416000BF62
:10309000416811F00C0F0BD0416811F00C0F07D0F4
:1030A000416811F00C0F03D0416811F00C0FEFD103
:1030B00001684FF6FF72CFF6F26211400160002105
:1030C000416041F61071C1624FF4801101634FF409
:1030D0001F0181607047000041F20401C4F2020147
:1030E0000A6860F301020A607047000041F20400C0
:1030F000C4F202000068C0F38100704744F6240166
:10310000C4F201010A6880B20BE000BF0B689B1A91
:103110009BB2984298BF70470B689B1A9BB298422B
:1031200009D90B689B1A9BB2984204D90B689B1A69
:103130009BB29842EAD87047002808BF704780B514
:1031400044F62401C4F2010110F0030C864647D076
:103150000A684FF6F87E00BF0B689B1A9BB2DB082B
:103160007C2B12D80B689B1A9BB2DB087C2B0CD8EB
:103170000B689B1A9BB2DB087C2B06D80B689B1A4A
:1031800003EA0E03B3F57A7FE6D3BCF1010F05D154
:10319000A0F1010E042825D349E000BF0A684FF6CC
:1031A000F87E00BF0B689B1A9BB2DB087C2B12D801
:1031B0000B689B1A9BB2DB087C2B0CD80B689B1A04
:1031C0009BB2DB087C2B06D80B689B1A03EA0E0324
:1031D000B3F57A7FE6D3BCF1020F07D1A0F1020E5E
:1031E000042824D2BDE88040704700BF0A684FF62B
:1031F000F87C00BF0B689B1A9BB2DB087C2B12D8B3
:103200000B689B1A9BB2DB087C2B0CD80B689B1AB3
:103210009BB2DB087C2B06D80B689B1A03EA0C03D5
:10322000B3F57A7FE6D3A0F1030E0428DAD34FF684
:10323000F87002E0BEF1040ED4D00B680A68D21A0E
:1032400092B2D2087C2A11D80A68D21A92B2D20855
:103250007C2A0BD80A68D21A92B2D2087C2A05D8E6
:103260000A68D21A0240B2F57A7FE7D30B6800BF32
:103270000A68D21A92B2D2087C2A11D80A68D21AE5
:1032800092B2D2087C2A0BD80A68D21A92B2D2081B
:103290007C2A05D80A68D21A0240B2F57A7FE7D3B1
:1032A0000B6800BF0A68D21A92B2D2087C2A11D8E1
:1032B0000A68D21A92B2D2087C2A0BD80A68D21AAB
:1032C00092B2D2087C2A05D80A68D21A0240B2F516
:1032D0007A7FE7D30B6800BF0A68D21A92B2D2088D
:1032E0007C2AA7D80A68D21A92B2D2087C2AA1D81E
:1032F0000A68D21A92B2D2087C2A9BD80A68D21ADB
:103300000240B2F57A7FE7D394E700002DE9F0435D
:1033100040F2205CC2F2000C40F27C0EDCF800406F
:10332000C2F2000E44F6206200230021AEF8022013
:1033300003E000BF2833782B7AD00CEB03004568FC
:103340002C1B1BD18468651B21D1C5682C1B27D180
:103350000469651B2DD145692C1B33D18469651B1C
:1033600039D1C5692C1B3FD1046A651B45D1456A1B
:103370002C1B4BD1846A601BDCD051E02144944269
:103380003CBFA2B2AEF802408468651BDDD0294480
:1033900095423CBFAAB2AEF80250C5682C1BD7D0EC
:1033A000214494423CBFA2B2AEF802400469651BBE
:1033B000D1D0294495423CBFAAB2AEF8025045692B
:1033C0002C1BCBD0214494423CBFA2B2AEF80240A9
:1033D0008469651BC5D0294495423CBFAAB2AEF8AA
:1033E0000250C5692C1BBFD0214494423CBFA2B2FD
:1033F000AEF80240046A651BB9D0294495423CBF2F
:10340000AAB2AEF80250456A2C1BB3D021449442B4
:103410003CBFA2B2AEF80240846A601B3FF48AAFA0
:10342000014490423CBF82B2AEF8020082E700BF86
:1034300040F26948C2F2000898F8000040F2384CA7
:103440004C09C2F2000CCCF8144098B3541E022C64
:103450004FEAD11498BF0E2C12D9151F042D98BF16
:10346000182C27D840F2D5050124C2F2000588F8AF
:1034700000402C7003248CF8054007240CE000BFAA
:1034800040F2D504C2F200040025257001248CF816
:10349000054088F800400E2440F2D405C2F2000531
:1034A0002C7020248EF8004040F26844C2F20004E0
:1034B0000125257040F26A49C2F2000999F80060BE
:1034C000A2F1C905A6B144F65657BD4210D840F244
:1034D000D503C2F2000377241C7002238EF800305B
:1034E00040F268430127C2F2000389F800701F70A0
:1034F000304301D0BDE8F083501E022810D8C8091F
:103500000E280DD840F2D500C2F200000021017053
:1035100001208CF8050088F800000E2012E000BFA2
:10352000101F042816D8C809182813D840F2D5014E
:103530000120C2F2000188F80000087003208CF816
:103540000500072040F2D401C2F2000108702020DB
:1035500010E000BF44F65650854288BFBDE8F083B6
:10356000012089F8000040F2D500C2F20000772166
:10357000017002208EF8000040F26840C2F20000A4
:1035800001210170BDE8F083026861F3000202606E
:103590007047000000210182C0E90011C0E902115A
:1035A000704700000021C4F202010968084018BFFA
:1035B0000120704702684BF6EF731A4002600A89D7
:1035C00003681A4302604A7C036802F0030223F492
:1035D000405343EA02320260CA7B036802F00302EE
:1035E00023F4406343EA822202608A7B036802F08C
:1035F000030223F4407343EA022202604A7B036819
:1036000002F0010223F0800343EAC21202600A7B47
:10361000036862F3861303600A7C036862F3451350
:1036200003604A8942600A6882604968C1607047E5
:10363000016800F0FC024CF6CD43083ACCF6CC43CE
:10364000A2FB032321F0010101600021042201609B
:1036500041608160C1606FF00300C4F2020200EAC1
:1036600093000F21136801FA00F0184310607047AF
:1036700040F20040C4F20100016841F40011016011
:103680007047000010B542F60044C4F20104204621
:103690000021012203F0D0F820460221012203F08C
:1036A000CBF820460421012203F0C6F82046012170
:1036B000012203F0C1F820460321012203F0BCF8E7
:1036C00020460521012203F0B7F8206840F00100F0
:1036D0002060606C40F400406064606940F001006C
:1036E000606144F20004C4F20104D4F8000440F024
:1036F0000100C4F8000444F20C40C4F201008168E7
:1037000041F001018160016821F001010160D0F800
:10371000F41341F00101C0F8F41341F20000C4F2C7
:103720000000016841F001010160416941F00101BF
:10373000416142F20000C4F20000016841F0010161
:103740000160416941F001014161C16841F001013D
:10375000C160FDF77DFE20460021012203F06CF8D8
:103760002068202140F0010020604EF20740CEF298
:10377000000001704EF20010CEF2000080210160C6
:1037800040F20040C4F20100016841F400410160D0
:1037900010BD000042F20C01C4F202010860704743
:1037A00042F21000C4F20200016841F080010160A1
:1037B0007047000042F20C01C4F202014A6842F074
:1037C00002024A608860486840F04000486008682B
:1037D000C0070DD10868400746D40868C0064FF0FE
:1037E000020058BF03204A6822F002024A60704774
:1037F0004FF080420868C00700F08B800868C0075F
:1038000038D00868C0073BD00868C0073ED00868B9
:10381000C00741D00868C00744D00868C00747D037
:103820000868C0074AD00868C0074DD00868C007BC
:1038300050D00868C00753D00868C00756D0086841
:10384000C00759D00868C0075CD00868C0075FD0BF
:103850000868C00768D0103ACCD104204A6822F02A
:1038600002024A60704700BF01204A6822F002024B
:103870004A607047013A086840074DD558E000BFDC
:10388000023A0868400747D552E000BF033A08688B
:10389000400741D54CE000BF043A086840073BD5DB
:1038A00046E000BF053A0868400735D540E000BF54
:1038B000063A086840072FD53AE000BF073A086883
:1038C000400729D534E000BF083A0868400723D5EF
:1038D0002EE000BF093A086840071DD528E000BF68
:1038E0000A3A0868400717D522E000BF0B3A08687B
:1038F000400711D51CE000BF0C3A086840070BD503
:1039000016E000BF0D3A0868400705D510E000BF7B
:103910000E3A086840070BD40868C0064FF0020052
:1039200058BF032005E000BF0F3A08684007F3D5F1
:103930000120012A08BF04204A6822F002024A60DE
:103940007047000042F2040040F22311C4F202006A
:10395000C4F26751016048F6AB11CCF6EF5101603B
:103960007047000042F20C02C4F20202536843F0B6
:103970000103536001601068C0070DD11068400753
:1039800046D41068C0064FF0020058BF03205168AB
:1039900021F00101516070474FF480111068C00799
:1039A00000F08B801068C00738D01068C0073BD08B
:1039B0001068C0073ED01068C00741D01068C0072B
:1039C00044D01068C00747D01068C0074AD01068BC
:1039D000C0074DD01068C00750D01068C00753D042
:1039E0001068C00756D01068C00759D01068C007CB
:1039F0005CD01068C0075FD01068C00768D010396D
:103A0000CCD10420516821F001015160704700BF02
:103A10000120516821F0010151607047013910689F
:103A200040074DD558E000BF02391068400747D520
:103A300052E000BF03391068400741D54CE000BF99
:103A40000439106840073BD546E000BF05391068CF
:103A5000400735D540E000BF0639106840072FD534
:103A60003AE000BF07391068400729D534E000BFAD
:103A700008391068400723D52EE000BF09391068C7
:103A800040071DD528E000BF0A391068400717D548
:103A900022E000BF0B391068400711D51CE000BFC1
:103AA0000C39106840070BD516E000BF0D391068BF
:103AB000400705D510E000BF0E39106840070BD451
:103AC0001068C0064FF0020058BF032005E000BF99
:103AD0000F3910684007F3D50120012908BF0420E1
:103AE000516821F00101516070470000F0B581B0CC
:103AF0002825C4F6000505F576742046012100222C
:103B000002230126022700F053F94FF090400121D3
:103B100000224FF48063C5F8F0734FF4806700F023
:103B200047F920460121002201232F6000F040F9CF
:103B30004FF09040012100224FF40073C5F8F0636C
:103B40004FF4007400F034F94FF09040012100224E
:103B500080232C60802400F02BF94FF0904001214D
:103B600000224FF4807345F8104C4FF4807400F03D
:103B70001FF92C6001B0F0BD42F61440C4F2010000
:103B8000016841F00101016070470000401A48BF20
:103B9000404270471C20C4F201000068C0F38070EE
:103BA0007047000048F2E80148434FF44851A1EB48
:103BB00010304FF2CF31CCF63C7150FB01F0C10810
:103BC00001EBD070193000B2704700001020C4F62D
:103BD0000000006800F004007047000031B10129C6
:103BE00008D100230022C90774D1A0E00022D0B27E
:103BF000704700BF70B501F0FE02C2F1000C002258
:103C00006FF0010E072300BF00EB0E04A578E478E7
:103C10006A4055B2D2B25600002D48BF83EA420630
:103C200083EA4602350658BF720083EA420516064B
:103C300058BF550083EA45022E0658BF6A0083EA42
:103C40004205160658BF550083EA45022E0658BFA6
:103C50006A0083EA4205160658BF550083EA45020A
:103C60002E0658BF6A00624054B2D2B25500002CF2
:103C700048BF83EA420583EA45022C0658BF6A0022
:103C800083EA4204150658BF540083EA440225061D
:103C900058BF620083EA4204150658BF540083EA05
:103CA0004402250658BF620083EA4204150658BF45
:103CB000540083EA44020EF1020E250658BF62004A
:103CC0000CEB0E0402349FD10EF10203BDE87040EC
:103CD000C9072CD0C05C0723504041B2C0B242009B
:103CE000002948BF83EA400283EA4200110658BF18
:103CF000500083EA4001020658BF410083EA4100B8
:103D00000A0658BF480083EA4001020658BF410036
:103D100083EA41000A0658BF480083EA40010206D0
:103D200058BF410083EA4102080658BF4A00D0B29A
:103D3000704700000A88002A08BF7047F0B50023CA
:103D40004FF0030C4FF0010E002405E0520804F17F
:103D5000010403F1020327D0D507F7D005680CFA58
:103D600003F6B54305608D7907689D403D430560C6
:103D700045680EFA04F7BD4345600D794768A540D4
:103D80003D4345608568B5438560CD7987689D4032
:103D90003D438560C568B543C5604D79C6689D40A3
:103DA0003543C560D2E700BFBDE8F0407047000072
:103DB000D0F800C05B4303EB43022CEA02025943F4
:103DC000114301607047000080B5D0F800C05B432C
:103DD00003EB430E2CEA0E0C594341EA0C0101603F
:103DE000C1685A4321EA0E011143C16080BD000041
:103DF00010B51C2303EA810E24234FF00F0C082971
:103E000038BF2023C4580CFA0EF124EA0101C15036
:103E1000C15802FA0EF21143C15010BD62B670478C
:103E20002DE9F04F81B002F0CDF94FF4A01001213F
:103E3000FFF7C4F84EF20B47CEF2000710204EF207
:103E400000163870CEF200064FF400603060FDF7C7
:103E5000E5FC0424C0F21C0420460121FFF7AEF863
:103E600041F22800C4F200004FF6FF714FF03B0B07
:103E70004160C0F800B0201D0121FFF79FF842F219
:103E80002800C4F2000032214FF077094160C0F8E9
:103E90000090302038724FF4002040F2110A306058
:103EA000C0F2140A50460121FFF788F84FF4C01001
:103EB0000121FFF783F84FF09040032100220223F5
:103EC0004FF00008FFF774FF4FF0904003210022ED
:103ED0002023FFF76DFF87F801804FF4805030609A
:103EE00000200121FDF7E2FF1025C0F21805A81CF3
:103EF0000121FFF763F844F60004C4F201044FF611
:103F0000FF70E062C4F828902068012140F0800032
:103F10002060681CFFF752F84FF62C40CFF6FF7078
:103F20004FF4FA71215044F20004C4F20104C4F8C1
:103F300028B487F80A804FF4001030605046012101
:103F4000FFF73CF828460121FFF738F84FF0904082
:103F5000022100220423FFF72BFF4FF4A0100121C0
:103F6000FFF72CF85820C4F2020040F68A110160D5
:103F7000102038704FF4006131604FF6FF71E1623C
:103F8000A062206840F080002060206840F00100BE
:103F9000206001B0BDE8F04F02F0C2B970B540F248
:103FA0005044C2F20004606F7E281FD341F2240007
:103FB000C4F20000006840F2CC457C28C2F2000543
:103FC00008D8E08FC0084A2804D82868B0F5FA7FDE
:103FD00038BF70BD607D0130C1B26529607505D301
:103FE00001F0F8F80020286070BD00BF40F2000525
:103FF000C2F20005687B50B1002600BFFFF7CAFD82
:10400000A97B884224D0687B01368642F6D3EFF341
:10401000108072B601F0DEF8B4F84800A4F846004B
:1040200041F22400C4F200000168A4F84810002105
:10403000016044F20C40C4F201008161B4F84020F8
:10404000013202624160016841F00101016062B623
:1040500070BD0000F0B581B040F20005C2F200056D
:1040600040F22164E96CC2F200042046C02201F053
:104070005FFBE07D042824BF0220E075207EA0F1D4
:104080000801282920D8182822D340F6C316182161
:10409000302241F28733009601F074F80146207E09
:1040A0006986A0F10C010B2916D900F0FC01082942
:1040B00022D141F649560721102243F69523009656
:1040C00001F060F8688618E041F28730288615E034
:1040D000A0F10C010B29E8D841F287360C211822F7
:1040E00042F20E73009601F04DF80146207E69867B
:1040F00000F0FC010829DCD0688E80B242F644470B
:10410000C4F2010747F8180C607EA0F1320164295F
:104110000CD8217D81B145F25651C5F25551A0FB15
:104120000112288502F10A00AA850CE09620288554
:104130005520A88508E000BF410029854108A985D0
:104140000A2101EB5000E885A07E142100EB8000DD
:1041500001EBC000A882022002F02AF86078002853
:104160004CD0A07F0B2888BF052002F021F894F8DE
:10417000200040F2EE2694F8211006EB400094F85F
:104180002220688340F2D66000EB4100A88302F24F
:104190005E50E88394F8240094F825200138B0FAA2
:1041A00080F0410940F25040C2F20000C17002F1BB
:1041B000FA01298494F8281094F8233000221A393F
:1041C0002B7111F1160F84F827209CBF052184F86C
:1041D000281094F829100B3911F10B0F9CBF0A21FC
:1041E00084F8291094F82A10A1F10A02D2B2F62A12
:1041F00006D80A2184F82A101DE000BFA88A66E0CC
:1042000001EB81016FF03702A2EB41012A8DAB8DEA
:1042100052FA81F22A8553FA81F26B8FAA8553FAFA
:1042200081F26B8D6A8753FA81F2E9706A853A6888
:10423000C9B21143396094F82B107331C9B2B8294F
:104240009CBFFF2184F82B1094F82C1001396229AF
:104250009CBF0121817194F82D100B3911F10B0FC6
:104260009CBF052184F82D1094F82E20092A09D826
:10427000042A10D800F11A01DFE802F004380B0D0F
:104280003C0000BF0021A0F8191040F21141C2F219
:10429000000101200870A88A202381084A299CBFB8
:1042A0000021A97145F62941C0F28F21A0FB01121E
:1042B000E17EB3FBF1F145F25653C1F25553A0FB39
:1042C0000337B2FBF1F2B7FBF1F1EA8629874FF42D
:1042D000FA774FF4967140F6B8324FF47A7300973C
:1042E00000F050FFA88401B0F0BD00BF012141766D
:1042F000CBE700BF40F21041C2F2000101220A7078
:1043000040F21141C2F2000100220A7000F11901CD
:10431000BFE7000082B0FFF781FD4FF47E600068C8
:104320004EF2DA31C5F6251140F2000B8842C2F296
:10433000000B1DD140F6E470006846F2D931C4F696
:10434000B861884214D140F6EC70017847F600401D
:104350001F29C0F6000009D02B2905D0352907D127
:1043600000F5F84002E000BF00F5BE30CBF84C008D
:10437000FFF756FDFFF786F9FFF76CFE40F2216864
:10438000C2F2000898F803109BF80000022907D138
:1043900098F80410122903D198F8011088421DD909
:1043A00041F20221A8F8031045F25221C4F2204143
:1043B000C8F8051044F25511C2F24C01C8F80910B2
:1043C00045F24531C2F24301DBF84C20C8F80D102C
:1043D00088F801004046C02101F036FA98F8110033
:1043E00098F81410013818BF01208BF80F00BBF8A3
:1043F00032000029ABF8300004BF002088F8130019
:1044000098F82600E8B14FF47A70ABF83A00012032
:10441000BBF82C10C8F812008BF80600002088F8B2
:10442000160001F13200BBF82E10ABF82C0001F1A0
:104430003200BBF82810ABF82E0001F13200ABF8C7
:10444000280043F20009C4F2000901F0CFF840F25D
:10445000504AC2F2000A0026AAF83860FDF708F9AF
:104460004AF6AA20C9F8000001F094F99AF8000071
:1044700000281CBF01208AF8050001F07FFE40F2F1
:10448000CC45C2F200052BE098F81C0000284FF044
:1044900001008AF8020000F03581BBF8320098F87C
:1044A0002910BBF8302000EB410113398BB25A437D
:1044B000B2FBF0F20124801A0130AAF83E10AAF8EB
:1044C000560001F0F9F8BAF8560042F63441C4F249
:1044D0000101C1E9000088608AF80F40AAF858601D
:1044E000A889E9892A8A6B8A0844AC8A1044EF8A31
:1044F0001844204438440430400829686860032088
:10450000052938BF06208BF811008BF812004AF6F7
:10451000AA20C9F8000098F8151001290DD1BBF8A0
:104520003270DBF850007B086021C822009700F051
:1045300029FE98F81510ABF83000022916D1DAF8E8
:104540007400A0F16501942902D80D2148430BE0C5
:10455000411E632902D240F2145005E0FA3810F1EE
:10456000FA0F03D840F6B240ABF83000BAF8420078
:1045700044F62161884209D39AF81710002940F0C7
:10458000C78449F64141884280F0C284BAF82A00C3
:1045900044F62161884246D3BAF82C0046F2B702AD
:1045A0000104CBF20B6251FB02F101EB00410A1254
:1045B00002EBD17240F21441C2F20001DAF86C3021
:1045C00009781A440329CAF86C2009D0022917D0A7
:1045D000012926D19AF81E00022100F5007016E08C
:1045E000BAF8520044F2AF714143A0EB11404008C9
:1045F00000EB11400009042161F31F20012106E0B6
:10460000C0B229214843C00A00F5C060032140F22E
:104610001A42C2F20002108040F21440C2F20000BE
:104620000170AAF82A60BAF832102868C8294FF039
:10463000000238BF012264284FF0000388BF012325
:10464000B0F57A7F56D8002954D01A4018BF8AF89E
:10465000126098F813201AB19F2998BF8AF8126047
:104660009AF8082032B10909182998BF8AF812600F
:1046700006E000BF95298CBF0A2164218BF8071042
:10468000696845F25652C5F2555251FB02F101EBF1
:10469000D1710B28CAF874104DD39AF80C00002879
:1046A00049D0A868FFF772FADAF874100A097C2A70
:1046B0003ED84A0890423BD998F81200BAF83A20FE
:1046C000B0FA80F040092F2A4FF0000288BF012283
:1046D00010429AF807002E6000F101008AF80700E6
:1046E0001CD1DBF85000B0F57A7F88BF8AF81360E0
:1046F00016E000BF8AF8126098F81320002AABD1A8
:10470000AEE700BF42F63440C4F20100C0E90066E3
:104710008660FDF7FFFAAAF85860E1E68AF81360B0
:10472000BBF82800012240088BF80B20AAF82E00C5
:104730008AF80C60A9609AF81000DBF85010002885
:1047400018BF012032294FF0000188BF01214EF22D
:104750000B4208404FF01001CEF200021CBF0021B6
:1047600010201170907250709AF80E0090B19AF863
:104770001E00BAF85210BAF82C20BAF86E30BAF807
:1047800058704446009700F0F1FB0AF10E080A2029
:1047900009E000BF9AF81F0070B1444600F0D2FB58
:1047A0000AF11F08312001F01FF940F2CC4588F8CA
:1047B0000060C2F20005A0469AF80D000130C1B2B7
:1047C000C9298AF80D00C0F09680FCF729FE09F58A
:1047D00074400121FDF786FABAF85A00FFF7E2F9B2
:1047E000BAF85E1040F6E44611227143C1F20102AC
:1047F000A1FB0212BBF82610120A514348F21F52C5
:10480000C5F2EB12A1FB021C9AF8111040F27E7E59
:10481000C2F2000EDAF878303EF81170BAF844406F
:10482000DB1B2344A3FB0275C5F34F1748F20B12A1
:104830007E43C1F2A602A6FB0262BAF85260AAF851
:104840005C008AF81E00C6EBC6002EF8114001314C
:1048500000EB5C10CAF87830CBB2632B4FEAD00083
:104860004FEA5513AAF8520088BF0021AAF8343045
:1048700053098AF811109AF803101B044FF0000333
:10488000CAF8707058BF5309AAF82C3059B39AF877
:104890000910BBF8202080B25143814220D9BAF8D8
:1048A00028009AF814104FF67C47013044F6206334
:1048B000CFF6FF7782B211FB07319142AAF82800A8
:1048C00011DA0024AAF83A40FDF724FA00F082FC3D
:1048D0008AF81340AAF838408AF8174003E000BF6E
:1048E0000020AAF8280040F2CC4500200026C2F2A1
:1048F00000058AF80D009AF814008AF8156000285F
:1049000042D0BAF83A003128FFF4BEAD9AF8171039
:1049100000293FF4B9AD88285AD89AF80200A0B10E
:1049200044F20C41C4F20101086820F00100086063
:1049300000F050FC42F63440C4F20100C0E90066C9
:104940008660FDF72DFA8AF802609BF80F30BAF8FE
:104950004A00BAF84C10BAF84E20002B00F05481EF
:10496000013803B20139002B0BB2A2F1010248BF9A
:1049700040F26710002B13B248BF40F26711002BC2
:1049800048BF40F2671252E1686842F2C072C0F25A
:1049900009029AF8131092FBF0F04843AAF8580065
:1049A00080B24CF6CD4148439BF80610C00CAAF8E3
:1049B000600089B3BBF83610BBF83820BBF83A303A
:1049C000BBF83C70009700F0DDFB014626E000BF1D
:1049D0009BF80F30BAF84A00BAF84C10BAF84E20DB
:1049E000002B4FF001038AF8023000F0A381013858
:1049F00003B20139002B0BB2A2F1010248BF40F211
:104A00006710002B13B248BF40F26711002B48BF5C
:104A100040F26712A1E100BF4FF4FA619AF81E005C
:104A200098F82B20ABF8341090420BD9BBF83C30EF
:104A3000A2F10A010A325B080127009700F0A2FBED
:104A4000ABF834002868632806D8DBF85010B1F5BD
:104A5000FA7F01D90C200BE0DAF8740064214FF4DE
:104A6000FA7203230C27009700F08CFBDBF8501040
:104A7000322938BF022098F82F1041F22402C4F2E4
:104A800000028BF80D0079B1BAF83E0064214FF4B2
:104A9000FA620D231727009700F074FB41F22402FD
:104AA000C4F200028AF81D0010684AF6C9718842F3
:104AB000FFF416AD9AF8130001287FF411AD9AF8AF
:104AC000120001308AF8120000F084FBBAF83A00B4
:104AD00041F224032F284FF001008BF80B009EBFFA
:104AE0008AF8136041F28830CBF850002E60C4F28F
:104AF00000031868AAF848001E60DBF850102A6806
:104B000001EB410111FA80F08108CBF850104FF60B
:104B1000FE7101EA1011C1EBD000052AAAF8361087
:104B2000AAF8400014D218689BF80F109BF81300E5
:104B300001291DD10130C1B207298BF8130022BF12
:104B400001208BF813008AF80C0000F001001DE032
:104B500080B200BF19688142E6D219688142E3D26F
:104B600019688142E0D219688142F3D3DCE700BFC3
:104B7000013801068BF8130005D1062001218BF8BE
:104B800013008AF80C10012121EA00008BF80E00B6
:104B9000EFF3108072B69AF80F0018B99BF8130063
:104BA000FDF790F962B6FDF759F9DAF8740040F6AE
:104BB000C511884224BF01208BF80B009BF813100D
:104BC000DBF8500005EB41014881296898F81D2069
:104BD00098F8263001311A43AAF81B608AF816604B
:104BE000296007D01429FFF47BACB0F5FA6F05D922
:104BF00076E400BF00097C283FF672AC8BF80B60AE
:104C0000FEF736FD6CE400BF013003B20131B3F5AD
:104C1000B47F0BB202F10102A8BF0020B3F5B47F4C
:104C200013B2A8BF0021B3F5B47FA8BF002240F2A1
:104C3000DC04AAF84A0000B2C2F20004AAF84C1040
:104C400034F91000BBF84010AAF84E20BBF832200F
:104C5000084444F6D3575043C1F2620750FB07F0B3
:104C6000C11198F82D2001EBD07046F267695043CE
:104C7000C6F2666950FB09F0810801EBD07080B282
:104C800001F084FABAF94C00BBF8401034F9100076
:104C9000BBF832200844504350FB07F0C11198F88C
:104CA0002D2001EBD070504350FB09F0810801EB3F
:104CB000D07080B201F070FABAF94E00BBF8401023
:104CC00034F91000BBF832200844504350FB07F081
:104CD000C11198F82D2001EBD070504350FB09F022
:104CE000810801EBD07080B201F05CFA98F81B10DB
:104CF00041F65832B2FBF1F340F22A32BAF83A00E8
:104D0000B2FBF1F730217822009700F03BFAABF8C4
:104D10003E0080B2FEF7F2F9BBF83E004FF4167188
:104D2000B1FBF0F043F20009AAF85800C4F2000900
:104D3000FFF7D6BB013003B20131B3F5B47F0BB23C
:104D400002F10102A8BF0020B3F5B47F13B2A8BFDF
:104D50000021B3F5B47FA8BF002240F2DC04AAF81A
:104D60004A0000B2C2F20004AAF84C1034F9100054
:104D7000BBF84010AAF84E20BBF83220084444F695
:104D8000D3575043C1F2620750FB07F0C11198F8A6
:104D90002D2001EBD07046F267695043C6F2666978
:104DA00050FB09F0810801EBD07080B201F0EEF900
:104DB000BAF94C00BBF8401034F91000BBF83220AF
:104DC0000844504350FB07F0C11198F82D2001EB27
:104DD000D070504350FB09F0810801EBD07080B2D5
:104DE00001F0DAF9BAF94E00BBF8401034F91000BE
:104DF000BBF832200844504350FB07F0C11198F82B
:104E00002D2001EBD070504350FB09F0810801EBDD
:104E1000D07080B201F0C6F9BAF83A00C82805D9B6
:104E20005020AAF84A60ABF83E0001E0BBF83E0013
:104E300043F20009C4F20009FEF760F9BAF84A002B
:104E400000287FF44DAB0120AAF813008BF80B006B
:104E500041F2240042F22831C4F20000CBF8501095
:104E6000CAF87410A960016098F81D001421296027
:104E70008AF80F6000281CBFBBF82E00AAF82E008D
:104E80009BF80F109BF80C0001290DD10130C1B225
:104E900007298BF8130022BF01208BF813008AF832
:104EA0000C0000F001000DE0013801068BF8130042
:104EB00005D1062001218BF813008AF80C1001217E
:104EC00021EA00008BF80E00EFF3108072B69AF81A
:104ED0000F0018B99BF81300FCF7F4FF62B6FCF75B
:104EE000BDFFDAF8740040F6C511884224BF0120E6
:104EF0008BF80B009BF81300DBF8501005EB40001B
:104F0000AAF81B604181FEF737FEFFF7E9BA00BF40
:104F1000FCF700FF42F634410020C4F20101AAF878
:104F20001700CAF8380008604860886000F076FC16
:104F300040F22050C2F200004FF48071FCF7AFF94C
:104F4000FCF72CFD10B540F2EC44C2F2000440F234
:104F50002161C2F2000120463022FCF75BF92046B5
:104F60003021FEF73BFE84F8300010BD10B540F252
:104F7000EC44C2F200042070080ADDF808C060703A
:104F8000100AE070180A60714FEA1C20A170E071ED
:104F9000204609212271A37184F808C0FEF71EFE85
:104FA000607210BD40F2104CC2F2000CBCF80A1046
:104FB00021B10020ACF80A001CE000BF40F26341C0
:104FC000C2F20001097800294FF0000108BF4FF636
:104FD000FF70B1EBD03F07D100F44041B1F5804FF5
:104FE00040F0A880062100E00721C840CCF8181046
:104FF00040EA41212DE9F04F080A80EA11134B40A5
:105000000F2424EA030343EA0114CCF8204046F6B7
:105010008054C0F60004C1F30312A55C265CAA020A
:1050200042EAC63740F2D40201F00F00C2F2000299
:1050300014F8008092F800E040F2E860C2F200004C
:1050400000EB8E02802014F803B020EAC60A06F0B6
:1050500008068AEA061600EA97214BEA48197140C9
:1050600000EA572349EA07044B4000EA1727CCF827
:1050700024405F4005F0100C87EACC0C05F00805D1
:105080008CEA0515C2E9036102F1140181E8881078
:1050900000EA541125F07F0383EA010C00EA14139F
:1050A000C2E9010A83EA0C0300EAD400584008F080
:1050B000100780EAC70708F00806156287EA061697
:1050C00009F08005754009F0400425F07F0181EA70
:1050D000440109F0200481EA8404C2E90B070BF0C3
:1050E0001000C2E90F1484EAC0000BF00801C2E905
:1050F00009C380EA01110BF0040381EA43130BF0AA
:105100000207C2E90D6583EA87174FEACB1602F161
:10511000440CF6B227F07F058CE88B0040F2E86182
:105120006E400020C2F20001566541F82E00BDE835
:10513000F08F00BF00F46041B1F5005F02D105219E
:1051400053E700BF00F47041B1F5805F02D1042144
:105150004BE700BF00F47841B1F5006F02D10321A5
:1051600043E700BF00F47C41B1F5806F02D102211A
:105170003BE700BF00F47E41A1F50071B1FA81F177
:10518000490932E710B5844602988C4518DD14466B
:10519000864600BF64457046D8BF10BD834215D017
:1051A00022460C44641000EB030EA1424FEA6E0E3F
:1051B0000ED06445EEDA611C61457346E7DB00E022
:1051C0009E466245C8BF704610BD00BF184610BD60
:1051D000704610BD40F20040C4F20100016821F4A5
:1051E000001101604FF4001141617047B0B54EF6F7
:1051F0000C5ECEF2000EDEF800304FF0FF35C3F348
:10520000022383F00704042C28BF0424033B05FA7F
:1052100004F438BF0023A1434EF2001C994005FA64
:1052200003F3CEF2000C9A43114300F00F0200EB9F
:105230000C030901043A03F540730028724448BF87
:1052400002F10C03197048BFB0BD00F01F0101222C
:1052500002FA01F1C0F342104CF82010B0BD00007A
:105260002DE9F04381B042F62848C4F2010841F22A
:105270008730C8F80400EFF3108072B640F21D507A
:10528000C2F20000007843F200094CF6CD447925C3
:10529000C4F200094AF6AA27CCF6CC440A26C8E98B
:1052A0000300C8F8140000BF023DA5FB0401080973
:1052B000C9F80070FCF706FE06EB5500C8F80000C0
:1052C0000A20FDF739FF022DEED8FCF723FD002060
:1052D00040F23202C8F80000C2F2000240F29241ED
:1052E0001288C2F200010880C8F8042062B601B03A
:1052F000BDE8F0832DE9F04F81B042F6284543F236
:1053000000080320C4F20105C4F20008FCF7DAFD2E
:1053100040F2924940F2216600274AF6AA24C2F2DE
:105320000009C2F200064FF0000B4FF0000A07E040
:105330000AF1010A0BF104000BF1020B7E285DD289
:10534000C8F8004006EB0B0191F83400A9F8007092
:10535000FF28EDD091F8351000293FD04FF47A6244
:10536000F72311FB03214DF6C002C0F2A702B2FBE6
:10537000F1F148F2A0635FFA8AF2C0F20103C2EBD6
:10538000C212B3FBF1F300EB420048F21F52584344
:10539000C5F2EB12A0FB020241F60030C0F2B700EA
:1053A000B0FBF1F00A21296080B240F21D51686023
:1053B000C2F20001097848434CF2D511C0F2D10184
:1053C000A0FB01010809C5E903006861C2F34F10A1
:1053D000FDF7B2FE4FF0000AACE700BF5FFA8AF1BA
:1053E000C1EBC11100EB41004FF0000AC5E903AA6F
:1053F000C5F814A0FDF7A0FE9CE700BFFCF78AFCEF
:10540000002040F232012860C2F200010988696080
:10541000A9F800004AF6AA20C8F8000001B0BDE8CB
:10542000F08F000010B542F62844C4F2010441F2A6
:10543000873060602820206040F21D50C2F20000DA
:105440000078C4E9030060610220FCF73BFD962070
:10545000FDF772FE43F20000C4F200004AF6AA21F2
:105460000160502020609620FDF766FEFCF752FC9C
:10547000002040F232022060C2F2000240F292416B
:105480001288C2F200010880626010BD10B542F6B9
:105490002844C4F2010441F2873060603220206069
:1054A00040F21D50C2F200000078C4E903006061C0
:1054B0000220FCF707FD9620FDF73EFE43F20000B8
:1054C000C4F200004AF6AA2101601E202060962046
:1054D000FDF732FEFCF71EFC002040F23202206095
:1054E000C2F2000240F292411288C2F2000108802A
:1054F000626010BD10B5EFF3108072B642F628441A
:10550000C4F2010441F28730606043F20000C4F24B
:1055100000004AF6AA2101605020206040F21D5090
:10552000C2F200000078C4E9030060610320FCF7C8
:10553000C9FC6420FDF700FE462020606420FDF7D2
:10554000FBFD282020606420FDF7F6FDFCF7E2FB60
:10555000002040F232022060C2F2000240F292418A
:105560001288C2F200010880626062B610BD0000BD
:1055700070B542F62844C4F2010441F287306060FD
:10558000EFF3108072B643F20005C4F200054AF64C
:10559000AA263C202E60206040F21D50C2F200007E
:1055A0000078C4E9030060610120FCF78BFC4B200C
:1055B000FDF7C2FD502020604B20FDF7BDFD5A20B5
:1055C00020604B202E60FDF7B7FDFCF7A3FB002009
:1055D00040F232022060C2F2000240F29241128890
:1055E000C2F200010880626062B670BD10B5EFF3D0
:1055F000108072B640F22160C2F2000090F83000D4
:1056000042F62844FF28C4F2010403D0FFF772FEDB
:105610002CE000BF41F28730606040F21D50C2F2C2
:1056200000000078C4E9030060610320FCF74AFC35
:1056300037202060C820FDF77FFD0520FCF742FCE5
:1056400028202060C820FDF777FD0620FCF73AFCF3
:1056500019202060C820FDF76FFDFCF75BFB40F2CE
:1056600092410020C2F200012060088040F2320026
:10567000C2F200000088606062B610BDB0B540F2B2
:105680005044C2F20004607802280BD0012804D1F3
:1056900000200025FCF702FE6570BDE8B04000F078
:1056A000B1B900BF40F2CC40C2F200008088FFF7E1
:1056B00079FC00206070B0BDB0B54FF09040012182
:1056C00000224FF480634FF48064FEF771FB2825BD
:1056D000C4F600054FF09040012100224FF4007302
:1056E0002C604FF40074FEF763FB4FF090400121F3
:1056F00000224FF480732C604FF48074FEF758FB47
:105700002C6005F576742046022100220223FEF764
:105710004FFB2046022100220123FEF749FB4FF0F8
:105720009040022100228023BDE8B040FEF740BB3C
:10573000012AB8BF704770B5042A02F0030C01D2E9
:10574000002211E022F0030E431C00228D5C9E1803
:105750008C1806F8015C65789D54A5780432757044
:10576000E4789645B470F1D1BCF1000F0FD0535CD2
:10577000BCF1010F83540AD0531C13F801E0BCF1B3
:10578000020F00F803E002D00232515C8154BDE800
:1057900070407047B0B55825C4F20205286844F23D
:1057A0000004C4F201042860204601F0CBF8412037
:1057B00040F2D501A061C2F200010B2009782062FD
:1057C0004FF6FF70A162E0626069002140F00100C5
:1057D000606140F27D70C2F20000017004F134009B
:1057E0006162A86040F22050C2F20000E86040F21E
:1057F0007C00C2F2000001786960E16841F4007148
:10580000E160216841F001012160007840F68B11D0
:10581000402808BF40F6AF112960B0BD44F2240013
:10582000C4F20100002181600160704740F2000174
:10583000C2F200010B7840F22160CA6CC2F2000093
:10584000C0214370AFF300802DE9F04F03AF85B066
:105850008346C81701EB90704FEAA00820F00300C0
:10586000073020F007009246ADEB00058946AD46B3
:1058700028464146FBF713FDB9F1040F39DBA8F1C7
:105880000100032808F0030C04D20021BCF1000F32
:105890001BD12EE028F00301C1F1000E00210023EE
:1058A0005BF803400BEB0300EC5044688668C0686B
:1058B0000439EA188E4503F11003C2E90146D060AD
:1058C000EED14942BCF1000F13D05BF82120BCF1AE
:1058D000010F45F821200CD04A1C5BF82230BCF1A6
:1058E000020F45F8223004D0881C5BF8201045F8E0
:1058F000201047F8148CFEF725F85FEA8A5002D191
:105900005046FDF757FF002047F8180C57F8180CC1
:1059100057F8141C884211D257F8180C57F8181C65
:105920000AEB800055F82110FEF71CF80320FDF764
:1059300031FF57F8180C0130E6E700BFA7F10C045F
:10594000A546BDE8F04FFDF72BBF0000B0B55825C8
:10595000C4F20205286844F2000440F01000C4F2CA
:1059600001042860204600F0EDFF6020A0610320C4
:10597000206240F23D40C2F2000000780121A062A6
:105980004C20E06240F27D70C2F20000017060695C
:1059900040F00100606104F13400A86040F2E8606A
:1059A000C2F20000E86040F2D400C2F200000078C9
:1059B00017306860286840F002002860286840F0CE
:1059C00008002860286840F001002860E06840F482
:1059D0000070E060606C40F400406064206840F05B
:1059E00001002060B0BD00001C21C4F202010A6861
:1059F00022F001020A604860086840F00100086077
:105A0000704700002DE9F04182B040F22166C2F2F9
:105A10000006B07C40F2504440F20008C2F200049C
:105A2000C2F2000820B1607E30B1A08F1AE100BF41
:105A3000A08F60868BE100BF96F8261098F80420AE
:105A4000A08F4FF47A775300002907EB420119D059
:105A5000814252D298F80F20777CBA423CD1277904
:105A60004FF0000C4FF0010E002FA4F832C084F864
:105A70000FE042D0C2F1010288F80F2084F80FC075
:105A80002CE000BF814209D3C3F57A72824200F252
:105A90009980824240F2DC80E1E000BF98F80F205C
:105AA000737C9A427CD1D8F85000B8F82430002793
:105AB0009842E38F4FF0000088BF0120C82B4FF0C1
:105AC000000338BF0123184254D1207D002851D152
:105AD0004FF47A70A08763E0E27B72B900222271F2
:105AE00040F2FF774FF4FA622F230097FFF74AFB4B
:105AF00098F804106086A08F4B00C3F57A7282423A
:105B000027D9717C98F80F70C1F10105BD420DD104
:105B100025794FF0000C0127A4F832C0E773C5B116
:105B200088F80F1084F80FC002E000BFE17B81B954
:105B300000212F2740F2FF7321710097FFF722FB0E
:105B400098F804106086A08F4FF47A724B00A2EB95
:105B50004102824200F2838003F57A7181427ED352
:105B6000E27B0021002A618679D0E1730121217155
:105B700075E000BFC2F1010088F80F0040F2CC4090
:105B8000C2F200000760012088F80B00FFF722FB3B
:105B900098F80410A08F4FF47A72A77202EB4101BB
:105BA00040F2FF774FF4FA622F230097FFF7EAFAEB
:105BB00098F804106086A08F4B00C3F57A72824279
:105BC0007FF667AF717C98F80F30C1F101079F42F3
:105BD0002CD1D8F85000B8F8243000279842E38F31
:105BE0004FF0000088BF0120C82B4FF0000338BFE2
:105BF0000123184206D1207D20B94FF47A70A08786
:105C000014E000BF40F2CC40C2F200000760012067
:105C100088F80B0088F80F10FFF7DCFA98F80410EA
:105C2000A08F4FF47A72A772A2EB41022F270021B6
:105C300040F2FF730097FFF7A5FA98F8041060860A
:105C4000A08F4FF47A724B00A2EB4102824206D839
:105C500003F57A71814222BF00216186A172617EC3
:105C6000002974D0B0F5836F33D398F80F10727C8D
:105C7000914227D1D8F85000B8F82420002790424C
:105C8000E28F4FF0000088BF0120C82A4FF00002C9
:105C900038BF0122104205D1207D18B90020A0870D
:105CA00010E000BFC1F1010088F80F0040F2CC40C5
:105CB000C2F200000760012088F80B00FFF78AFAA3
:105CC000A08FA77298F80810C1EB4001A1F601015E
:105CD0006186A0F1300189B2C9087C2932D8717C73
:105CE00098F80F20C1F10103934225D1D8F8500054
:105CF000B8F8242000279042E28F4FF0000088BFC0
:105D00000120C82A4FF0000238BF0122104205D1FD
:105D1000207D18B90020A0870EE000BF40F2CC40E3
:105D2000C2F200000760012088F80B0088F80F100D
:105D3000FFF750FAA08FA77298F80810C1EB400146
:105D4000313961862F2802D800206086A072A07C9D
:105D500098F8071088420BD9B07D48B1FBF7DAFFFD
:105D6000FFF738FA002060876620A07456E000BF75
:105D7000F07C28B1608E1D282AD8002161873BE085
:105D80006079002848D02078002800F08580D8E984
:105D90001113608E00912F2140F2FF7240F2FF77C5
:105DA000FFF7F0F948F20071C0F29331F27E91FBF7
:105DB000F0F05108628E90FBF1F02E2AE08400F2A0
:105DC000818000206087C8F85400606626E000BF2C
:105DD0001E2801D11E200FE096F8281001EB81014A
:105DE0008A00824208D9A0271E212F230097FFF79F
:105DF000C9F90146608EC1E796F8281001EB8101D0
:105E0000890081420AD840F2FF7740F2FF72A02356
:105E10000097FFF7B7F900E0608E6087207D0028CB
:105E200040F01681E07D002800F01281F17C608F47
:105E300001EB81022F2707EB0212824200F2B180B0
:105E4000E07C58B1608FB8F82C30002900F09A80BF
:105E500028334FF4FA65892197E000BFFBF75AFF1A
:105E600098F80B00002840F08180E07C002840F08A
:105E70007B8098F80F1098F81300012936D1013073
:105E8000C1B2072988F8130022BF012088F8130047
:105E9000207300F0010036E0606E48F6AD31C6F6C2
:105EA000DB0150FB01F0011301EBD07081B230290E
:105EB00098BF302110F4784F18BF40F2FF7161870E
:105EC000ACE700BF606E48F6AD31C6F6DB0150FBB3
:105ED00001F0011301EBD07081B2302998BF30215D
:105EE00010F4784F08BF0F46678797E7013801061F
:105EF00088F8130004D10620012188F813002173CB
:105F0000012121EA000088F80E00EFF3108072B63C
:105F1000E07B18B998F81300FBF7D4FF62B6FBF7E3
:105F20009DFF606F40F6C511884224BF012088F8AC
:105F30000B00002098F8131040F2CC42A4F81B008C
:105F4000D8F85000C2F2000202EB4101488142F24F
:105F50001070C8F8500041F22400C4F2000041F271
:105F6000883101600120E074FDF782FB0120E074BC
:105F7000B8F82800F17CE085608FB8F82C30002953
:105F80007FF466AF4FF4FA652F2140F2FF7200955F
:105F9000FFF7F8F896F826102086002904BF0020A5
:105FA000E073F07C618F00EB800007EB001088420B
:105FB0004CD9E07A052813D8DFE800F01404080C67
:105FC000100400BFFFF762FA0AE000BFFFF72AFAE9
:105FD00006E000BFFFF744F902E000BFFFF7C8FA90
:105FE0000020E072307D002852D0E07C002800F0D4
:105FF000838098F81300B8F81810C0EB001001EB7C
:106000008000A0F13C010AB2B2F5B47FA8BFA0F5B0
:10601000D27101F1770002B2A4F84A10B2F5B47F50
:10602000A8BFA1F1F100A4F84C0001F1EF0002B209
:10603000B2F5B47FF27CA8BFA1F17900012AA4F8DF
:106040004E0004BF0120207500202086E07B18B19F
:1060500002B0BDE8F08100BF608F2E282CD940F23D
:10606000CC41C2F200010A68717F1E23CB40218E11
:106070009A4222D2B8F8282091423CBF228611468B
:10608000B8F82A20914284BF2286114615E000BF4D
:10609000E17C00200029208653D1012188F80B10D3
:1060A000317F40F2CC42C2F200020029106043D09E
:1060B000FDF71CFD45E000BF218EB8F83420914269
:1060C00084BF22861146A2792AB1B8F922209142D2
:1060D000C4BF91B221863028BAD3A06E0128B7DBA5
:1060E00041F25972CDF2B712A0FB020201EB52301D
:1060F000208602B0BDE8F0810120327F88F80B00D5
:1061000040F2CC40C2F2000000210160A1757AB1DA
:10611000F07C00287FF46DAF96F8290040F2BC7146
:1061200001EB40002084FFF7C7FA0120E07360E72D
:10613000FBF7F0FD5DE700BFE07B002808BFFBF741
:10614000E9FD96F82610E07B002918BF00283FF4EF
:106150007EAFA18F4FF47A70FDF718FDB8F83210BA
:1061600000F57A7082B201399142208402DDFFF796
:10617000A3FA6BE7FDF7BAFC68E700004FF0904028
:10618000022101220423FDF71FBE000042F6344124
:10619000C4F201010860704742F63841C4F20101BF
:1061A0000860704742F63C41C4F201010860704744
:1061B0000B2828BF0B2040F21D514000C2F2000105
:1061C0000870704780B542F20000C4F2020040F24D
:1061D00053110160FCF742FF00200121FCF712FE81
:1061E0000120FCF7DDFE0128FAD100201D21FCF77B
:1061F0000DFF02200121FCF705FE00BF1920FCF76E
:10620000CFFE0128FAD10020FCF7C6FD0020FCF7E4
:10621000DFFD0020FCF7CEFD0120FCF7E7FD0220AA
:10622000FCF75AFFFCF762FF0228FBD10020FCF7C5
:10623000DDFDBDE8804000F001B80000B0B541F2DE
:10624000040441F20025C4F20204C0F27A05FCF70E
:106250004DFF02280CD000284BD1206D800548D579
:10626000E06A800144BF46F60045C0F2DC2540E00C
:106270002068A16A4FEA104C002921D421682268C5
:10628000C1F38341C2F341721301581C0F29034625
:1062900018BF0223002A18BF03465FEACC7003EB45
:1062A000010005D02168890302D4454321E000BFE5
:1062B00040F60011C0F23D0100FB01F519E000BFFE
:1062C000A06AA36AC0F3031EA06A40F60011C0F2E0
:1062D0003D01C3F308235FEACC7200F0070003D04E
:1062E0002268920358BF294659430EFA00F0B1FBC9
:1062F000F0F540F2AC30C2F200000560216804A263
:10630000C1F30311515C25FA01F10160B0BD00BF7A
:106310000000000000000000010203040607080955
:10632000F0B587B00E20C0F218000121FCF746FE40
:106330001220C0F214000121FCF740FE4FF4A0101F
:106340000121FCF73BFE40F20010C0F2021040F2C7
:10635000004406904020C4F60004059005A920469C
:10636000FDF7E8FC2046062100220027FDF740FD4E
:106370001C25C4F202052846FDF75AF96E46304640
:10638000FDF708F93120C0F20010CDF80A00102006
:10639000ADF8080040F2EC4043F60004C2F2000001
:1063A000C4F201040190201D009028463146CDF82A
:1063B0000E70FDF7FFF820464FF4E1310022002374
:1063C00000F0EAFB2046012100F03EFC20460121BE
:1063D00000F026FC2046012100F02CFC2046012183
:1063E00000F0C6FB2046012100F0CCFB0A2003216F
:1063F0000022FEF7FBFE07B0F0BD00002DE9F043E0
:1064000081B040F25044C2F20004208E618DE087DA
:10641000481C618C6085481CA18C6084481CE17D0F
:1064200040F221690029C2F20009A0843ED099F807
:106430001F00C0B140F20002C2F200025278B4F86C
:1064400054101044013100EB80006FF0130202EB96
:1064500080008AB29042A4F8541004D20120A073A4
:106460000020A4F85400207D002840F0D28140F2A2
:106470000006C2F20006F07A002800F08080E07C7E
:1064800000287CD0FEF7A6FEFDF784FBB17BC9B1E6
:10649000C8B1A07D327C0130C3B29342A07554D8FC
:1064A000E07E00286BD1207F54E000BF607A002896
:1064B000BDD1207E0028BAD0608E58B10020A4F84B
:1064C0005000B4E7D0B3207F0130E27E2077002A6D
:1064D00055D13EE0B4F8500044F62162013081B25B
:1064E0009142A4F85000A2D3208F1F2838D3E0781F
:1064F00001210028E17500F09581B4F8520041F6C1
:10650000D471C0F2B101A0FB0112B0F5B97F627283
:10651000C0F08A8143F200080026C4F200084AF65F
:10652000AA27FEF7E7FF6420FCF706FEC8F8007014
:10653000607A01368642F4D376E100BFA07D327CDA
:106540000130C3B29342A0750ED90020E27E2077BD
:10655000AAB961B1717CC0B288420CD80FE000BF0B
:1065600000202076ABE700BFE07E40B9207FB17C01
:10657000C0B2884203D90120E07600F06FFBA08C06
:106580001528C0F09380A27994F813C00021002A46
:10659000A18418BFBCF1000F45D0B4F92C1099F8B4
:1065A0002C206FF0C70312FB031240F28401C2F2E9
:1065B00000010F69D1E901E30A6003FB02730F6A6E
:1065C000C868BB42A8BF3B467F42BB42D8BF3B46E0
:1065D0008F690B61D71B07FB00F507FB00304B6A87
:1065E0000EFB02004D618A619842A8BF18465A42CC
:1065F0009042D8BF1046C86147F25341C9F2247196
:1066000050FB01F00113728C01EBD0701044B18D7E
:1066100002B28A42B8BF084600B2B0F5FA6FA8BF0E
:106620004FF4FA60708499F81D00002818BFBCF17F
:10663000000F35D0306DF18A401A40F28401C2F269
:1066400000018B6BD1E90BE2886202FB00328B6C9C
:106650004D6B9A42A8BF1A465B429A42D8BF1A466F
:106660000B6C8A63C31A03FB052203FB05F70EFBC1
:106670000022CB6CCF6308649A42A8BF1A465842E6
:106680008242D8BF0246A06E4A644EF26031104486
:10669000C0F216018842B8BF014621EAE170A06647
:1066A0006079002818BFBCF1000F2FD17079002845
:1066B00071D0B4F8520001274FF4487140F69802A7
:1066C0000A230097FEF75EFD616FE38FC829E18D15
:1066D00098BF00EB40005F1AC2B29742707209DDAA
:1066E000326D51FA80F0B2F5FA7FE08751D901207E
:1066F00006E000BFC81A904248DD881AE0870020F3
:1067000099F81710B072B17045E000BF40F2CC406C
:10671000C2F20000D0E900C1E28C736E891AD6E99A
:106720001672716502FB0132736F356E9A42A8BF13
:106730001A465B429A42D8BF1A46F36E7266CB1A6B
:1067400003FB052203FB05F0B06607FB0120B26FD7
:10675000F1669042A8BF104651428842D8BF084611
:10676000616E3067084445F6F001C0F23811884286
:10677000B8BF014621EAE170BCF1630F60669CBFBF
:10678000002070667079002893D104E099F8170012
:10679000B0700020B072E07D90B1E07C80B1608F7D
:1067A00030280DD3E18F308E44F6D35300FB01F235
:1067B000C1F26203A2FB0323012202EBD3121CE00D
:1067C000E07B78B1218C308E44F6D353728E4143F6
:1067D000C1F26203A1FB0313A2EBD3114A1CE18FA8
:1067E0000BE000BFE18F308E44F6D35300FB01F283
:1067F000C1F26203A2FB0323DA09E18542F62C41D0
:10680000C4F20101A4F85620086090B2C1E9020068
:106810000861B4F842000130A4F8420001B0BDE8BC
:10682000F08300BFFEF766FEA07E00287FF4FFAD78
:10683000002089F82600FAE5062988BF7047DFE8BE
:1068400001F0050B151F29333D0000BF016A62F3FB
:1068500000010162704700BF016A02F0010221F0ED
:10686000040141EA82010162704700BF016A02F03F
:10687000010221F0100141EA02110162704700BFDC
:10688000016A02F0010221F0400141EA8211016235
:10689000704700BF016A02F0010221F4807141EAF1
:1068A00002210162704700BF016A02F0010221F477
:1068B000806141EA82210162704700BF016A02F0F3
:1068C000010221F4805141EA023101627047000067
:1068D000062988BF7047DFE801F005290F2919292B
:1068E000210000BF816902F0010221F0080141EAA4
:1068F000C2018161704700BF816902F0010221F489
:10690000006141EAC2218161704700BFC16902F0A4
:10691000010221F0080141EAC20106E0C16902F06A
:10692000010221F4006141EAC221C1617047000007
:10693000026801F0010122F0800242EAC111016007
:106940007047000010B542F6FF31C4F201018842E1
:1069500016DD44F2FF31C4F201010B248842C0F27B
:106960000C0425DC42F60041C4F2010188423AD011
:1069700044F20001C4F2010188423FD1053432E003
:1069800040F20041C4F20001884221D041F20001EE
:10699000C4F2000188421FD042F20001C4F200019B
:1069A00088422BD10120C0F21000C41D1BE000BFA3
:1069B00044F20041C4F20101884213D044F60001C0
:1069C000C4F20101884218BF10BD07340BE000BFBC
:1069D0000124C0F2100406E00120C0F21000C41C23
:1069E00001E000BF063420460121FCF7FBFA2046F7
:1069F0000021BDE81040FCF7F5BA00BF10BD000053
:106A0000B0B540F26744C2F2000440F2604122781F
:106A1000C2F200010978002A18BF002910D140F203
:106A20006842C2F200021278012A19D0002A40F00E
:106A30009D80FCF76BFCBDE8B040FEF7ABBE00BF2D
:106A400040F27D70C2F200000078F8B1FEF7A2FEBD
:106A500040F25140C2F2000002210170B0BD00BFFF
:106A6000F1B140F27D70C2F200000078B0B340F2A4
:106A7000D040C2F200000088FEF794FA0020FBF735
:106A80000DFCBDE8B040FEF785BE00BFFEF75EFF1F
:106A900040F25140C2F2000001210170B0BD00BFC0
:106AA00040F26945C2F20005297831B1FBF7F6FBE7
:106AB0002878012898BFFEF76DFE40F26A40C2F2C6
:106AC00000000078012817D1FDF780F850B140F29E
:106AD0007C00C2F20000032101700BE0BDE8B04071
