:020000040800F2
:10100000300C0020D110000871240008711600086F
:1010100000000000000000000000000000000000D0
:101020000000000000000000000000006125000832
:101030000000000000000000732400086325000881
:10104000E3100008E3100008E3100008E3100008B4
:10105000E3100008E3100008E31000085D16000824
:10106000E31000083915000809160008C514000827
:101070004D120008E3100008E3100008E310000818
:10108000D1260008F9260008E31000087D26000894
:10109000E3100008A9260008E3100008E310000888
:1010A000E3100008E3100008E3100008E310000854
:1010B000E3100008E3100008E31000080348854629
:1010C00000F080F800480047D1430008300C0020B1
:1010D0000448804704480047FEE7FEE7FEE7FEE7D6
:1010E000FEE7FEE76D260008BD10000803460B432F
:1010F0009B0703D009E008C9121F08C0042AFAD2CE
:1011000003E00B780370401C491C521EF9D2704753
:10111000D2B201E00270401C491EFBD2704700228F
:10112000F6E710B513460A4604461946FFF7F0FFE6
:10113000204610BD70B50446002903D000202022AF
:10114000012310E0002801D00020C043C046C04663
:101150000DE02546D5408D4205D30D469540641BD4
:101160001D46954040191546521E002DF1DC2146C2
:1011700070BD000070B5002504462E46002911D030
:10118000002C01DA01254442002901DA01264942F6
:101190002046FFF7CFFFB54200D04042002D00D0DF
:1011A000494270BD002C02DA0121C90702E0002C7F
:1011B00000DD03490846C046C046214670BD000018
:1011C000FFFFFF7F1CB509480090094801900546C4
:1011D0000126009C05E0E36807CC33430C3C9847AC
:1011E0001034AC42F7D3FFF76DFF0000246C000809
:1011F000446C000870B58C180578401C6B075B0FB9
:1012000001D10378401C2A1106D10278401C03E06A
:1012100006780E70401C491C5B1EF9D12B0705D4C3
:101220000023521E0DD40B70491CFAE70378401CB2
:10123000CB1A921C03E01D780D70491C5B1C521EDA
:10124000F9D5A142D8D3002070BD0000B0B501206F
:101250008504214C6168490314D42168294206D1D0
:1012600045046068800328D42068284224D01B48A5
:1012700000681B4909684908884216D9256002F0B0
:1012800015FFB0BD1548006815490968490888422E
:1012900003D9656002F00AFFB0BD02F0D7FC114926
:1012A0000978884208D16560B0BD02F0CFFC0D49D5
:1012B0000978884200D12560B0BD08480068084917
:1012C000096849088842E4D802F0C0FC0549097859
:1012D0008842F1D16560B0BD0C1802402400004086
:1012E000AC0400201E00002005488188054A1180BA
:1012F0004188054A11800088044908807047C0462B
:10130000CC04002092040020960400207C040020DD
:10131000F0B597B000260D960C960B960A96099696
:1013200001231A0506925E48C1681143C160C16875
:1013300011401191119901680193194301600068EE
:1013400018401190032708971198402005900790A6
:1013500005200490040707AD2046294600F0EAF96D
:101360000B960897102007902046294600F0E2F9D6
:101370004C480168049A1143FA22914301604A489B
:1013800001684A4A114001603B46039739030268ED
:101390008A43019F790351180160016820220A43A2
:1013A00002600168059A91430160016880220A4346
:1013B0000260190202688A437902511801609A0298
:1013C000059201689143BA028918016038480168A2
:1013D000384A0A40384951180160169615971496F4
:1013E00013960F200490000312901196334C204660
:1013F0001438029011A900F057F9201F0168B94371
:1014000001601121490602688A437906511801607A
:1014100079052246083A13680B4313600168284A8D
:101420000A40F904511801602068042528430399F3
:10143000C94301402160206870210143216020469A
:1014400010380168A94301600168082291430160D6
:1014500010960F960E960DA9029800F00BF9606990
:1014600028430B2188436061380321688143216050
:101470006069602101439020814361610B49103113
:101480002068084020600498000261698143059843
:1014900008186061206806990843206017B0F0BD05
:1014A00034100240040802401C000240EFBFFFFF5E
:1014B00008270140FFEF3F4E001000B01424014008
:1014C000FFFFF73FB0B5194801466C390A680A6852
:1014D000920216D40968090212D50121CA43036891
:1014E00013400360CB03124C656C9D436564236815
:1014F000134023600F4A0023137068380905016008
:10150000B0BD01466839012213050B60D143036861
:101510000B400360D003064A536C83435364106846
:1015200008401060034800210170B0BD6C0002400B
:101530000044014008060020B0B52B4800782B4C31
:10154000002811D02748007800280DD020680125F8
:10155000284320600020606029480078002815D0CA
:1015600004F06AF8022014E0251F286840071CD503
:101570001F48007800280FD01E48016802220A4345
:1015800008218A430260042020600EE004F0DEF9A6
:1015900028461C4908701EE017480078022804D12C
:1015A00004202060012005F0CDF92868800705D4CB
:1015B0002868000701D501202060B0BD2068012502
:1015C000284320600C480078022801D00020606089
:1015D000002005F0B7F9E80308490A6802430A60E9
:1015E000B0BDC046480400204F0400200400024063
:1015F000520400202004004051040020081802403A
:10160000640700203904002010B5124C20688006C1
:1016100009D4206800060DD4206880050FD4206806
:1016200000050FD410BD10206060FFF75DFE20683C
:101630000006F1D58020606020688005EFD506485F
:1016400000210170012001026160216B814321634F
:1016500010BDC046000002404604002080B50120B5
:10166000C0030249086003F073FF80BD0C180240FC
:10167000FEE700008268D20712D1C268094B13400E
:101680004A681A438B681343CA681A43C26003222C
:101690009207036993430968194301610020704769
:1016A00001207047C73FFFFF10B58268D20713D1F2
:1016B000C2689202134A11D54B68F02B0ED1C36851
:1016C00013400A681A43CB680C69496913432343E2
:1016D0000B43C360F0210FE0012010BDC36813402D
:1016E0000A681A438B681343CA681A430B69134389
:1016F0004A691A43C2604968826A0A4382620020CA
:1017000010BDC0463CC2FEFFF0B50268002A0DD4F1
:101710000268074B1340F4C909681A4322432A435D
:1017200032433A430A4302600020F0BD0120F0BD7D
:101730000F7C00FEF0B584B00B68002B49D000256B
:101740000191009010E07F437F433B460F215943B6
:101750008E435D433543009805510199039D6D1CEF
:101760000B681C46EC4035D00122AA401A40F6D046
:101770000395144654434B6826465E43032767434C
:101780000568BD4335430560FE4302935D1E234655
:10179000012D05D88D685D43876837402F438760EA
:1017A0000D695D43C76837402F43C760029D022D16
:1017B000039DD4D1170A05D024244D690659002F62
:1017C000C1D104E020244D690659002FBBD15B43F1
:1017D000BCE700234A68521E012A05D8C96859434C
:1017E00042689A430A434260002004B0F0BD000002
:1017F00080B57D21C900FFF79DFC401E034948606C
:10180000002088600520086080BDC04610E000E030
:1018100070B504466F4E351F2868382101406F4867
:1018200008291ED0102916D1316803220A40032A44
:1018300000D06948316849044A0E42433068400686
:10184000400F411C1046FFF775FC3168490F491CD9
:10185000FFF770FC05E00C3E30688004410F5E48E5
:10186000C8402060296889093C220A405D4989589E
:101870001F221140C84060602968890A1C230B4060
:101880005749C9581140C840A06070BDB0B50C2878
:101890001CD0032845D14F4CA06C032108400A04FA
:1018A0008018514A904245D0504A90423BD0504A0D
:1018B000904245D1201F0068382202404748082A3C
:1018C00000D186E0102A66D1226815E0414CA06C58
:1018D0000C210140880803282CD0022823D001289D
:1018E00039D1201F0068382101403C48082970D0B8
:1018F000102950D1216803220A40032A00D036481B
:10190000216849044A0E424320684006400F411CAA
:101910001046FFF70FFC2168490F491CFFF70AFC2E
:10192000B0BD0020B0BD0C3C20684005C1172A485E
:101930000840B0BD0120C103206D80030840B0BD48
:10194000251F2868382202402448082A30D0102A4F
:1019500028D122680AE0251F2868382101401F4845
:10196000082925D010291DD1216803220A40032A05
:1019700000D01948216849044A0E424320684006B5
:10198000400F411C1046FFF7D5FB2168490F491C49
:10199000FFF7D0FB0CE00C3C20688004410F0E48A0
:1019A000C840B0BD0C3C20688004410F0A48C840C4
:1019B00029682A68920A1C231340094AD2581F2317
:1019C0001A4089093C240C40064909591940C8406D
:1019D000D040B0BD0C1002400024F40000127A0088
:1019E000F46B0008B46B000803000300020003005E
:1019F00001000300014908607047C046E400002070
:101A0000B0B51F22D30234C99C433F239B029D43A0
:101A10000B782B4323430F242403A2431A430323AD
:101A20009B034C689C4314434A88154B1340234343
:101A30000A6A1A433E4B0C39984202D04264002095
:101A4000B0BD104B1A404B690F4C1C4014438A69BF
:101A50000E4B13402343232212064C6A94431C432B
:101A600011225206CB6993432343012252070C6A89
:101A700094431C438A6A224342640020B0BDC0469E
:101A8000FF1F0000FFFF00CCFFFF0FCCFFFF0FDCAC
:101A9000B0B5056801229407A04205D0244B9842B6
:101AA00002D0244B984217D170239D434B682B439F
:101AB000214DA84214DD214CA04206DC1C4CA04262
:101AC00016D0214CA04213D02FE01D4CA0420FD0C5
:101AD0001C4CA0420CD028E02B46174DA842EADC53
:101AE000A04205D0134CA04202D0184CA0421CD1F9
:101AF00003242402A343CC681C4304608B68C362A4
:101B00000B888362D14BC3189B0A8405E318072B0B
:101B100006D814469C40E1231C4201D0097C016395
:101B20004169114341610020B0BD1C46E5E7C04654
:101B3000002C014000040040FF2B0140FF43014006
:101B400000480140004401400040014000200040A6
:101B5000F0B584B00123BC4CA1424FDC012900D177
:101B60008BE0102900D1C4E001273C02A14200D043
:101B700063E1016AA1430162B949491C13691B026F
:101B80000B40032103910902046A8C431C435168F2
:101B900009022143AD4BC3189B0A8405E31845682D
:101BA0001668C469072B21D89F40E1231F421DD02E
:101BB000039F3B039D435369019393690293D36948
:101BC0000093029B1B010296A44E1E402E43009BD5
:101BD0005D013543BB029943A24B1B1D019EB6021A
:101BE0001E400E43916889023143029E4560994B25
:101BF0001C403443C461D268C2631CE10124250344
:101C0000A94200D1B5E02504A94200D1E4E02505B0
:101C1000A94200D011E1016AA94301628B49411830
:101C2000890A83055B18016A15680395556816696A
:101C3000476D072B11D8029131462E4625469D400F
:101C4000E1231D4235460E46029906D0A30444689E
:101C50009C4393699B02234343607D4B1F40039B3E
:101C60001B023B434365D268C265032212059143C0
:101C7000720852050A432905DCE00127F943036A8B
:101C80000B40036213690B40046A032102918C43E9
:101C90001C431668516821436C4BC3189B0A84058A
:101CA000E31845688469072B1BD803963E469E407F
:101CB000E1231E4214D0029B1B029D437B02566906
:101CC00002969769D6699F432F4375003D430C23C5
:101CD0009943029B5B08DB000B4391688900194321
:101CE000039E45605B4B1C4034438461D268426371
:101CF000A1E0016A102399430162016A30239943EC
:101D000013695B085B010B435168090119434F4B91
:101D1000C3189B0A8405E618456817688469072E6E
:101D20001ED803970127B740E126374217D0032674
:101D3000B602B5435369029397692646D469BF003A
:101D4000484B3B402B43E50034461D43C023994399
:101D5000029B5B08DB010B43916889011943039FD8
:101D600045603D4B1C403B0223438361D268826344
:101D700061E0016AA943016234494118890A830577
:101D80005D18016A436816680296566817690397DA
:101D9000C769072D56D801962646AE40E1252E424A
:101DA0004ED0A403A3439469A4011C43019E446044
:101DB000294B1F40029B1B023B43C361D268026454
:101DC000032212039143254A1032039B1B03134045
:101DD0000B43310319432EE01E4F7337016A39401C
:101DE00001621A494118890A83055E18016A15685B
:101DF0005368039313690293436D072E09D8B440C7
:101E0000E126344205D044683C40966936022643B8
:101E10004660104CE41C23402B434365836DD2681D
:101E20008265032212049143029A520852040A4323
:101E300003990904114301620023184604B0F0BD60
:101E40001C46B3E71C46B2E7FF0F000000D4FEBFFC
:101E5000FF8FFFFE8CFFFEFFFF8CFFFEF0DFFFFF1A
:101E6000FFFDFFFFFCF7FFFFF0B583B004460068FD
:101E7000C00724D10D46206833490140A8680843B3
:101E80002969014368690843E96901432160032026
:101E9000010362688A43E968114361600002A16836
:101EA0008143A8690843A0600126284884420ADCCF
:101EB0002948844216D0294884420CD03BE00126B0
:101EC000304603B0F0BD2248844204D02148844209
:101ED00031D1032007E06846FFF79AFC02980028FA
:101EE00005D128E00C20FFF7D1FC002823D06F6833
:101EF000002F20D0296800260B291CD8890018A2A1
:101F00005158FFF717F90121C903EA698A420BD139
:101F10007908400040183946FFF70CF91C49014088
:101F20000007400F401805E0790840183946FFF7D0
:101F300001F980B2E060E06A0F21884329880143FB
:101F4000E162304603B0F0BDF369FFEFFF4B0040A4
:101F5000004C004000380140004400400048004070
:101F60000100000002000000040000000600000064
:101F7000080000000A0000000C0000001000000033
:101F80002000000040000000800000000001000070
:101F9000F0FF0000F0B58FB000270897079706976D
:101FA00005970497DF4A10680121019108431060EA
:101FB000106808400E900E981068022108431060C7
:101FC000106808400E9003260396042002900E9895
:101FD00005200007009002AC2146FFF7ABFB0697F7
:101FE00003960825029500982146FFF7A3FB069764
:101FF00003960295CF482146FFF79CFB0697039670
:1020000080250295CB482146FFF794FBC54AD0684E
:1020100001990843D060D06808400E900D970C9746
:102020000B970A950D46480209900E98264C08A970
:102030002046FFF769FBB0042168814321602068D6
:10204000224908402060201F02680A40026021687F
:102050001F4A114021600168114001600E971D4820
:1020600000681D49FFF766F8C82141430E910E989C
:10207000002817D00E98401E0E900E98002811D000
:102080000E98401E0E900E9800280BD00E98401E01
:102090000E900E98002805D00E98401E0E900E98B7
:1020A0000028E7D10D4841680D4A114041600168A0
:1020B000114001600B480168FF2291430160280331
:1020C000E94908600FB0F0BD04020140FFF7FFFFCF
:1020D000FFBFFFFFE400002080841E008018024044
:1020E000FFFFFBFF0CE400E00E4908460C380E4AE7
:1020F00002600E4A02600A46083A002313600B1F72
:102100000B4A1A600B685B0708D00B685B0705D0A9
:102110000B685B0702D00B685B07F3D14A60054987
:10212000016070470C300040CCCC000055550000D9
:10213000FF0F0000AAAA0000F0B5A7B00025259562
:10214000249523952295219510950C950124E30261
:102150000693BE4AD0681843D06021A90D740D8043
:10216000D068184019907048239019986F4E3046E7
:10217000FFF78EFC30688021019108433060B06920
:10218000082105910843B0611A951B951C951D9572
:102190001E951F9520956020199019AF3046214655
:1021A0003A46FFF7D5FC0420C1430491B0690840CA
:1021B000B061B06906990843B0611B951A9510216A
:1021C00030463A46FFF7C4FCB06959490840B0614F
:1021D000F06905990843F0611B951A952102029157
:1021E00030463A46FFF7B4FCF06904990840F061C4
:1021F000F06906990843F0611B951A952103304652
:102200003A46FFF7A5FCF06949490840F061706D56
:102210000599084370651B951A95210430463A4686
:10222000FFF796FC706D0499084070657068702126
:10223000884370600F2000057168814371600DA9AB
:10224000CD813C200873B068019FB843B0601895F9
:1022500017951695600615901495139512956003C1
:1022600011900F950E950D953046FFF7C9FB7749F4
:10227000086826462043086008682040039426909A
:1022800026980868022420430860086820402690A9
:102290000C940B950A9509950894079726980520A4
:1022A0000007069007AF3946FFF744FA0C940B95E8
:1022B0000A95099508940796654E30463946FFF70A
:1022C00039FA0C940B950A950995089407943046B1
:1022D0003946FFF72FFA0C940B950A950995089447
:1022E00002980790069E30463946FFF723FA0C9471
:1022F0000B950A950995089403984002079030467B
:102300003946FFF717FA0C940B950A95099508942E
:1023100003988002079030463946FFF70BFA27B042
:10232000F0BDC04634100240690A0000002C014094
:10233000FFFBFFFF00040050F0B58DB000240C94AB
:102340000B940A940994089440488168022211432E
:102350008160816811400291029901681143016016
:1023600001681140019202910299016801263143EE
:102370000160006830400290029807960694059428
:102380000494039210200290314802A9FFF7D2F979
:102390003048016820221143DF23994301602E4811
:1023A00001682E4B0B40036003210B0305689D431E
:1023B0000560036893430360026840239A43026008
:1023C000026880252A4302600A02036893433202AE
:1023D0009A180260890202688A43F102511801606A
:1023E0001F480168FF22914301601E480A90401C6B
:1023F0001D49086008A90C800B9409941B4F3C46AA
:10240000183C2046FFF744FBE84321680140216067
:10241000394614390A6870239A430A6039461039DC
:102420000A6802400A60386830430199884338607E
:1024300038680C21884338603868F0218843386058
:10244000B8680A210143B9600DB0F0BD34100240F4
:10245000000400500008024008000240EFBFFFFFE8
:1024600010E400E0FFFF000000E100E0180400407D
:102470007047704770B5334801680125A943016072
:10248000314CE07CE17B01290AD1401CE074C1B2EF
:10249000072903D32D480573E5742846284009E031
:1024A000411EE174080603D1284805730621E17432
:1024B00028468843A073EFF3108072B6234EF07B5A
:1024C000002802D1E07C00F05DFB62B600F0DAFA91
:1024D000706F1F49884200D3E5720020F076307794
:1024E000E07C40001B4D4019216D41814620305A4F
:1024F0004822B25A101840084018410821652F227E
:10250000154B9A5C002A03D0727F4A43910902E07E
:10251000A278010951438008401A4022B052F18646
:10252000E07A002804D028680C49884206D970BD9A
:1025300001F08AFA286809498842F8D8401C2860C6
:1025400070BDC0460C200040100000203804002060
:10255000C5090000B40400200A0600200F2700006F
:102560007047704770B53C4A136802200343052149
:102570008B431360126801263202384D2B681343D7
:102580002B60B2022B68134208D12B68134205D18D
:102590002B68134202D12B681342F3D02A6E3243C8
:1025A0002A662A6E920708D42A6E920705D42A6EEC
:1025B000920702D42A6E9207F3D5EA68284B13409B
:1025C000284A9A18EA6032062B6813432B603207B8
:1025D000EB681343EB6072062B68134208D12B683B
:1025E000134205D12B68134202D12B681342F3D05A
:1025F0000F221202AB689343AB60AA6802438A437E
:10260000AA60A9683820014010290BD0A9680140B0
:10261000102907D0A9680140102903D0A9680140FA
:102620001029EED107200003A9688143A9600E4C50
:102630002046FFF7DDF82046FFF7DCF92046FFF7DC
:10264000D9F9B005696D8143696503208007696D1B
:102650008143696570BDC046002002400010024001
:102660008C80FF1F020800200090D0030120C006CC
:10267000014908607047C04608ED00E0B0B5074C5E
:102680002068074D2880FFF7F5FE0120C04305496B
:10269000086028882168081A2880B0BD24480140B5
:1026A00060070020102000400220C04307490A684C
:1026B000920703D40A68D20704D1704708600A68F9
:1026C000D207FAD0401C08607047C0461044014051
:1026D0000220C04307490A68920703D40A68D20758
:1026E00004D1704708600A68D207FAD0401C08601D
:1026F0007047C0461004004080B505480168C9070E
:1027000004D00121C943016003F01AFF80BDC04617
:1027100010100040F0B5A3B0FF2000064C490A6835
:10272000824303208307D2180A600124E102494A48
:1027300011600026219620961F961E961D961396D0
:102740001296119610960F960E960D960C966104A1
:10275000414BDA680A43DA60DA680A401592159943
:102760003E490A682C231343D32293430B603C4910
:102770000A683C4B134010330B6002030B68934311
:10278000620302929A180A600A6820239A430A6038
:102790000A6840239A430A600A6880273A430A601D
:1027A00002020B689343220201929A180A60800287
:1027B0000A688243A002101808601DA90E740E80DA
:1027C00020964F201F9010201E90274D2846FFF77F
:1027D0005FF9286838432860A86908210143A96186
:1027E00016961796189619961A961B961C966020A0
:1027F000159015AA28462146FFF7AAF9A8690421D1
:102800008843A86109A9CE810E7309960A960B9692
:1028100014960E9602980D902846FFF7F1F80E4A8E
:102820001068022108431060106808402290089147
:102830000796069605910491019803902298904876
:1028400003A9FEF777FF286A2043286223B0F0BD72
:1028500008E400E000E100E0341002401408024007
:102860006C000240EFBFFFFF00440140B0B582B0F2
:10287000002001900090404C2068C0077AD1206869
:102880003E49014001252807081820603C4800689F
:102890003C49FEF74FFC400001900198002817D0FA
:1028A0000198401E01900198002811D00198401E07
:1028B0000190019800280BD00198401E01900198CA
:1028C000002805D00198401E019001980028E7D10A
:1028D0006068032108400090606888436060226857
:1028E000294802401218183222602268002A08D5AE
:1028F0002268002A05D52268002A02D52268002A0B
:10290000F3D4009A63688B431343636040210191C1
:102910000199002917D00199491E019101990029B7
:1029200011D00199491E0191019900290BD00199FB
:10293000491E01910199002905D00199491E019173
:1029400001990029E7D121680140294321602046EF
:1029500008380168C90708D10168C90705D10168AD
:10296000C90702D10068C007F1D0E80507490A6825
:1029700002430A6002B0B0BD08240140E8FFFF6FC7
:10298000E4000020400D0300E8FFFF7F082701401E
:1029900070B53B4B1868042101430820814319603E
:1029A00002249C6203210A0505200007056895435F
:1029B00001221605AD190560950285621D68154353
:1029C000A5431D609A628B0404689C439304E3183A
:1029D0000360530283628B0304689C439303E318F0
:1029E000036080238362090403688B431104591830
:1029F00001601102816270BD70B5F3490A7DF14C2E
:102A000020680C239843002A03D00822104320603A
:102A100004E00422104320600220A0620322130578
:102A20000520000705689D4301235E05AD1905607B
:102A30000E7D25689543002E03D002263543256080
:102A400002E01D432560A36294040568A543DC04ED
:102A50002C1904600C7D95030168A943002C03D058
:102A6000DC032143016004E09C03214301608021D9
:102A70008162110402688A4359045118016070BDD3
:102A800000040050B0B536490A7819200001354BD2
:102A90001C682509182D0BD8002A09D0032292049E
:102AA000314C246825689543256000220A701C6813
:102AB0000346C9339C420CD3002A0AD101220A7072
:102AC00003218904284B1B681C688C4391046118FE
:102AD0001960264A13782649042B01D0012B08D10E
:102AE000214B1B681C680C400546F03525431D60D2
:102AF0001378052B01D0022B08D11B4B1B681C68D7
:102B00000C400546E03525431D601378062B01D0A7
:102B1000032B06D1144A126813680B40D0301843B7
:102B200010601448037814481449154A002B0BD040
:102B300003680B4003600168114001600A4949685D
:102B400042680A434260B0BD074B5B6804681C439F
:102B5000046043681340436042680A404260B0BD6D
:102B600063070020AC0400200000002023000020A8
:102B70000FFCFFFF1E00002000180240FFFFFBFFBC
:102B8000FFFFFDFFF0B5411E052900D918E1052022
:102B90000007C0467944097949008F4402234371F4
:102BA0009FCD0322910303688B4301218C031B19E2
:102BB000036080238362130404689C430B04E318BE
:102BC00003600B0283627F4B1D680D430224A54303
:102BD0001D6099619204056895438A04AA180260F1
:102BE0004A02C9E0774A116804230B4308218B434A
:102BF00013600224946203210B0505689D430123A1
:102C00001E05AD1905609D02856215681D43A5432B
:102C1000156093618A04046894439A04A2180260C0
:102C20005A021EE0674A1168012319430224A14396
:102C30001160936203218D040668AE439D047519EB
:102C400005605D028562156804262E430825AE43A3
:102C5000166094610A05046894431A05A21802607C
:102C60009A028262584A157D890304688C4359048C
:102C7000584A002D00D18DE0DB031C4304609BE02B
:102C800003218A030468944301239A03A218026073
:102C9000802282620A04046894431A04A218026023
:102CA0001A028262474C2268042515430822954384
:102CB00025600225A5610A05066896431A05B21823
:102CC00002609A028262404A177D26688E43D904C8
:102CD0003F4A002F69D02E4326606DE0394B1968BA
:102CE00004220A4308218A431A6002249C620321B9
:102CF0000A050668964301252A05B2180260AA0251
:102D000082628A0306689643AA03B2180260802290
:102D100082610A04066896432A04B21802602A02F5
:102D20008262294A177D1E688E43E904284A002FD3
:102D30003FD026431E603FE0224B1A6801210A4320
:102D40000224A2431A609962032295040668AE43E6
:102D50008D04751905604D02856295030668AE43C2
:102D60008D037519056080258561120405689543FA
:102D70000A04AA1802600A028262134A167D1D68BC
:102D80000C2295434905114A002E09D008242543F9
:102D90001D6011E09B031C430460802383620BE0F1
:102DA000042635431D609C6206E01E432660A36234
:102DB00002E02E431E609D62036813400B430360D4
:102DC000F0BDC046000400500A060020FFFFCFFF00
:102DD000FFFFF3FFFFFFFCFFF0B5A5B0F8490024AB
:102DE000CC81F849097801230229019106D01D46BA
:102DF000F5490978002806D01F2205E00425F2498C
:102E000009780028F8D14A1E179220394A1E9141AC
:102E10000028169401D148011690EC4800781490CF
:102E2000EB4800882390EB4800882490EA4822462B
:102E30001593219304940395AD1A17991F928A1A3A
:102E400003E0641E291900D1C8E113199F063F0E43
:102E5000C75921339B061B0EC358FB1A9FB22499F6
:102E60008F42EED923998F42EBD202957D09D44F40
:102E7000BD8116991F9A8A1A11190A4616329206AE
:102E8000120E82580E461736B606360E8659B21AFC
:102E900092B20127002621962295AA42209700D8B7
:102EA000219F0A460F329206120E825818920A4645
:102EB0000E329206120E82581192CA1D9206120EFE
:102EC000825819928A1D9206120E825810920A4652
:102ED00015329206120E82580D920A46143292064C
:102EE000120E82580C920A460D329206120E825829
:102EF0001A920A460C329206120E82580B924A1D02
:102F00009206120E825809920A1D9206120E8258DB
:102F100008920A4613329206120E82580F920A46FF
:102F200012329206120E82580A920A460B3292060A
:102F3000120E82581B920A460A329206120E8258CC
:102F40000792CA1C9206120E82581C928A1C920684
:102F5000120E825806920A4611329206120E8258BA
:102F600012920A4610329206120E82580E920A46A9
:102F700009329206120E82581D920E460836B60687
:102F8000360E825905928A06120E82584E1CB606DB
:102F9000360E865913978A4DEF61B21A92B2229D6E
:102FA000AA42209E1E9601D8219A1E921D9A059D26
:102FB000521B92B2229DAA421D9601D8219A1D92BF
:102FC000129A0E9D521B92B2229DAA42354600D8FB
:102FD000219D1D9F1E9A574012956F407A1E974162
:102FE0000E971C9A069D521B92B2229DAA421C96D5
:102FF00001D8219A1C921B9A079D521B92B2229DC6
:10300000AA421B9601D8219A1B920F9A0A9D521B25
:1030100092B2229DAA42354600D8219D1B9F1C9A40
:1030200057400F956F407A1E97410A97099A089D5D
:10303000521B92B2229DAA42374600D8219F1A9A6B
:103040000B9D521B92B2229DAA421A9601D8219A38
:103050001A920D9A0C9D521B92B2229DAA4200D840
:10306000219E1A9A7A400D967240561EB241199DC1
:10307000109EAE1BB6B2229DAE42209D199501D87E
:10308000219D19951097189D119EAE1BB6B2229DD9
:10309000AE42209D189501D8219D18950E461836F0
:1030A000B606360E86590F461937BF063F0EC7596A
:1030B000BE1BB6B2229DAE42209D00D8219D119527
:1030C0000E461A36B606360E86590F461B37BF0611
:1030D0003F0EC759BE1BB6B2229DAE42209D00D8FE
:1030E000219D0C950E461C36B606360E86590F46A7
:1030F0001D37BF063F0EC759BE1BB6B2229DAE425A
:10310000209D219F00D83D460B950E461E36B606E3
:10311000360E86591F318906090E4158891B89B21E
:10312000229DA94200D820970E99C9000A9DAE00A1
:103130000E4351003143139A199D6A40189D6A400D
:103140008D181199C9000C9A920051180B9A5200CF
:103150008918209A8A181499002901D00F214A4011
:103160002292571B791E8F411E9989021D9A960142
:103170007118129A960089191C9A560289191B9A7D
:10318000560189190F9A56008919109A16020E4392
:103190001A9909013143199AD2010A431899CE00AC
:1031A00016430D990E432299A9421BD00299091981
:1031B0001F9A121B521C0129049C039D12D03BE64E
:1031C000F8030020510400208C0000204804002057
:1031D0009000002028040020080500202198C00746
:1031E000159F47D19B48C3819D4C2078002809D06A
:1031F000019800283CD00120974908702020974969
:10320000087035E000F02AFD002813D00020914A14
:1032100090715079411C517192480078421E904142
:10322000C9B26529159900D30146002920D1012092
:1032300020701DE0874880794028874A0ED3117896
:1032400001290BD10220107040208449087002F03F
:10325000F3F980488079212807D209E03F2804D873
:10326000401C7C498871212802D30020794948718B
:10327000002F07D000207749C871888A401C8882B7
:1032800025B0F0BDE14900200880724D298A491C13
:103290002982E969012902D1734901220A70E97979
:1032A000002908D0022913D0012916D10220E87183
:1032B0006E8225B0F0BD302E1AD36978002917D060
:1032C0006A4800210170D8480680A97025B0F0BD79
:1032D0000320E8712E7225B0F0BD0329D0D1252E30
:1032E000CED1698A2A7ACD4B5A54E87125B0F0BD07
:1032F000711E2E2906D85D480670CB48002101803A
:10330000F0B20EE0002E02D05848007809E029788B
:10331000012901D10021697054490870C24908800F
:10332000A8700028ACD0524909780029A8D14D498D
:1033300009780029A4D0E978884202D00021A97038
:10334000E870052805D3A978491CA970C9B20629D7
:1033500096D30024AC70411E232900D973E0C046E7
:103360007944097949008F441137153B3F19434A85
:1033700051556E1E5A286E6E6E6E6E2F656E6E6E95
:103380006E6E6E6E6E6E6E6E6E6E6E6B3A49012074
:10339000087058E038490320087054E0374801218C
:1033A000017006204FE002F095F99C48407C401CDB
:1033B000314908702D48007845E02C710720400203
:1033C000FF3068810E203EE09448407C0121081ABD
:1033D00028490870142036E027490220087032E09E
:1033E0002549042008702EE02349052008702AE0B2
:1033F00020480121017089484474072023E01D48BA
:10340000047086480121417408201CE083488474BC
:10341000092018E08148012181740A2013E001216C
:1034200029710720400268812A780D20012A0AD1DB
:10343000697008E07948407C0E490870152002E068
:103440000120E871242009490C700D49087025B04D
:10345000F0BDC046F8030020510400208C0000207D
:10346000480400204F0400204604002009060020E4
:103470004B0400201F0000204304002057040020BC
:1034800062070020F0B581B05C4E03CE081A5C4F95
:10349000C1195D4A083E91420ED85C4D00242C8033
:1034A0005B4B1978002909D09978002969D159789E
:1034B00000292DD0D8882CE0524D88E05749897CCE
:1034C0001E4600290DD057490A887D21CB00904225
:1034D00015D9504C248809010091511C5B1C2246CF
:1034E00011E04C490A884E4909887D231B012F337E
:1034F00000932F2301F070FE312806DA06E04849D8
:1035000009880093002301F067FE0446F4605EE042
:10351000D880491C59703F4F398880B200F090FB29
:10352000332804D33A4804700346394621E03888EA
:103530000721414305CE101A4018C0083880344A8C
:103540005178083E33291346394612D3193881B2CF
:10355000314A8918CA0F8918490821221F462F4B62
:1035600099540121B9702B49088001F027FF29499E
:103570003B460888D8809878002828D003CE081ABF
:103580001F4FD9787D22D200FA32904208D2491CCE
:10359000D970234A138807265E433018C00810806C
:1035A000C8B24C2813D31E48018819318AB2BA1800
:1035B0003332D30FD21852082023184EF254144F2E
:1035C0003C70018002F086F8FC7001F0D3FE002010
:1035D0002880154802880E49C9688C1A134B1B684D
:1035E0009C4201DDD11806E0541A9C4203DDD11A39
:1035F000018001B0F0BD018001B0F0BD08050020E0
:10360000DFFCFFFF70040020760500007A04002034
:10361000200400202C0000202AF9FFFF0A060020C9
:103620002A0000202E000020740400202401002025
:1036300080B265490A680B689B1A9BB298420ED902
:103640000B689B1A9BB2984209D90B689B1A9BB2D4
:10365000984204D90B689B1A9BB29842EBD87047EA
:1036600070B500283DD0032505407D21C900554A8D
:10367000554B002D044632D01C681E68361B164080
:103680008E420ED21E68361B16408E4209D21E682C
:10369000361B16408E4204D21E68361B16408E42E0
:1036A000EBD3012D03D1441E042836D219E01C6847
:1036B0001E68361B16408E420ED21E68361B164000
:1036C0008E4209D21E68361B16408E4204D21E68F6
:1036D000361B16408E42EBD3022D03D1841E0428E4
:1036E0001BD270BD1C681D682D1B15408D420ED26B
:1036F0001D682D1B15408D4209D21D682D1B1540DC
:103700008D4204D21D682D1B15408D42EBD3C41E83
:10371000042802D2E5E7241FE3D018681D682D1A9B
:1037200015408D420ED21D682D1A15408D4209D2CA
:103730001D682D1A15408D4204D21D682D1A1540A2
:103740008D42EBD318681D682D1A15408D420ED29C
:103750001D682D1A15408D4209D21D682D1A15407D
:103760008D4204D21D682D1A15408D42EBD3186886
:103770001D682D1A15408D420ED21D682D1A154058
:103780008D4209D21D682D1A15408D4204D21D6844
:103790002D1A15408D42EBD318681D682D1A15405F
:1037A0008D42B8D21D682D1A15408D42B3D21D68C6
:1037B0002D1A15408D42AED21D682D1A15408D422E
:1037C000EBD3A8E7F8FF000024480140F0B57E4B9A
:1037D000C9337E4843807E49096800252A4603E0B4
:1037E00092192835782D77D0794C66197768791A2F
:1037F0001BD1B168CF1B21D1F768791A27D1316964
:10380000CF1B2DD17769791A33D1B169CF1B39D14B
:10381000F769791A3FD1316ACF1B45D1776A791A96
:103820004BD1B16ACE1BDCD050E09CB2A14201D298
:1038300041800B465218B168CF1BDDD09CB2A74225
:1038400001D247803B46D219F768791AD7D09CB28B
:10385000A14201D241800B4652183169CF1BD1D011
:103860009CB2A74201D247803B46D2197769791AA8
:10387000CBD09CB2A14201D241800B465218B16913
:10388000CF1BC5D09CB2A74201D247803B46D2197C
:10389000F769791ABFD09CB2A14201D241800B4690
:1038A0005218316ACF1BB9D09CB2A74201D24780CF
:1038B0003B46D219776A791AB3D09CB2A14201D2A1
:1038C00041800B465218B16ACE1B8AD09CB2A642E8
:1038D00086D24680334683E751093E4D69610F2108
:1038E000CF013D490C78002C21D05C1EA4B2022CE3
:1038F00007D8BA4205D200246C71384E34700E24B9
:103900000DE01C1FA4B2042C11D81924E401A2421A
:103910000DD2324C012626700E70691D0724304EE0
:10392000347001240C70202101702E490C703E4629
:103930001F46C93F2C490C78002C0DD0B9B2224D3E
:10394000A94209D225493F250D700121264D297034
:1039500002250570234D29701F490D78254300D09D
:10396000F0BD5C1EA4B2022C08D8B24206D20022DE
:10397000184B5A71194B1A700E220EE01B1F9BB286
:10398000042B14D81923DB019A4210D2134A0123C5
:1039900013700B700F49491D0722114B1A70012239
:1039A0000A7020210F4A012313700170F0BDB9B2D3
:1039B000054A9142D4D209493F220A7001210A4A9C
:1039C00011700221EEE7C046574D00008C00002028
:1039D000080500202004002051040020E9000020F8
:1039E000E80000205004002052040020FF200004C2
:1039F00010490A68824303208005101808600120DE
:103A000081026E4A11600C490C4A8A600C4ACA60F5
:103A10004A680C4B1340DA1C4A600A6802231343BD
:103A20000B600A68082313430B600A6802430A60AC
:103A30007047C04608E400E01C00024040240140FA
:103A4000CC0400200000FFFF834840685C490A68FE
:103A500002430A607047C046B0B582B04E48016864
:103A6000012421430160016810220A4302602102FF
:103A700002680A430260016804220A430260016886
:103A800040220A430260A10202680A430260210444
:103A900002680A430260210302680A43026064214B
:103AA0000162014620390A6822430A60E503416A3F
:103AB000294341620C380168214301603748016A9B
:103AC00021430162016821430160354801460C39F8
:103AD0000A6822430A6081682143816001682143AA
:103AE00001600168A14301602E4801682143016023
:103AF000416921434161A007016821430160416997
:103B00002143416128480168214301604169214303
:103B10004161C1682143C160FDF7FAFBFFF766FF11
:103B2000FEF7A4FE002001902048016821430160B7
:103B30001F4800681F49FDF7FDFAC0000190019879
:103B4000002817D00198401E01900198002811D03C
:103B50000198401E0190019800280BD00198401E4A
:103B600001900198002805D00198401E019001980D
:103B70000028E7D1FF2000060F490A688243E007CA
:103B8000101808600D48802101600D480168294324
:103B9000016002B0B0BDC046202C014000040040CE
:103BA0000C20004000480140001000400402014089
:103BB000E4000020400D030004E400E000E100E028
:103BC0008018024070B5194B186804210143082081
:103BD0008143196002249C6103210A050520000726
:103BE0000568954301221605AD19056095028562A9
:103BF0001D681543A5431D609A618B0404689C43AE
:103C00009304E3180360530283628B0304689C43AC
:103C10009303E318036080238361090403688B43E3
:103C20001104591801601102816270BD0004005036
:103C30000248016801220A4302607047142C0140C7
:103C4000401AC1174840401A7047000002480068F7
:103C500000684000C00F7047000000200248016863
:103C6000102008407047C04610040050F0B50029ED
:103C700034D001220A40012933D100210D46002A07
:103C80002AD0425C6A405100072052B2002A00D577
:103C9000C1E04A0049B2002900D5C2E0510052B249
:103CA000002A00D5C3E04A0049B2002900D5C4E08B
:103CB000510052B2002A00D5C5E04A0049B200299D
:103CC00000D5C6E0510052B2002A00D5C7E04D0031
:103CD00049B2002900D54540E8B2F0BD0025E8B260
:103CE000F0BDFE230B4000210D4602E0891C8B42F3
:103CF000C5D0465C6E407500072476B2002E40D4D5
:103D00006E006DB2002D41D4750076B2002E42D403
:103D10006E006DB2002D43D4750076B2002E44D4EF
:103D20006E006DB2002D45D4770075B2002D46D4DB
:103D30007D007EB2002E00D56540461876786E4034
:103D4000750076B2002E40D46E006DB2002D41D4C5
:103D5000750076B2002E42D46E006DB2002D43D4B1
:103D6000750076B2002E44D46E006DB2002D45D49D
:103D7000770075B2002D46D47D007EB2002EB5D5F9
:103D800047E065406E006DB2002DBDD56640750000
:103D900076B2002EBCD565406E006DB2002DBBD54D
:103DA0006640750076B2002EBAD565406E006DB2E1
:103DB000002DB9D56640770075B2002DB8D56740A3
:103DC0007D007EB2002EB7D4B7E765406E006DB2BD
:103DD000002DBDD56640750076B2002EBCD565407D
:103DE0006E006DB2002DBBD56640750076B2002E18
:103DF000BAD565406E006DB2002DB9D5664077002A
:103E000075B2002DB8D567407D007EB2002E00D47B
:103E10006CE765406AE741404A0049B2002900D496
:103E20003CE74240510052B2002A00D43BE74140F7
:103E30004A0049B2002900D43AE74240510052B248
:103E4000002A00D439E741404A0049B2002900D491
:103E500038E74240510052B2002A00D437E74140CF
:103E60004D0049B2002900D535E735E7024803493E
:103E7000016062B67047C04608ED00E0001000081F
:103E8000F0B58DB07D4A50680125284350605068D8
:103E900028400790079828071168014311601168AE
:103EA00014460140079107987548016808220A43A3
:103EB00002600168102205921143016028027149D5
:103EC0000A6802430A60FEF74DFB20460838016885
:103ED000294301600168294007910799016802227E
:103EE000114301600068104007900798201F016887
:103EF000294301600068284007900798624A1068CB
:103F000062490840A90340181060680260490860CF
:103F10000B46FF200290000411688143A805081891
:103F20001060A8021860FEF735F8FEF705F90027C3
:103F30000B970A97099708970797206828432060EE
:103F400007A91F2000900880206828400C90514845
:103F500009900C98504E3446083C2046FDF798FDD9
:103F600080200390C143206808400A4606912060E3
:103F700030684A49014031607020C3430493301FC8
:103F8000016819400160306810403060FEF7D4F9D4
:103F90000B970A97099708970797EA030192374901
:103FA00048681043486048680E4610400C900C98D2
:103FB00002980006344A916881439160E8043449CC
:103FC000086007A9009808800A9732480990089766
:103FD000334C2046FDF75CFD2068069908402060C0
:103FE0000B970A97099708970797A80432467168B4
:103FF0000143716007A90F743F260E80526802408A
:104000000C92244809900C98264C2046FDF740FD60
:1040100020680399084320600B970A97099708972F
:104020000797164A10680599084310601068084001
:104030000C900C98144A9068144908400199401853
:10404000906068041249086007A90E803220099028
:104050000897154C2046FDF71BFD2068069908407F
:1040600020606068049A10406060A0680840A0600A
:1040700002F098F9FEF74EFB0DB0F0BD3C10024087
:10408000000001400020024008E400E0FF00FFFFC4
:1040900000E100E0FFFF000008000040F8BFFEFF65
:1040A00000200040004801400010004070B5C44CA2
:1040B000606F7E2818D321480068214D7C2808D8DD
:1040C000E08FC0084A2804D8286880087D2800D2DC
:1040D00070BD607D401C6075C0B2652804D301F0DE
:1040E0009DF80020286070BDAA4D687B002809D08B
:1040F0000026FFF7ABFDA97B8842E9D0761C687BE0
:104100008642F6D3EFF3108072B601F087F84820AC
:10411000215A4622A15209490A6822520020086009
:10412000084988614022A25A521C0A624860086805
:10413000012202430A6062B670BDC04624000040FE
:10414000B40400200C200040F0B583B0914EF16C17
:10415000914CC022204601F047FAE07D042801D3AB
:104160000220E075207E014608398C4D28291BD895
:1041700018281CD38A490091182130222B4601F0BF
:104180002BF87086207E01460C390B2913D9FC21AF
:10419000014008291BD18449009107211022834B3B
:1041A00001F01AF8708613E07C48308611E0014671
:1041B0000C390B29EBD800950C211822794B01F012
:1041C0000BF87086207EFC2101400829E3D0708E18
:1041D00085B2774818380560607E01463239642917
:1041E0000AD8217D00290CD030850321FCF7A2FFDD
:1041F000B0850A30F0850AE05520B08596203085DC
:1042000005E04108B185400030850A31F185A07E86
:10421000282568431430B082022002F0B9F8607893
:10422000002840D0A07F0B2800D9052002F0B0F86C
:10423000272100200290605421462031CA78327133
:104240008A785C4BD218F2832522A25CFA3232843F
:104250002022A25C5200584BD21872834978490040
:10426000564A8918B1832421615C491E4A424A4159
:104270005349CA70625D1A3A1523DB439A4201D84A
:10428000052262552925675D0B3F0A23DA439742D1
:1042900000D863552A27E05D05460A3DEDB2F62DAC
:1042A00003D8E35517E0B58A5AE00923DB434343BB
:1042B0002E3BF370D8B2338D1B183385B38D1B188A
:1042C000B385738F1B187387738D1B187385384DD7
:1042D0002B6803432B60029F2B23E05C7330C0B23A
:1042E000B82801D8FF20E0542C20205C401E622812
:1042F00001D8012088712D23E05C0B38904201D851
:104300000520E0542E20235C092B0AD8042B0DD85D
:104310000A461A327B441B795B009F44022F050733
:1043200032008F764F76274A01201070B58AA80890
:104330004A2800D8B771E17E2020FCF7FBFE044636
:104340000C212846FCF7F6FE2146FCF7F3FE3087E9
:1043500064212846FCF7EEFE2146FCF7EBFEF086D2
:104360004B2081000846C83000907D20C300174ACA
:10437000284600F031FFB08403B0F0BD012048763C
:10438000D1E71048077010480122027019310A461F
:10439000CAE7C046100000200A060020690A000093
:1043A00034050000D21400009C0F00003B1F0000E9
:1043B000442C01405E050000EE020000D60600001D
:1043C00038040020F9030020F8030020B80B000097
:1043D00000B597B0FFF74AFD7F2040010168E84A29
:1043E000914211D14168E74A91420DD1007B1F28CB
:1043F00005D02B2805D0352806D1E34802E0E34854
:1044000000E0E348E349C864FFF73AFDFFF724FB07
:10441000FFF79AFEE04D2A7912204240E978022304
:104420000B93594011434A1E91416A78D94F3C7809
:104430000123944213931A4600D800221143012904
:104440000DD128710220E870681DD4A10C22FCF760
:104450004DFE6C70FA6CC021284601F049F9788E47
:104460003886687C401E411E8841F873287D0028EC
:1044700001D10020E87426200490285C7D21CA0028
:10448000002811D00020E8740121A9747A87B9713D
:104490006875A8752875B88D3230B885F88D3230BA
:1044A000F885388D3230388503927D2500262846E0
:1044B0003146324601F096FA01F006F8BB4C1096F0
:1044C0002687FDF711FEBA48BA49016001F0B4F839
:1044D0002078002801D00120607101F03BFFFF2609
:1044E00014966836AF2080000990032002904002A5
:1044F0000590A8000A90E8001290280116901596E1
:104500000BE0AD480260426082601546FEF740FA5B
:104510002A46A04F159E58202252A8480068052818
:1045200001D30B9800E004209B4DB8747874A34A23
:10453000D08991890818118A4018518A4018918AA7
:104540004018D18A4018001D400850609848994989
:104550000160687D012809D1386D798E00914B0882
:104560006021C82200F038FE3886687D022813D109
:10457000606F01466539942902D8072141430AE05A
:10458000411E6329099906D3F921C943FA388842A3
:1045900002D80599D63139864220205A8849884266
:1045A0000AD9E17D002901D000F0BDFC854988428F
:1045B000834901D300F0D4FC608D884236D92D2088
:1045C000C1002546A48D2004FCF7D4FDE96E4018F7
:1045D000E8667D48007803280AD0022818D0012810
:1045E000724C21D131469931A07F0843022117E056
:1045F00052206E4C205A75494143090C401A40081C
:1046000040180009C1B2039818300843012107E09F
:10461000E0B229214143C80A059908430299634C35
:10462000694A11706A49088000206085608E012106
:10463000C8280A4600D3109A604B1D68642D00D824
:10464000109943424341129CA542139C00D81C463A
:10465000002C564C01D1114001D00021A1744E49CB
:10466000C97C002903D09F2801D80021A174217A98
:10467000002906D031462931884208D20020A07492
:1046800005E0952801D8642000E00A20F8714B4825
:10469000406803211191FCF76DFD60670B2D4D4DB6
:1046A00030D30146207B00282CD044488068FFF797
:1046B000C7FA616F169A914220D24A0890421DD9DA
:1046C00000203E4A1060E279521CE2713A6D129B62
:1046D0009A4200D954E2628F2F2A139A00D855E2E9
:1046E0002D4B9B7C002B00D056E2012A01D10020EB
:1046F000E0740120F872388D4008E0852F48816011
:10470000002020733A6D237C149804022846083850
:104710000168A143002B0FD03D2A0DD3016028680A
:104720002D4908402D49243901432960281F01687B
:1047300040200843BF210AE0012292031143016097
:104740002868254908402860281F00681499884374
:10475000164C291F0860A07B002841D06E20235AE8
:104760005220215A58202546245AAA8DA87F009409
:1047700000F03CFC2C460E340A20074D38E0C046C1
:10478000DAE32559D963B84E00F80008007C000828
:1047900000F80108100000200A0600204E6575741C
:1047A000726F6E5243204730000000003804002032
:1047B00000300040AAAA0000342C0140B4040020BC
:1047C000204E0000419C0000FC030020AF47000089
:1047D0000204002010E400E0FFFFFF00240000407E
:1047E000E07F0028EF4D08D000F0F0FB1F343120AF
:1047F00001F00CFA00202070EB4C607B401C6073D1
:10480000C0B2C92800D282E0FCF76EFD5225605B81
:10481000072646435E20205AE4494843E449FCF712
:1048200089FCF98C484364273946FCF783FC8019DE
:10483000C108E048428C0D9206880C916153DE4914
:104840000868DE4A1040001D0860657C6800DC4A8C
:10485000115A0F914421615A0E9111525A20205A37
:10486000D2494843D749FCF765FC0D99891B801B49
:104870007843FCF77FFC1E305C216052A077681CF7
:10488000C1B200246329214600D80146C64D69748F
:10489000A86F0F99401A0E994018A8673946FCF77F
:1048A00049FCA88680B22867C0494843C649FCF73E
:1048B00041FC010400D52046BB4CA085E0780028CF
:1048C000B84DC24F159E20D0607A398C41430C9868
:1048D00080B2814217D9208D401C2085217DBC4AA1
:1048E0005143BC4A891880B281420EDA0024AE4896
:1048F0004487FEF74DF800F091FCAB480487C47480
:10490000C475A94C01E000202085002060730022BE
:104910006275207D002840D0608F312875D3E17DFD
:10492000002972D0882800D905E1A078002810D08D
:10493000A94A106801218843106000F06FFC002430
:10494000A648046044608460FEF756F89648847078
:10495000954C4E26A15B4C2022460F90245A4A20AB
:10496000135AFA7B002A11960E9000D190E14A1E4C
:1049700011B20029159D294600D41146621E14B2B9
:10498000002C284600D410465B1E1AB2002A2A4684
:10499000854C00D592E11A4690E1914841689148D2
:1049A000FCF7E8FBE17C41435820215288B28E4954
:1049B0004843C00C60216052B9790029169908D08B
:1049C0007B8F3A8FF98EBC8F0094774C00F004FCFB
:1049D0000146B9862B202A5CA07F904209D9BB8F63
:1049E0000121009111460A390A325B0800F0F4FBFC
:1049F000B8867B48006863282DD8396D0A988142B3
:104A000029D90C20322931D331E00127A770287F22
:104A1000002800D175E52920285C40006B4B5D8E95
:104A20002C18133CA1B2188E484329461646FCF7B1
:104A300081FB281A401C56255B4948535A48C487B5
:104A4000594C00F09FFD3246605B64490860486045
:104A50008860E7735DE5606F0C210091642103239A
:104A60000A9A00F0B9FB396D322900D2022078731E
:104A70002F20285C002808D0E08F172100916421A6
:104A80000D23169A00F0A8FB607758480068584933
:104A9000884200D241E5E07C012800D03DE5A07CC1
:104AA000401CA07400F0BAFB01200F90F872608FD8
:104AB0002F2803D84F4838650020E0740025484867
:104AC00005604A4E3068482160523560396D119A50
:104AD0004A4380B210180109474A1140C208521ACD
:104AE0004023E25280083865E18690B23C4909686B
:104AF000052913D2316838490862344AD07CD17B09
:104B000001297BD1401CD074C1B207290F9E03D369
:104B100026732E48C674304630407AE031688142B0
:104B2000E9D231688142E6D231688142E3D231680C
:104B30008142F3D3DFE70F920125A5704E200E903E
:104B4000205A4C210C91625A4A211191615AFB7BE7
:104B5000002B0D9500D125E1431E18B200283046E8
:104B600000D41E46531E1AB2002A024600D41A462A
:104B70004B1E19B20029014600D41946119826E1AE
:104B80000120628F2F2A139A00D9A9E50246054B0E
:104B90009B7C002B00D1A8E50246012A00D1A6E5A6
:104BA000A7E5C0460A06002038040020E40C0000F7
:104BB000FF0F0000A875FF1F08240140E8FFFF7FDA
:104BC00066070020B80B0000490500001000002017
:104BD0007CFCFFFF204E00000C200040342C0140E4
:104BE000B4040020C0270900CDCC00002400004000
:104BF000C9AF000088130000FEFF0000411ED17401
:104C000008060F9E03D126730621E448C17430467E
:104C10008843E2498873EFF3108072B6E07B002886
:104C200003D1DE48C07CFDF7ADFF62B6FDF72AFF79
:104C3000606FDC49884201D9D848C672E57625778D
:104C4000A575DC4A1068411C1160D44FF87C400007
:104C50008218386D5081049AE34EB25C531E9A411B
:104C6000737F002B139B00D11346012B159E07D198
:104C7000142900D251E41699491C884204D34CE40B
:104C80001699884200D348E4FD72FEF7DDFE44E445
:104C90004D1C29B20022159EB142114600DC294666
:104CA000641C25B2159EB542104600DC20465B1CF4
:104CB0001CB2159DAC4200DC1A46B94C0E9B119DEE
:104CC00061530F9EA053E25240200E90385A11B209
:104CD0004900BC4A515E4118788E4843169D2946CA
:104CE000FCF748FA2D27C04CE15D48430A210D919D
:104CF000FCF740FA80B201F039FBA8480E9C005B3B
:104D0000A749895F4900AF4A515E4118A348408EC8
:104D1000484329462E46FCF72DFAB349C95D48435E
:104D20000D9D2946FCF726FA80B201F025FB9B4831
:104D3000005B9B49119A895E4900A24A515E411865
:104D40009648408E48433146FCF714FAA64EF15D72
:104D5000924F48432946FCF70DFA80B201F012FB4E
:104D600009986E30F57E2946FCF7E4F90646964828
:104D70002946FCF7DFF903468948408F0096884CA6
:104D80003021782200F028FAF88780B2FEF750FC34
:104D9000159E3046F130F98FFCF7CCF9582160525E
:104DA000FFF7BBFB431C18B2B0420F98089000DC21
:104DB0000893531C1AB2B2420F9A00DC1A464B1CDD
:104DC00019B2B1420F9900DC19461198089E0E9B4A
:104DD000E6520C9EA253215240200890385A09B244
:104DE0004900784A515E4118788E48431699FCF77D
:104DF000C1F92D257C4C615D079548430A21069138
:104E0000FCF7B8F980B201F0B1FA089C385B64494C
:104E1000895F49006B4A515E4118788E4843169E5F
:104E20003146FCF7A7F97049495D4843069D29467C
:104E3000FCF7A0F980B201F09FFA385B58490E9A4E
:104E4000895E49005F4A515E4118788E4843314679
:104E5000FCF790F96449079A895C514C484329460C
:104E6000FCF788F980B201F08DFA608FC82805D967
:104E70000F98119960525020F88700E0F88F159E26
:104E80000D9DFEF7D5FB1198205A002801D0FFF7A1
:104E900044FBE5740F9B237543483865FD726067DA
:104EA000444A906041490860E373142010604E4802
:104EB000407F002801D0F88DE085387BF97B0129FF
:104EC00009D1401CF874C1B2072902D32573FD74BF
:104ED0002846284008E0411EF974080602D12573CF
:104EE0000621F97428468843B873EFF3108072B630
:104EF000E07B002802D1F87CFDF744FE62B6FDF7A6
:104F0000C1FD606F2749884200D9FD720F98E07695
:104F10002077F87C400027494018396D4181FEF721
:104F200087FEFFF7FAFAFDF733FD0020A063E07576
:104F300020761F4908604860886000F0C3FB0120AC
:104F400001021D48FCF7EBF8BFF34F8F1B481C49CB
:104F50000160BFF34F8F00BF00BF00BF00BFFAE783
:104F6000FDF716FD0020A063E0752076104908606B
:104F70004860886000F0A6FB012001020E48FCF7A3
:104F8000CEF8BFF34F8F0D480D490160BFF34F8F2F
:104F900000BF00BF00BF00BFFAE7C04610000020FE
:104FA00038040020C4090000282300002400004029
:104FB000342C0140B4040020080500200CED00E072
:104FC0000400FA0528010020581B0000B0B5124C5F
:104FD000E449302520462A46FCF788F82046294631
:104FE000FEF744FE6055B0BD0A060020B0B50A4C7D
:104FF000049D2572A3712271A1702070280AE071AE
:10500000180A6071100AE070080A607009212046D1
:10501000FEF72CFE6072B0BDD4040020F0B583B062
:10502000664D6E89002E02D00020688115E064492B
:105030000978002900D16348C10B09D103229303E9
:10504000034001218C03A34200D08FE0062200E040
:105050000722AA61D040560206435C4800788000CF
:1050600001905B490B1880275F60310A5948405C0A
:105070000090C4003846A0439860350969407140EB
:105080000F2402948C43310109194C4A1162009992
:105090000A013A404240DA60C80302990D404D4986
:1050A0004D5DA90201434B48005D0090029C2640E3
:1050B000484CA45D02946401044326460E433F48D5
:1050C0004662880A3840504018614A0A3A404240D5
:1050D0005A61080A384050409861EA003A4042401C
:1050E000DA61290139405140196272093A407F2042
:1050F000C04301405140596232093A404A409A62E5
:10510000F10839405140D962029DEA003A404A40D4
:105110001A63290139405140596322463A404A40B6
:105120009A630240610039405140D963A2003A407D
:105130004A401A640021264C019D6151009CE10007
:1051400039405140596422013A404A409A64610111
:1051500039405140D964A2013A404A401A650240A0
:10516000E001C0B25040586503B0F0BD07235B03B7
:1051700003404C03A34201D105226AE70F231B031E
:1051800003400C03A34201D1042262E71F23DB0288
:105190000340CC02A34200D15BE73F2292020240CF
:1051A00089028A4201D1022253E77F21490201404C
:1051B000054A89184A424A414BE7C046F803002095
:1051C0004B040020FFFF000000FEFFFFE80000206E
:1051D000CC060020146C000870B5049D884214DDD4
:1051E0002C462546824214DDAB4215D01646EA18FD
:1051F00054107218521091420CD08242F1DA511CB4
:10520000814223463246EBDB01E016461C468642CD
:1052100000DC2C46204670BD184670BD012080047D
:1052200004490A6882430A600A46743A1060703979
:105230000860704780180240F0B581B0BF4DC0488B
:105240006860EFF3108072B6BE480078E8602861AD
:10525000686179249A4E9B4F3760A41E1421204622
:10526000FBF768FFFDF78EFC60080A3028600A2013
:10527000FEF7F6F9022CEFD8FDF78AFB0020286034
:10528000B1490880B1480088686062B601B0F0BDDD
:10529000F0B583B00320FDF775FC00213520AA4E40
:1052A000A54A02910B4604E05B1CA81C313D7E2DF3
:1052B0004AD20546834882490860029830805019D6
:1052C000401E0778FF2FEFD0505D00282ED00A2116
:1052D0009A4E3160F72141437D2040010918224850
:1052E0000193FBF727FF044620482146FBF722FFE6
:1052F00070609449097848439149FBF71BFFF060BF
:10530000306170610198C0B2FE214143CE19184846
:105310002146FBF70FFF70438B4E6421FBF70AFF1A
:1053200080B2FEF79DF9844A0023BEE7002483483B
:10533000C46004614461D8B2FE214143C819FEF73C
:105340008FF97D4A2346B0E7FDF722FB00207B4A18
:1053500010607E490988516030805A485849086079
:1053600003B0F0BD0A060020C0D8A70000A8610065
:10537000A0860100B0B5714D714868602820286092
:1053800070480078E860286168610220FDF7FAFB48
:1053900096242046FEF764F949484A4901605020A6
:1053A00028602046FEF75CF9FDF7F2FA002028603D
:1053B00065490880654800886860B0BDB0B55F4D3C
:1053C0005F486860322028605E480078E8602861A5
:1053D00068610220FDF7D6FB96242046FEF740F9CF
:1053E0003748384901601E2028602046FEF738F90A
:1053F000FDF7CEFA00202860534908805348008802
:105400006860B0BDB0B5EFF3108072B64B4D4C483C
:1054100068602B482B49016050202860494800787B
:10542000E860286168610320FDF7ACFB6424204636
:10543000FEF716F9462028602046FEF711F92820CD
:1054400028602046FEF70CF9FDF7A2FA002028603C
:105450003D4908803D480088686062B6B0BDC046DE
:10546000F0B581B0354D36486860EFF3108072B604
:10547000134E144F37603C20286032480078E860B3
:10548000286168610120FDF77DFB4B242046FEF773
:10549000E7F8502028602046FEF7E2F85A202860FE
:1054A00037602046FEF7DCF8FDF772FA002028602E
:1054B0002549088025480088686062B601B0F0BDC3
:1054C00000300040AAAA0000B0B5EFF3108072B619
:1054D00030208649085C194DFF2802D0FFF7D8FE1E
:1054E00025E01748686017480078E860286168611F
:1054F0000320FDF747FB37202860C8242046FEF72D
:10550000AFF80520FDF73EFB282028602046FEF777
:10551000A7F80620FDF736FB192028602046FEF785
:105520009FF8FDF735FA08480021018029600748F7
:105530000088686062B6B0BD0A060020282C0140D1
:10554000690A0000050500207A04002042000020BE
:10555000B0B50A4D6878022809D0012804D100248A
:105560002046FDF739FC6C7000F072FBB0BD0448BA
:105570008088FFF753FD00206870B0BD380400201C
:10558000B4040020B0B503210A0505200007036814
:105590009343012214051B190360930283628B0459
:1055A00004689C439304E3180360530283620B0472
:1055B00004689C431304E318036013028362094BDD
:1055C0001C68082525430424A5431D601C6802258A
:1055D000254395431D60890303688B43D103591804
:1055E0000160B0BD00040050F0B5012A23DB0324A4
:1055F00013462340042A01D200240EE0A2430024D3
:105600000D5D055505190E1977786F70B778AF7075
:10561000F678EE70241DA242F2D1002B0BD0625C12
:105620000255012B07D0621C555C8554022B02D019
:10563000A21C515C8154F0BDB0B5E2480168022261
:1056400011430160016891430160DF480146083958
:1056500041220A600A2101601549097881601549D3
:10566000C16002460C3A136801210B43136000220B
:105670004260D74B104CDC60044614349C600F4DE4
:105680002C785C600E4C2D78402D00D124341C60A9
:105690004B020446143C25681D43256003680B43F8
:1056A0000360CF4B1A70203802680A430260B0BD15
:1056B000E9000020FFFF0000080500208C0000200A
:1056C0008B09000002480021416001607047C0461C
:1056D0002404004080B504490A7804484270CA6C2A
:1056E000C02100F005F880BD100000200A0600204F
:1056F000F0B503AF8BB06E46F41D1934B261716121
:105700000546C817800F0B1803201946F060814327
:10571000C91D072291436A46501A99108546F061C7
:10572000B160FBF7FCFC7069042874617CDBB16834
:105730000A46F3681A40481E0328726001D200210D
:105740003AE09943F160002319463561E818C278C0
:10575000120685782D04AA1845782D02521934694D
:10576000E55C5219F469E250C279120685792D047C
:10577000AA1845792D02521905795519E218556074
:10578000C57A2D06847A24046419457A2D02641999
:10579000057A64199460C47B2406857B2D042C193A
:1057A000457B2D0264193569007B2018D0601033C9
:1057B000091DF0688842C9D17268002A746933D023
:1057C00089006818C278120683781B049A184078FA
:1057D000000210186A5C8018F26950507268012A41
:1057E00022D0081D30602A18D3781B06F360937806
:1057F0001B04F0681B18527812029A1830682B5C50
:10580000D218F3691A50706802280DD00831681850
:10581000C278120683781B049A1840780002101888
:105820006A5C8018F2695050B068A0600120306155
:10583000020444480368134208D00368134205D0A9
:105840000368134202D003681342F3D14368002B6C
:1058500003D4B3695B052DD10AE03B4B1C680546B8
:10586000083D2C6074695B682B60B3695B0521D1CE
:10587000446802231C434460B469E40AE4004568B8
:10588000254345604468144344600468144208D0CA
:105890000468144205D00468144202D0046814421B
:1058A000F3D10468E40701D03169016044689C4386
:1058B0004460746900236360236025682346A468FC
:1058C000A542316935D2B469241DF4600DE0446805
:1058D0008C43446073695C6808345C601C68A41C79
:1058E0001C601C689D68AC4223D244680C43446031
:1058F0001C68A400F1690C595D68B1696C501C68A2
:10590000A400F169641864685D68F1684C5104682A
:10591000144208D00468144205D00468144202D02E
:1059200004681442F3D10468E4073169CFD0016000
:10593000CDE7C90742680A434260FE1F053EB546EF
:10594000F0BDC046102002400800002010B51D48E0
:1059500001680222114301600168914301601A4805
:105960000146083960220A6003210160174909785D
:1059700081605C21C16002460C3A136801210B432F
:105980001360134A134BD360034614339360124BD6
:105990001B7817335360114B13604A020346143BC4
:1059A0001C6814431C6002680A430260CA03436A0D
:1059B000134343620A4A1170203802680A430260A6
:1059C00010BDC0462C1002402004004025040020D9
:1059D00008000240CC060020E80000209B090000DF
:1059E00064070020F0B5844B1C78002C00D0F0BD7B
:1059F00014253C26D4072F4600D037467F4C6786B7
:105A000097072F466DD4278657072F466ED4E78514
:105A100017072F466FD4A785D7062F4670D4678502
:105A200097062F4671D4278557062F4600D537464F
:105A3000E78452B2002A2A466DDBA284C2072A46B6
:105A40006ED1628482072A466FD4228442072A4696
:105A500070D4E28302072A4671D4A283C2062A4682
:105A600072D4628382062A4673D4228342062A466F
:105A700000D53246E28240B2002828466FDBA08281
:105A8000C807284670D160828807284671D42082D2
:105A90004807284672D4E0810807284673D4A081BD
:105AA000C806284674D460818806284675D42081AB
:105AB0004806284676D4E08048B2002800DA354609
:105AC000A5804F4800214162012119704D4A136899
:105AD0004D4D1D40102D6BD1D4600346343393607F
:105AE0006AE03746278657072F4690D53746E78521
:105AF00017072F468FD53746A785D7062F468ED551
:105B00003746678597062F468DD537462785570632
:105B10002F468CD48CE73246A284C2072A4690D006
:105B20003246628482072A468FD532462284420753
:105B30002A468ED53246E28302072A468DD5324662
:105B4000A283C2062A468CD53246628382062A4642
:105B50008BD53246228342062A468AD48AE73046CB
:105B6000A082C80728468ED0304660828807284623
:105B70008DD530462082480728468CD53046E081B6
:105B8000080728468BD53046A081C80628468AD506
:105B9000304660818806284689D5304620814806EF
:105BA000284688D53046E08048B2002887DB87E762
:105BB000946003463433D3605368244C1C401C3437
:105BC0005460136802241C431460136808241C43A7
:105BD000146013680B4313604A02C3681343C36025
:105BE000026A0A430262CA03436C134343640268B5
:105BF0000A430260F0BDC04608060020EA0000200B
:105C0000004401406C0002401040000070B50D4996
:105C10000C680822144304239C430C600A4C6568FA
:105C20000A4E2E40301860608868802505438D60DC
:105C300020680125054325600868184390430860E3
:105C400070BDC04600380140300002400000FFFF38
:105C5000F0B585B0FD4DA87C002805D0FC4E707EC7
:105C6000002805D0B08F2BE1F948818F418691E162
:105C70007D22D400F74800794300191926202D5CB5
:105C8000B08F0127002D049418D0814246D2F14AEA
:105C9000D27BEE4C657CAA4258D13C460125039547
:105CA000F573002575863779002F00D19EE0F573D6
:105CB000039B9A1AE74BDA7327464AE0814238D2AF
:105CC0000397E44BDF7BE14D6B7C02979F4200D052
:105CD0008AE0307D431E9841F38FC82B039F3B46DB
:105CE00000D30346DB4DAC8C2D6DA54200D8034696
:105CF000012B00D088E0D848002404600120D54D55
:105D0000E8720299401AE873FFF788FAB4722879AA
:105D10004000049C0119B08FCC4D79E0CB4DE21AC4
:105D2000824228D8191981424FD3002182424FD98B
:105D30004FE0C64DE21A824278D81919814200D24A
:105D4000B2E00021824200D8B1E0B1E0F27B002A4B
:105D50000CD100223271C14A00922F3A2F23FFF753
:105D60003BFA7086B08FBB4909794B00B74D049C54
:105D7000E21A8242D6D90397697C01277D1AB54C75
:105D8000E47BA5420BD1F773002575863479002C8E
:105D900033D0F573AF4BD973039F049C04E0F17BC0
:105DA0000029039F049C0CD1002131712F23009303
:105DB000AA4BFFF711FA7086A64800794300E21A51
:105DC000B08FA24D19198142AFD20121824200D871
:105DD0000F46002F71D100217186F27B002A6CD012
:105DE00001223271F17368E0039F11E0974D27465D
:105DF000049CE21A824295D9BDE7944D039F049C0E
:105E00001919814291D2E0E7D000B0878F4D049CF0
:105E1000924A00922F3A2F23FFF7DEF97086B08F57
:105E20008C4909794B00E21A824286D9697C0123A8
:105E30005C1A884DED7BAC421FD1307D441EA041E1
:105E4000F48FC82C039700D30746824DAC8C2D6D80
:105E5000A54200D80746012F7C4D11D17D4FF97323
:105E6000FB727D4800240460FFF7D8F9B4723879DA
:105E70004000049C221AB08F05E0744D049C03E09E
:105E8000049CB4872046039F2F2100910021734B6F
:105E9000FFF7A2F970866F4800794300E21AB08FCD
:105EA0001919814200D34CE70121824200D80F46E4
:105EB000002F02D10021B1727186717E002969D054
:105EC0007D21CC0021462F3188422CD9614FF97BAE
:105ED0006A7C914221D1B88C3D6D0122002385421C
:105EE000104600D81846F58FC82D00D31A4610402A
:105EF000327D531E9A410243012A0BD15648002598
:105F000005600120F872401AF873FFF787F9B5723F
:105F1000B08F01E00020B0874C4D397A4200511A11
:105F2000A34A891871860146303989B2A1422CD220
:105F30002F46697C0122531A464CE57BAB421ED1A9
:105F4000A08C256D00238542104600D81846F58F99
:105F5000C82D00D31A461040327D531E9A41024389
:105F6000012A0AD1E1730120E072F348002505609F
:105F7000FFF754F9B572B08F01E00020B087217AA5
:105F80004200511A313971863D462F2802D800202F
:105F9000B0727086E64FF879E44EB17C81420AD93E
:105FA000A87D002807D0FCF7F3FCFFF737F966203F
:105FB000B074002055E0E87C002805D0708E1D28C4
:105FC00025D80021718734E07079002848D03078D6
:105FD000002872D0796CBB6C708E00912F21D54C4B
:105FE0002246FFF7F9F80146D448FBF7C3F8E97EEB
:105FF0004908FBF7BFF8F084708E2E286AD800207D
:10600000786570877066307D00282FD021E11E28CA
:1060100001D11E200DE02821695C14224A438242EE
:1060200007D9A02100911E212F23FFF7D5F87087F3
:10603000708E28216A5C14215143814212D8BD4AD6
:106040000092A023FFF7C8F80BE0C0460A06002024
:106050003804002010000020B4040020FF070000D6
:10606000708E7087307D002800D0F2E0F07D00282F
:1060700000D1EEE0E97C5024204648432F30728F57
:10608000904200D983E0F07C002868D1FCF780FCC6
:10609000F87A00285ED1F07C002859D1F87CF97B91
:1060A000012928D1401CF874C1B2072902D301206C
:1060B0003073F8740121014027E0706EA049FBF7AE
:1060C00059F881B2302900D830210004C00E0DD01B
:1060D00098490BE0706E9A49FBF74CF881B2302971
:1060E00000D830210004C00E00D021467187307DD9
:1060F0000028BBD0ADE0401EF874010603D101209A
:1061000030730620F87401218143B973EFF31080D6
:1061100072B6F07B002802D1F87CFCF733FD62B642
:10612000FCF7B0FC706F8749884201D30120F872F8
:106130000020F0763077386D81493965F97C824AE4
:10614000824B136049007C4A891848810120F07411
:10615000FDF77AFC0120F074388DF085E97CBB8D69
:10616000708F744A002905D011462F3900912833C9
:10617000892103E011462F3900912F21FFF72CF8D8
:1061800030862620285C002801D10020F073E87CAE
:1061900044432F34708F844258D9F07A052814D89C
:1061A00078440079400087441205080B0E05C0466C
:1061B000FFF7FFFFFFF702F907E0FFF7DBF804E066
:1061C000FFF73AF801E0FFF74BF90020F072287D65
:1061D000002822D0F07C00286ED0F87C3C2141437E
:1061E000388B421810463C3803B2FF2168318B428D
:1061F00001DD574810184A22B0520246EF3213B25E
:106200008B4201DD0246793A4E23F2520246773242
:1062100013B28B4210DC10460FE000203086F17C78
:10622000002968D1444908600120F872287F0028BD
:106230005CD0FDF7C7FC5EE0F1384C217052E87C81
:10624000012801D10120307500203086F07B002824
:1062500001D005B0F0BD708F2E2812D9697F1E22A3
:10626000CA40348E3449096891420BD2398D8C4230
:1062700001D231860C46798D8C4203D931860C4689
:1062800000E0348EB98E8C4201D931860C46B1794A
:10629000002905D02221795E8C4201DD8CB2348642
:1062A0003028D6D3B06E0128D3DB2549FAF742FF58
:1062B0002018308605B0F0BD1F4800210160012480
:1062C000FC72B175287F00280DD0E87C002884D1AD
:1062D0002920285C40001749401843383084FFF7D4
:1062E00051F9F47379E7FCF753FB76E7F07B00286C
:1062F00001D1FCF74DFB2620295CF07B0029A6D0BC
:106300000028A4D0B18F7D20C4002046FDF798FC62
:106310000019308480B2798E491E814202DDFFF778
:1063200031F993E7FDF74EFC90E7C04638040020B2
:1063300010000020FF070000B40400200087930332
:1063400010270000C5090000240000408813000049
:106350005CFEFFFF0320000203490A68824301201C
:1063600040021018086070470C0400500149086092
:106370007047C046342C0140014908607047C04650
:10638000382C0140014908607047C0463C2C014050
:106390000B2800D30B204000014908707047C0460D
:1063A00005050020F0B591B000240E940125AA0344
:1063B0005948C1681143C160C168009211400291FF
:1063C0000299022203920168114301600068019260
:1063D0001040109007940695059504941098402657
:1063E00002964E4802A9FBF7A5F9FF2000064C498A
:1063F0000A68824303208307D2180A60E906494AE3
:10640000116049490A6833231343CC2293430B603C
:10641000464F3968464A0A4010323A6001033A68EA
:106420008A433A6039682022914339603968B14320
:106430003960396880220A433A6001023A688A4327
:106440003A6080023968814339600F940C200D90C6
:106450000C940B940A94E120400209900894354C66
:106460002646083E08A93046FBF7FEFC07204107F8
:1064700022688A43226040062168814321606807C0
:106480003168814331600920C002211F0A688243BC
:106490000A60206822218843206021680820014387
:1064A00021603168294331606905AA0563690B429F
:1064B00002D06369134211D163690B4202D0636950
:1064C00013420BD163690B4202D06369134205D1B9
:1064D00063690B42EAD063691342E7D0009A103235
:1064E00039681140102904D11349F9602034BC6087
:1064F00003E01149B9602034FC6079680F4A0A4012
:1065000031327A603968019A114339603968014340
:10651000396011B0F0BDC046341002400004005094
:1065200018E400E000E100E008080240300002400A
:10653000EFBFFFFF08380140D40400200000FFFF38
:10654000F0B583B0F44E308EF087708D401C7085AE
:10655000708C401C7084B08C401CB084F07D00288E
:1065600036D0F14DE97F002910D05420325A521C08
:10657000325292B2ED4B5B78C91814234B43143B53
:10658000934203D2002131520120B073307D0028A4
:1065900000D0AFE1E54CE07A002800D18AE0F07C41
:1065A000002800D186E0FEF739FEFDF74FFBA17B06
:1065B00000291AD000281AD0B07D401CB075227C6A
:1065C000C0B290425AD8F07E002873D1307F5CE090
:1065D000707A0028C5D1307E0028C2D0708E002885
:1065E0000CD0502000213152BBE700283FD0307F33
:1065F000401C3077F27E002A5CD144E05020315AB2
:10660000491C315289B2C54A9142AAD3318F1F2900
:1066100040D30120F0757D20C000FDF709F8FF216F
:10662000002002900246FFF7DDF9707A002800D0C2
:1066300066E1F078002800D162E15220355AB92095
:1066400041002846FAF776FD70726808B92800D232
:1066500058E1B34DB34F029CFEF7D4FE6420FCF723
:10666000FFFF2F60641C707A8442F5D34AE1B07D4D
:10667000401CB075227CC0B290420FD90020307708
:10668000F27E002A16D100290CD0617CC0B288426B
:106690000CD80FE000213152317662E7F07E0028FD
:1066A00008D1307FA17CC0B2884203D90120F076A6
:1066B00000F0E4F9B08C152800D2B1E00020019080
:1066C000B084F17CB079002802913DD000293BD004
:1066D0002C20315E285CC722D24342435018944993
:1066E00008608A69831A8D68CA680F695A434A61CB
:1066F00088614543EB190D6AAB4200DB2B466D42C6
:10670000AB4200DC2B460B61D2184B685843101883
:106710004A6A904200DB104652429042824D00DCB1
:106720001046C8618349FAF725FD618C081802B24A
:10673000A18D8A4200DB014608B27D210901884211
:1067400000DB084660840299687F002830D0002969
:106750002ED0E08A216D091A75488162026C8B1A6D
:10676000056B426B876B5A43C26301644D43EB195F
:10677000856CAB4200DB2B466D42AB4200DC2B4606
:106780008363D218C36A59435118C26C914200DB2B
:1067900011465242914200DC11464164B06E081825
:1067A0006549884200DB0846C1178843B0660299F4
:1067B0007079002834D0002932D0F18CF148426839
:1067C000511A6165E26E8B1AE56D226E676E5A434F
:1067D000A266E1664D43EB19656FAB4200DB2B46C9
:1067E0006D42AB4200DC2B466366D218A36D594361
:1067F0005118A26F914200DB11465242914200DCD7
:1068000011462167726E89184C4A914200DB11468D
:10681000CA17914371660068632801D801986066C1
:106820006079002831D07D208000716F814201D8CD
:10683000102300E00623F18D02229629174600D38B
:106840001F46D04B1B68962B00D33A466272F38FDB
:106850005D1A954209DD8918F187216D8142CC4985
:106860000CD90120A072C87D0EE0C81A9042C84B16
:1068700007DD0020A072881AF08704E00020A072D3
:1068800003E00020A072D87DA070F07D00280FD01A
:10689000F07C00280CD0708F302809D3F78F258E1C
:1068A000384668437D210901FAF744FC401C18E092
:1068B000F07B00280DD0308C258E68437D210901A6
:1068C000FAF738FC618E081A401C56217052F78F77
:1068D00009E0F78F258E384668437D210901FAF7D4
:1068E00029FC5621705216490D6080B28860C8603C
:1068F000F78508614220315A491C315203B0F0BD7E
:10690000FEF780FDB07E002800D02AE62620A049B0
:10691000029A0A5425E6C04638040020214E0000A1
:1069200000300040AAAA00000A0600201000002043
:1069300094000020F0D8FFFF60E31600F058380103
:106940002C2C0140B0B540490978404C2278002AEF
:106950000BD0002909D03F480078002810D0FEF75E
:106960006BFE454802210170B0BD394A1278012AF8
:106970000CD0002A66D1FCF729FFFEF75DFEB0BD02
:10698000FEF7E4FF3C4801210170B0BD00290DD0A5
:1069900030480078002820D02F480088FEF73EFBC2
:1069A0000020FCF719FAFEF747FEB0BD2B4D297801
:1069B000002906D0FCF710FA2878012801D8FEF744
:1069C0003BFE27480078012811D1FDF747F9002840
:1069D00006D024480321017007E0FEF7B7FFB0BDE1
:1069E000204802210170FCF74DFDFEF725FE2078BE
:1069F000002827D11D4801881D4A2B78002B16D06E
:106A0000194B1B88002B12D01479072C0FD806299C
:106A10000DD3641C14711569EB181361082C06D191
:106A2000DC09DB081D1B15811B190E4CA380114BC3
:106A30001B88002B04D11278002A01D1491C00E0E8
:106A400000210180B0BDC046480400204F04002052
:106A50005004002064070020B804002051040020E6
:106A6000520400208C000020060400207004002046
:106A7000200400206A04002039040020F0B581B011
:106A80003C48016848223C4EB152002404603B4D12
:106A90002A6D0323534389B259180A09384B13400E
:106AA000CA08D21A4027F25389082965F38691B2A1
:106AB000344F3A68052A11D2006833480160E87CF7
:106AC000E97B012917D1401CE874C1B2072902D320
:106AD00001203073E8740121014016E002688A4207
