:020000040800F2
:10100000C00C0020D1100008411D00080115000887
:1010100000000000000000000000000000000000D0
:10102000000000000000000000000000311E000869
:101030000000000000000000431D0008331E0008EF
:10104000E3100008E3100008E3100008E3100008B4
:10105000E3100008E3100008E3100008ED14000896
:10106000E3100008F1130008E31000081D14000845
:101070004D1200089D1F0008E3100008E31000084F
:10108000C51F0008ED1F0008000000005D1F0008DC
:10109000711F0008991F0008E3100008E310000802
:1010A000E3100008E3100008E3100008092000081E
:1010B000E310000800000000E31000080348854624
:1010C00000F080F800480047913B0008C00C002069
:1010D0000448804704480047FEE7FEE7FEE7FEE7D6
:1010E000FEE7FEE7591F0008BD10000803460B434A
:1010F0009B0703D009E008C9121F08C0042AFAD2CE
:1011000003E00B780370401C491C521EF9D2704753
:10111000D2B201E00270401C491EFBD2704700228F
:10112000F6E710B513460A4604461946FFF7F0FFE6
:10113000204610BD70B50446002903D000202022AF
:10114000012310E0002801D00020C043C046C04663
:101150000DE02546D5408D4205D30D469540641BD4
:101160001D46954040191546521E002DF1DC2146C2
:1011700070BD000070B5002504462E46002911D030
:10118000002C01DA01254442002901DA01264942F6
:101190002046FFF7CFFFB54200D04042002D00D0DF
:1011A000494270BD002C02DA0121C90702E0002C7F
:1011B00000DD03490846C046C046214670BD000018
:1011C000FFFFFF7F1CB509480090094801900546C4
:1011D0000126009C05E0E36807CC33430C3C9847AC
:1011E0001034AC42F7D3FFF76DFF00005C600008DD
:1011F0007C60000870B58C180578401C6B075B0F8D
:1012000001D10378401C2A1106D10278401C03E06A
:1012100006780E70401C491C5B1EF9D12B0705D4C3
:101220000023521E0DD40B70491CFAE70378401CB2
:10123000CB1A921C03E01D780D70491C5B1C521EDA
:10124000F9D5A142D8D3002070BD0000B0B5AB4C99
:101250002068800213D50120450509480068094926
:1012600009684908884203D9256002F0FBFAB0BD3D
:1012700002F02EF804490978884200D12560B0BDFB
:101280002400004040050020CE0000200548818851
:10129000054A11800188054A118040880449088068
:1012A0007047C0466005002020050020240500206E
:1012B0000A050020F0B593B0002709970897079713
:1012C0000697012148020B46029144494A680243AD
:1012D0004A604A6802400A920A9858040A6802431F
:1012E0000A60096801400A91032605960A98402081
:1012F000019004900920C40604AD2046294600F060
:1013000031F9089705960820039004902046294655
:1013100000F028F932480168324A0A40026031037D
:1013200002688A430260016820220A430260016861
:10133000019CA1430160016880220A4302603102DE
:1013400002688A43029B190251180160B1020268C7
:101350008A4399021E4651180160234D286803995B
:10136000084328602868204328601804296801433E
:101370002960072080051D490A688243D805101896
:101380000860D8070F901297119710972C46283CA9
:101390000FA9204600F0B6F80E970D960C970B9704
:1013A0000A970AA9204600F0C7F80420C04329463E
:1013B0001C390A6802400A60294614390A68062363
:1013C0001343B3430B60243D29680140296028681A
:1013D00003998843286013B0F0BDC0461410024042
:1013E00008000240EFBFFFFF28240140082701400A
:1013F00010B5094C2068800703D42068000707D483
:1014000010BD01206060FFF741FF20680007F7D59D
:101410000820606010BDC0460000024070B52B4837
:1014200000782B4C002812D02748007800280ED0D6
:1014300001252804216801432160002060652948B6
:101440000078002816D003F0CDFC022015E001251D
:10145000261F306840031BD5A8041E4909780029BF
:101460000ED01D490A6802231343082293430B60E0
:1014700020600DE003F0FCFD28461B4908701CE0CD
:1014800016490978022903D12060012004F09AFC52
:101490003068800305D43068000301D5280420603B
:1014A00070BD280420600D480078022802D0606DCD
:1014B000A8436065002004F085FCE80308490A6839
:1014C00002430A6070BDC046D4040020DB04002043
:1014D00004000240DE04002020400140DD04002022
:1014E00010040140A8040020C504002080B501209C
:1014F000C0030249086003F001FC80BD14040140F0
:10150000FEE700008268D20712D1C268094B13407F
:101510004A681A438B681343CA681A43C26003229D
:1015200092070369934309681943016100207047DA
:1015300001207047C73FFFFF70B58268D2070CD10A
:10154000C268074B134074C909681A4322432A43EF
:1015500032430A43C260002070BD012070BDC04606
:101560003CC2FEFFF0B584B00B68002B49D00025CB
:101570000191009010E07F437F433B460F21594388
:101580008E435D433543009805510199039D6D1CC1
:101590000B681C46EC4035D00122AA401A40F6D018
:1015A0000395144654434B6826465E43032767431E
:1015B0000568BD4335430560FE4302935D1E234627
:1015C000012D05D88D685D43876837402F438760BC
:1015D0000D695D43C76837402F43C760029D022DE8
:1015E000039DD4D1170A05D024244D690659002F34
:1015F000C1D104E020244D690659002FBBD15B43C3
:10160000BCE700234A68521E012A05D8C96859431D
:1016100042689A430A434260002004B0F0BD0000D3
:1016200080B57D21C900FFF785FD401E0349486054
:10163000002088600520086080BDC04610E000E002
:10164000B0B504463E4D28680C2101403D480829AC
:101650000FD12968C90300D43B48A96A0F220A4068
:10166000511CFFF767FD014628688002000F801CAF
:101670004843206029680906090F354A515CC84073
:10168000606029684905490F304A515CC840A06034
:10169000B0BDC04610B5002801D0002010BD284CB8
:1016A000E16A0320084003281AD002281FD001282D
:1016B00023D120680C210140224808293FD121680C
:1016C000C90300D42048A16A0F220A40511CFFF729
:1016D00031FD014620688002000F801C484310BD88
:1016E000201F00688007C1171648084010BD012060
:1016F000C103E0698003084010BD20680C2101404F
:10170000104808290FD12168C90300D40E48A16AE6
:101710000F220A40511CFFF70DFD01462068800290
:10172000000F801C4843216822685205520F074B66
:101730009A5C0906090F064B595CC840D04010BDA1
:101740000410024000127A0000093D0042600008C7
:1017500032600008014908607047C0469C010020C3
:10176000B0B51F22D30234C99C433F239B029D4343
:101770000B782B4323430F242403A2431A43032350
:101780009B034C688D689C4314434988034A0A4074
:1017900022432A4342640020B0BDC046FF1F000020
:1017A000B0B5056801229407A04205D0244B9842A9
:1017B00002D0244B984217D170239D434B682B4392
:1017C000214DA84214DD214CA04206DC1C4CA04255
:1017D00016D0214CA04213D02FE01D4CA0420FD0B8
:1017E0001C4CA0420CD028E02B46174DA842EADC46
:1017F000A04205D0134CA04202D0184CA0421CD1EC
:1018000003242402A343CC681C4304608B68C36296
:101810000B888362994BC3189B0A8405E318072B36
:1018200006D814469C40E1231C4201D0097C016388
:101830004169114341610020B0BD1C46E5E7C04647
:10184000002C014000040040FF2B0140FF430140F9
:101850000048014000440140004001400020004099
:10186000F0B583B00123FF2945DC01296BD0102995
:1018700000D0FFE0016A102399430162016A30231E
:10188000994313695B085B010B43516809011943D4
:101890007A4BC3189B0A8405E61845681768846963
:1018A000072E1ED802970127B740E126374217D0EE
:1018B0000326B602B5435369019397692646D46956
:1018C000BF00714B3B402B43E50034461D43C02312
:1018D0009943019B5B08DB010B4391688901194324
:1018E000029F456073231B029C433B022343836199
:1018F000D2688263BCE001273D02A9425FD03D036C
:10190000A94200D0B6E0016AA94301625B494118CF
:10191000890A83055D18016A436814680094546855
:10192000029414690194C669072D00D989E03C46E8
:10193000AC40E1252C4200D183E0BC03A343946971
:10194000A4011C437EE00127F943036A0B400362B4
:1019500013690B40046A032101918C431C431668F0
:1019600051682143454BC3189B0A8405E318456819
:101970008469072B1BD802963E469E40E1231E42F7
:1019800014D0019B1B029D437B0256690196976907
:10199000D6699F432F4375003D430C239943019B18
:1019A0005B08DB000B43916889001943029E456088
:1019B00073239C4334438461D268426358E0016AD4
:1019C000A94301622F49491C13691B020B400321E3
:1019D00002910902056A8D431D435168090229439A
:1019E000264BC3189B0A8505EB1846681468C56921
:1019F000072B1ED89F40E1231F421AD0029B1B03D6
:101A00009E435369009393690194D4691B011C4F51
:101A10001F40374366013E43029B9B0299431A4B8A
:101A20001B1D009CA4021C400C43916889022143A9
:101A3000019C466073239D432543C561D268C26300
:101A400016E01C46446073231B029E43009B1B024E
:101A50003343C361D2680264032212039143084AEC
:101A60001032019B1B0313400B43029909031943D6
:101A700001620023184603B0F0BDC04600D4FEBF8B
:101A8000F0DFFFFFFFFDFFFFFCF7FFFF70B584B045
:101A9000044600680125C00724D10E462068244969
:101AA000014070680843F168014330690843B16937
:101AB000014321600320010362688A43B168114336
:101AC00061600002A168814370690843A060194801
:101AD00084420AD01848844204D10020FFF7DAFD7E
:101AE000002808D1284604B070BD01A8FFF7A8FD62
:101AF00003980028F6D031680029F3D00122D203E0
:101B0000B36993420AD140004A081018FFF712FB4C
:101B10000A4901400007400F401804E04A08101825
:101B2000FFF708FB80B2E0600025284604B070BDD6
:101B3000F369FFFF0044004000380140F0FF00005F
:101B400006480749016007490160022141607D2183
:101B500049018160044901607047C046003000407F
:101B6000CCCC000055550000AAAA0000F0B59FB0EB
:101B700000251D951C951B951A9519950E95012408
:101B8000E3020393694A50681843506019A90D7421
:101B90000D80506818401190184631381B901198EC
:101BA000634E3046FFF7FCFD306880210491084306
:101BB0003060B0685F490140B160B06908210191AF
:101BC0000843B061129513951495159516951795C0
:101BD00018956020119011AF304621463A46FFF724
:101BE0003FFE0420C1430091B0690840B061B06974
:101BF00003990843B06113951295102130463A4677
:101C0000FFF72EFEB0694C490840B061F0690199B8
:101C10000843F061139512952102019130463A462E
:101C2000FFF71EFEF06900990840F061F069039922
:101C30000843F06113951295210330463A46FFF7A9
:101C40000FFEF0693C490840F061706870218843DC
:101C500070600BA9CD812D200873B068049A904361
:101C6000B060109560030F900D950C950B95304664
:101C7000FFF776FD274660042C4B19680143196075
:101C80001968014005910598A00402941968014360
:101C90001960196801401E9102240A94099508955B
:101CA0000795069405941E98244805AE3146FFF723
:101CB00059FC0A94099508950795069405971F48BD
:101CC0003146FFF74FFC0A9409950895079506944D
:101CD000049805900920C70638463146FFF742FCB4
:101CE0000A94099508950795069402988002059034
:101CF00038463146FFF736FC0A9409950895079552
:101D0000069402984002059038463146FFF72AFCB7
:101D10000A94099508950795069401980590384608
:101D20003146FFF71FFC1FB0F0BDC0461410024043
:101D3000002C0140F8BFFFFFFFFBFFFF000400483D
:101D400070477047F0B581B0334801680125A94359
:101D50000160324CE07CE17B01290AD1401CE07437
:101D6000C1B2072903D32E480573E57428462840DD
:101D700009E0411EE174080603D1294805730621D4
:101D8000E17428468843A073EFF3108072B6244FA5
:101D9000F87B002802D1E07C00F01EFA62B600F069
:101DA000FBF9204E30682049884200D3E5720020BC
:101DB000F8763877E07C40008019216D4182482018
:101DC000385A4A22BA5A101840084018410821656A
:101DD0002F22F04B9A5C002A03D07A7F4A43910964
:101DE00002E0A278010951438008401A4222B85209
:101DF0003987E07A002805D0B0680C49884207D9B5
:101E000001B0F0BD01F068F9B06808498842F7D820
:101E1000401CB06001B0F0BD0C200040C0000020AC
:101E2000C404002040050020C50900000F27000061
:101E300070477047B0B545490A68012002430A60FF
:101E40000968434D2968014329602968890708D436
:101E50002968890705D42968890702D42968890770
:101E6000F3D52B6880210B43782293432B606B6B57
:101E700003436B636B6B9B0708D46B6B9B0705D4A9
:101E80006B6B9B0702D46B6B9B07F3D56B6B0B43A0
:101E900093436B63696A01436962696A890708D47D
:101EA000696A890705D4696A890702D4696A89075A
:101EB000F3D53D2109046A688A430521C9045118F4
:101EC0006960E96A0F229143E96201062A680A43C0
:101ED0002A6041062A680A4208D12A680A4205D1C6
:101EE0002A680A4202D12A680A42F3D06968F022BD
:101EF00091436960072109026A688A436A606968D8
:101F000002220A4382436A6069680C200140082962
:101F10000BD069680140082907D069680140082989
:101F200003D0696801400829EED10A4C2046FFF72A
:101F300077FB2046FFF70EFC686B0421884368633B
:101F4000286B032188432863B0BDC04600200240AF
:101F500000100240006CDC027047000080B50120D8
:101F6000C04302490860FFF7EDFE80BD102000402D
:101F70000220C04307490A68920703D40A68D207BF
:101F800004D1704708600A68D207FAD0401C086084
:101F90007047C04610400140704700000220C04317
:101FA00007490A68920703D40A68D20704D1704728
:101FB00008600A68D207FAD0401C08607047C04623
:101FC000102C01400220C04307490A68920703D43D
:101FD0000A68D20704D1704708600A68D207FAD0AD
:101FE000401C08607047C0461004004080B505489A
:101FF0000168C90704D00121C943016003F0E4FC72
:1020000080BDC046101000407047000081B0002025
:1020100000902248026822490A4052181832026091
:102020000268002A08D50268002A05D50268002A3D
:1020300002D50268002AF3D401220092009B002BF3
:1020400017D0009B5B1E0093009B002B11D0009BC0
:102050005B1E0093009B002B0BD0009B5B1E00932C
:10206000009B002B05D0009B5B1E0093009B002B68
:10207000E7D103680B4013430360014608390A683F
:10208000D20708D10A68D20705D10A68D20702D15F
:102090000968C907F1D001B07047C0460824014063
:1020A000E8FFFF7F70B5F54B186804210143082055
:1020B0008143196002249C6203210A050920C0069D
:1020C0000568954301221605AD19056095028562E4
:1020D0001D681543A5431D609A628B0404689C43E8
:1020E0009304E3180360530283628B0304689C43E8
:1020F0009303E318036080238362090403688B431E
:102100001104591801601102816270BD70B5DC497B
:102110000A7DDA4C20680C239843002A03D0082259
:102120001043206004E00422104320600220A062DB
:10213000032213050920C00605689D4301235E059F
:10214000AD1905600E7D25689543002E03D002264B
:102150003543256002E01D432560A36294040568B1
:10216000A543DC042C1904600C7D95030168A94388
:10217000002C03D0DC032143016004E09C032143D5
:10218000016080218162110402688A435904511858
:10219000016070BD9D0600200C48006800091828E9
:1021A00001D8002000E001208000B9490A6804231A
:1021B0009A4310180860064801784A424A4151057E
:1021C000044A1160007840055060704740050020C7
:1021D000CE00002008040140F0B5411E052900D9B9
:1021E0004AE10920C006C0467944097949008F4474
:1021F0000232618FBEED0322910303688B430121FC
:102200008C031B19036080238362130404689C43BE
:102210000B04E31803600B028362984B1D680D43A7
:102220000224A5431D6099619204056895438A04C0
:10223000AA1802604A028262914A167D1D680C2229
:10224000954349058F4A002E00D1EDE0082425432F
:102250001D6061230AE1894A116804230B430821A8
:102260008B4313600224946203210B0505689D4390
:1022700001231E05AD1905609D02856215681D4389
:10228000A543156093618A04046894439A04A218D4
:1022900002605A0282627A4A157D890304688C437F
:1022A00059047A4A002D00D1C4E0DB031C430460CA
:1022B0005123DBE0714A1168012319430224A14331
:1022C0001160936203218D040668AE439D04751965
:1022D00005605D028562156804262E430825AE431D
:1022E000166094610A05046894431A05A2180260F6
:1022F0009A028262624A157D890304688C435904FC
:10230000624A002D00D19CE0DB031C430460ACE07A
:1023100003218A030468944301239A03A2180260EC
:10232000802282620A04046894431A04A21802609C
:102330001A028262514C22680425154308229543F3
:1023400025600225A5610A05066896431A05B2189C
:1023500002609A0282624A4A177D26688E43D90437
:10236000494A002F73D02E43266061237EE0434B01
:10237000196804220A4308218A431A6002249C62D5
:1023800003210A050668964301252A05B218026052
:10239000AA0282628A0306689643AA03B218026000
:1023A000802282610A04066896432A04B2180260F9
:1023B0002A028262324A177D1E688E43E904324A3D
:1023C000002F49D026431E6051234FE02B4B1A6843
:1023D00001210A430224A2431A6099620322950450
:1023E0000668AE438D04751905604D02856295033C
:1023F0000668AE438D03751905608025856112045A
:10240000056895430A04AA1802600A0282621C4AFF
:10241000167D1D680C22954349051A4A002E20D0CE
:10242000082425431D6020E0042635431D609C627E
:1024300061231BE09B031C430460802383625123C0
:1024400014E09B031C430460802383620DE01E4361
:102450002660A362612309E02E431E609D62512322
:1024600004E0042635431D609C6241230468144047
:102470000C43046006480360F0BDC04600040048F9
:102480009D060020FFFFCFFFFFFFF3FFFFFFFCFFD4
:102490001C000140F0B5A5B0F8490024CC81F849F2
:1024A000097801230229019106D01D46F5490978D2
:1024B000002806D01F2205E00425F24909780028EB
:1024C000F8D14A1E179220394A1E914100281694CD
:1024D00001D148011690EC4800781490EB48008830
:1024E0002390EB4800882490EA48224615932193D4
:1024F00004940395AD1A17991F928A1A03E0641E7B
:10250000291900D1C8E113199F063F0EC75921337D
:102510009B061B0EC358FB1A9FB224998F42EED91B
:1025200023998F42EBD202957D09D44FBD81169934
:102530001F9A8A1A11190A4616329206120E8258EA
:102540000E461736B606360E8659B21A92B20127D3
:10255000002621962295AA42209700D8219F0A465C
:102560000F329206120E825818920A460E329206C6
:10257000120E82581192CA1D9206120E825819929A
:102580008A1D9206120E825810920A461532920641
:10259000120E82580D920A4614329206120E82587A
:1025A0000C920A460D329206120E82581A920A4670
:1025B0000C329206120E82580B924A1D9206120E8F
:1025C000825809920A1D9206120E825808920A46F3
:1025D00013329206120E82580F920A461232920657
:1025E000120E82580A920A460B329206120E825836
:1025F0001B920A460A329206120E82580792CA1C91
:102600009206120E82581C928A1C9206120E825852
:1026100006920A4611329206120E825812920A4609
:1026200010329206120E82580E920A460932920613
:10263000120E82581D920E460836B606360E825984
:1026400005928A06120E82584E1CB606360E865920
:1026500013978A4DEF61B21A92B2229DAA42209E30
:102660001E9601D8219A1E921D9A059D521B92B268
:10267000229DAA421D9601D8219A1D92129A0E9D62
:10268000521B92B2229DAA42354600D8219D1D9F21
:102690001E9A574012956F407A1E97410E971C9ACA
:1026A000069D521B92B2229DAA421C9601D8219AE5
:1026B0001C921B9A079D521B92B2229DAA421B9606
:1026C00001D8219A1B920F9A0A9D521B92B2229D09
:1026D000AA42354600D8219D1B9F1C9A57400F9552
:1026E0006F407A1E97410A97099A089D521B92B231
:1026F000229DAA42374600D8219F1A9A0B9D521B51
:1027000092B2229DAA421A9601D8219A1A920D9A43
:102710000C9D521B92B2229DAA4200D8219E1A9A69
:102720007A400D967240561EB241199D109EAE1B06
:10273000B6B2229DAE42209D199501D8219D1995D2
:102740001097189D119EAE1BB6B2229DAE42209DE1
:10275000189501D8219D18950E461836B606360EE6
:1027600086590F461937BF063F0EC759BE1BB6B272
:10277000229DAE42209D00D8219D11950E461A360D
:10278000B606360E86590F461B37BF063F0EC75991
:10279000BE1BB6B2229DAE42209D00D8219D0C9555
:1027A0000E461C36B606360E86590F461D37BF0636
:1027B0003F0EC759BE1BB6B2229DAE42209D219F3F
:1027C00000D83D460B950E461E36B606360E865987
:1027D0001F318906090E4158891B89B2229DA942E1
:1027E00000D820970E99C9000A9DAE000E435100F3
:1027F0003143139A199D6A40189D6A408D181199AA
:10280000C9000C9A920051180B9A52008918209A0C
:102810008A181499002901D00F214A402292571B8F
:10282000791E8F411E9989021D9A96017118129A7C
:10283000960089191C9A560289191B9A5601891902
:102840000F9A56008919109A16020E431A99090117
:102850003143199AD2010A431899CE0016430D99B3
:102860000E432299A9421BD0029909191F9A121BE3
:10287000521C0129049C039D12D03BE680040020D9
:10288000DD0400203C010020D40400204001002091
:10289000B40400209C0500202198C007159F47D153
:1028A0009B48C3819D4C2078002809D001980028BE
:1028B0003CD001209749087020209749087035E0E6
:1028C00000F01CFD002813D00020914A907150792F
:1028D000411C517192480078421E9041C9B265294D
:1028E000159900D30146002920D1012020701DE058
:1028F000874880794028874A0ED3117801290BD167
:102900000220107040208449087002F06BFA804861
:102910008079212807D209E03F2804D8401C7C494F
:102920008871212802D3002079494871002F07D0EF
:1029300000207749C871888A401C888225B0F0BD84
:10294000E14900200880724D298A491C2982E969E1
:10295000012902D1734901220A70E979002908D0BE
:10296000022913D0012916D10220E8716E8225B008
:10297000F0BD302E1AD36978002917D06A4800219B
:102980000170D8480680A97025B0F0BD0320E87119
:102990002E7225B0F0BD0329D0D1252ECED1698A63
:1029A0002A7ACD4B5A54E87125B0F0BD711E2E29FC
:1029B00006D85D480670CB4800210180F0B20EE0D9
:1029C000002E02D05848007809E02978012901D169
:1029D0000021697054490870C2490880A870002815
:1029E000ACD0524909780029A8D14D49097800296D
:1029F000A4D0E978884202D00021A970E8700528A7
:102A000005D3A978491CA970C9B2062996D3002418
:102A1000AC70411E232900D973E0C046794409797E
:102A200049008F441137153B3F19434A51556E1EDB
:102A30005A286E6E6E6E6E2F656E6E6E6E6E6E6E58
:102A40006E6E6E6E6E6E6E6B3A490120087058E0C5
:102A500038490320087054E03748012101700620EE
:102A60004FE002F00FFA9C48407C401C314908704E
:102A70002D48007845E02C7107204002FF30688126
:102A80000E203EE09448407C0121081A2849087035
:102A9000142036E027490220087032E0254904203E
:102AA00008702EE02349052008702AE02048012103
:102AB000017089484474072023E01D48047086484B
:102AC0000121417408201CE083488474092018E027
:102AD0008148012181740A2013E001212971072016
:102AE000400268812A780D20012A0AD1697008E025
:102AF0007948407C0E490870152002E00120E871F9
:102B0000242009490C700D49087025B0F0BDC0465D
:102B100080040020DD0400203C010020D4040020BB
:102B2000DB040020D20400209C060020D7040020F3
:102B3000CF000020CF040020E4040020F407002090
:102B4000F0B581B05C4E03CE081A5C4FC1195D4AE6
:102B5000083E91420ED85C4D00242C805B4B1978C6
:102B6000002909D09978002969D1597800292DD0F8
:102B7000D8882CE0524D88E05749897C1E460029B0
:102B80000DD057490A887D21CB00904215D9504C71
:102B9000248809010091511C5B1C224611E04C491C
:102BA0000A884E4909887D231B012F3300932F2368
:102BB00001F0EAFE312806DA06E048490988009368
:102BC000002301F0E1FE0446F4605EE0D880491C79
:102BD00059703F4F398880B200F074FB332804D31A
:102BE0003A4804700346394621E0388807214143BA
:102BF00005CE101A4018C0083880344A5178083E73
:102C000033291346394612D3193881B2314A89180B
:102C1000CA0F8918490821221F462F4B99540121B8
:102C2000B9702B49088001F09FFF29493B4608886D
:102C3000D8809878002828D003CE081A1F4FD9785A
:102C40007D22D200FA32904208D2491CD970234A20
:102C5000138807265E433018C0081080C8B24C287D
:102C600013D31E48018819318AB2BA183332D30FF0
:102C7000D21852082023184EF254144F3C70018091
:102C800002F000F9FC7001F04BFF0020288015488D
:102C900002880E49C9688C1A134B1B689C4201DDDF
:102CA000D11806E0541A9C4203DDD11A018001B00C
:102CB000F0BD018001B0F0BD9C050020DFFCFFFFEE
:102CC000FE0400207605000008050020AC0400206A
:102CD000DC0000202AF9FFFF9D060020DA0000201A
:102CE000DE00002002050020A801002080B2654916
:102CF0000A680B689B1A9BB298420ED90B689B1A04
:102D00009BB2984209D90B689B1A9BB2984204D98E
:102D10000B689B1A9BB29842EBD8704770B500289D
:102D20003DD0032505407D21C900554A554B002D56
:102D3000044632D01C681E68361B16408E420ED2E6
:102D40001E68361B16408E4209D21E68361B16407E
:102D50008E4204D21E68361B16408E42EBD3012DE4
:102D600003D1441E042836D219E01C681E68361BA5
:102D700016408E420ED21E68361B16408E4209D275
:102D80001E68361B16408E4204D21E68361B164043
:102D90008E42EBD3022D03D1841E04281BD270BDBA
:102DA0001C681D682D1B15408D420ED21D682D1B01
:102DB00015408D4209D21D682D1B15408D4204D24D
:102DC0001D682D1B15408D42EBD3C41E042802D272
:102DD000E5E7241FE3D018681D682D1A15408D42C1
:102DE0000ED21D682D1A15408D4209D21D682D1A6C
:102DF00015408D4204D21D682D1A15408D42EBD32B
:102E000018681D682D1A15408D420ED21D682D1AA6
:102E100015408D4209D21D682D1A15408D4204D2ED
:102E20001D682D1A15408D42EBD318681D682D1AA8
:102E300015408D420ED21D682D1A15408D4209D2C3
:102E40001D682D1A15408D4204D21D682D1A15409B
:102E50008D42EBD318681D682D1A15408D42B8D2EB
:102E60001D682D1A15408D42B3D21D682D1A1540CC
:102E70008D42AED21D682D1A15408D42EBD3A8E7C6
:102E8000F8FF000024480140F0B57E4BC9337E486E
:102E900043807E49096800252A4603E092192835B7
:102EA000782D77D0794C66197768791A1BD1B1687B
:102EB000CF1B21D1F768791A27D13169CF1B2DD1CA
:102EC0007769791A33D1B169CF1B39D1F769791A8A
:102ED0003FD1316ACF1B45D1776A791A4BD1B16A9C
:102EE000CE1BDCD050E09CB2A14201D241800B4607
:102EF0005218B168CF1BDDD09CB2A74201D24780E7
:102F00003B46D219F768791AD7D09CB2A14201D2B8
:102F100041800B4652183169CF1BD1D09CB2A742D9
:102F200001D247803B46D2197769791ACBD09CB23F
:102F3000A14201D241800B465218B169CF1BC5D0C6
:102F40009CB2A74201D247803B46D219F769791A51
:102F5000BFD09CB2A14201D241800B465218316AC7
:102F6000CF1BB9D09CB2A74201D247803B46D219B1
:102F7000776A791AB3D09CB2A14201D241800B4644
:102F80005218B16ACE1B8AD09CB2A64286D2468025
:102F9000334683E751093E4D69610F21CF013D4919
:102FA0000C78002C21D05C1EA4B2022C07D8BA42A7
:102FB00005D200246C71384E34700E240DE01C1FB5
:102FC000A4B2042C11D81924E401A2420DD2324C2F
:102FD000012626700E70691D0724304E34700124BE
:102FE0000C70202101702E490C703E461F46C93FCF
:102FF0002C490C78002C0DD0B9B2224DA94209D22F
:1030000025492F250D700121264D297002250570B7
:10301000234D29701F490D78254300D0F0BD5C1E5B
:10302000A4B2022C08D8B24206D20022184B5A7120
:10303000194B1A700E220EE01B1F9BB2042B14D8E2
:103040001923DB019A4210D2134A012313700B702B
:103050000F49491D0722114B1A7001220A702021C5
:103060000F4A012313700170F0BDB9B2054A9142B5
:10307000D4D209492F220A7001210A4A1170022173
:10308000EEE7C046574D00003C0100209C050020A3
:10309000AC040020DD040020A4010020A9040020CD
:1030A000DC040020DE04002007480849816008494C
:1030B000C1604168074A0A40D11C41600168012291
:1030C0000A4302607047C0460800024040240140A5
:1030D000600500200000FFFF0120400559490A68F3
:1030E00002430A607047C046B0B582B04C480168E0
:1030F000012421430160016810220A430260210279
:1031000002680A430260016804220A4302600168FF
:1031100040220A430260A10202680A4302602103BE
:1031200002680A43026064210162014620390A688C
:1031300022430A60E503416A294341620C38016871
:10314000214301603748016A21430162016821433C
:103150000160354801460C390A6822430A608168DB
:10316000214381600168214301600168A14301603E
:103170002E48016821430160416921434161A00754
:103180000168214301604169214341612848016888
:1031900021430160416921434161C1682143C1600C
:1031A000FEF788F8FFF780FFFEF730FF0020019060
:1031B00051480168214301601E4800681E49FDF71F
:1031C000B9FF0621414301910198002817D00198C9
:1031D000401E01900198002811D00198401E0190D6
:1031E000019800280BD00198401E019001980028FA
:1031F00005D00198401E019001980028E7D1FF20DA
:1032000000060E490A688243E007101808600C485F
:10321000802101600B4801682943016002B0B0BD04
:10322000202C0140004001400C200040004801409B
:10323000001000409C010020400D030004E400E069
:1032400000E100E00004014070B5194B186804214A
:10325000014308208143196002249C6103210A056F
:103260000920C0060568954301221605AD190560C1
:10327000950285621D681543A5431D609A618B0404
:1032800004689C439304E3180360530283628B0336
:1032900004689C439303E31803608023836109045B
:1032A00003688B431104591801601102816270BDDB
:1032B000000400480248016801220A430260704786
:1032C000142C0140401AC1174840401A70470000B2
:1032D00007480068C0000749401801218903814060
:1032E000054A12680A400E30C240D0B27047C0464C
:1032F000A001002020FFF7FF1C00014002480168E8
:10330000042008407047C04610000048F0B500296E
:1033100034D001220A40012933D100210D46002A70
:103320002AD0425C6A405100072052B2002A00D5E0
:10333000C1E04A0049B2002900D5C2E0510052B2B2
:10334000002A00D5C3E04A0049B2002900D5C4E0F4
:10335000510052B2002A00D5C5E04A0049B2002906
:1033600000D5C6E0510052B2002A00D5C7E04D009A
:1033700049B2002900D54540E8B2F0BD0025E8B2C9
:10338000F0BDFE230B4000210D4602E0891C8B425C
:10339000C5D0465C6E407500072476B2002E40D43E
:1033A0006E006DB2002D41D4750076B2002E42D46D
:1033B0006E006DB2002D43D4750076B2002E44D459
:1033C0006E006DB2002D45D4770075B2002D46D445
:1033D0007D007EB2002E00D56540461876786E409E
:1033E000750076B2002E40D46E006DB2002D41D42F
:1033F000750076B2002E42D46E006DB2002D43D41B
:10340000750076B2002E44D46E006DB2002D45D406
:10341000770075B2002D46D47D007EB2002EB5D562
:1034200047E065406E006DB2002DBDD56640750069
:1034300076B2002EBCD565406E006DB2002DBBD5B6
:103440006640750076B2002EBAD565406E006DB24A
:10345000002DB9D56640770075B2002DB8D567400C
:103460007D007EB2002EB7D4B7E765406E006DB226
:10347000002DBDD56640750076B2002EBCD56540E6
:103480006E006DB2002DBBD56640750076B2002E81
:10349000BAD565406E006DB2002DB9D56640770093
:1034A00075B2002DB8D567407D007EB2002E00D4E5
:1034B0006CE765406AE741404A0049B2002900D400
:1034C0003CE74240510052B2002A00D43BE7414061
:1034D0004A0049B2002900D43AE74240510052B2B2
:1034E000002A00D439E741404A0049B2002900D4FB
:1034F00038E74240510052B2002A00D437E7414039
:103500004D0049B2002900D535E735E710B582B046
:1035100047490B680120420713604B6853608B6872
:103520009360CB68D3600B6913614B6953618B69FE
:103530009361CB69D3610B6A13624B6A53628B6AE6
:103540009362CB6AD3620B6B13634B6B53638B6BCE
:103550009363CB6BD3630B6C13644B6C53648B6CB6
:103560009364CB6CD3640B6D13654B6D53658B6D9E
:103570009365CB6DD3650B6E13664B6E53668B6E86
:103580009366CB6ED3660B6F13674B6F53678B6F6E
:103590009367C96FD16727490B68274A13604B6847
:1035A00053608B689360CB68D3600B6913614B6980
:1035B00053618B699361CB69D3610B6A13624B6A68
:1035C00053628B6A9362CB6AD3620B6B13634B6B50
:1035D00053638B6B9363C96BD16318490A680243C9
:1035E0000A600968014001910198154801680324A7
:1035F000A14301600168214301607D20C1001148A1
:103600000068FDF797FD401E010E00D0FEE78F49D0
:103610000D4A50600D4803680B40A107591801601E
:10362000002090600720106062B602B010BDC04656
:1036300000100008801000088000002018100240D0
:10364000000001409C01002010E000E020ED00E0BF
:10365000F0B593B0FEF7EEFB784B58680124204399
:103660005860586820400C900C98200799680143D6
:103670009960996801400C910C987148016810227A
:1036800006921143016065041868284318601868A1
:1036900028400C900C98A104089118680843186001
:1036A000186808400C900C980920C1060A91E003A4
:1036B000886218682043186018681F4620400C90E4
:1036C0000C98FF20049000045E4A11688143A00515
:1036D00008181060A0025C49086010685B4B184035
:1036E000A60780191060E00209900860FEF73EFA14
:1036F000B8682043B860B86820400C900C98172038
:1037000002900796B0625248F06200200B90119030
:1037100010900F900E9038680395284338603868F1
:103720002840129003270D970197022005900C90D6
:1037300012980CAE0A9D28463146FDF713FF0B98F0
:1037400010900D9720200C9028463146FDF70AFF77
:103750003C4E7068049B984370607D204001014698
:103760006031394D29602102344FBA680A43BA608A
:10377000BA680A400C920C993649029A8A62C86269
:10378000B068324A1040B060E00428602E460A68F3
:10379000802002430A60B968069A1143B960B9688B
:1037A00011400C910C991902264B9A688A43019D8D
:1037B000A90351189960039C346027492F220A609D
:1037C00032234B607968089B194379607968194006
:1037D0000C910C9921498A621D4BCB620A68824385
:1037E0000A60581C796801437960796801400C913E
:1037F0000C983868204338603868204012900B9F3E
:10380000119710970F970E9505980D9004200C9026
:1038100012980CA90A98FDF7A5FE0A4A10680B49F0
:103820000840079940181060099830600C480760FC
:103830003F21416002F03AF813B0F0BD141002408D
:103840000020024008E400E000E100E0FFFFFF008C
:10385000FFFF000000200040281000400048014009
:1038600028400140B0B5244C20687E2819D3234855
:103870000168C4487C2909D84021415AC9084A290D
:1038800004D8A16889087D2900D2B0BD417D491CBA
:103890004175C8B2652804D301F098F80020A060F3
:1038A000B0BDAD4C607B002809D00025FFF710FDAE
:1038B000A17B8842E9D06D1C607B8542F6D3EFF393
:1038C000108072B601F082F84A20AE490A5A4823A5
:1038D000CA520A4A13680B5200201060084A9061CD
:1038E0004223C95A491C11625060106801210143EA
:1038F000116062B6B0BDC046400500202400004003
:103900000C200040F0B583B0934EF16C934CC02274
:10391000204601F03FFAE07D042801D30220E07543
:10392000207E014608398E4A8E4F8F4D28291AD89D
:1039300018281CD30097182130222B4601F024F8B8
:103940007086207E01460C390B2914D9FC210140D8
:1039500008291CD18549009107211022854B01F0CF
:1039600013F8708614E01046F930308611E00146F5
:103970000C390B29EAD800950C2118227C4B01F058
:1039800003F87086207EFC2101400829E2D0708E69
:1039900085B2794818380560607E0146323964295D
:1039A0000AD8217D00290CD030850321FDF7C2FB08
:1039B000B0850A30F0850AE05520B0859620308524
:1039C00005E04108B185400030850A31F185A07ECF
:1039D000282568431430B082022001F05DFF607832
:1039E000002840D0A07F0B2800D9052001F054FF0B
:1039F000272100200290605421462031CA7832717C
:103A00008A785E4BD218F2832522A25CFA32328485
:103A10002022A25C52005A4BD21872834978490086
:103A20004F480918B1832421615C491E4A424A412A
:103A30005449CA70625D1A3A1523DB439A4201D891
:103A4000052262552925675D0B3F0A23DA43974219
:103A500000D863552A27E05D05460A3DEDB2F62DF4
:103A600003D8E35517E0B58A5CE00923DB43434301
:103A70003D3BF370D8B2338D1B183385B38D1B18C3
:103A8000B385738F1B187387738D1B1873853A4D1D
:103A90002B6803432B60334F2B23E05C7330C0B2A1
:103AA000B82801D8FF20E0542C20205C401E62285A
:103AB00001D8012088712D23E05C0B38904201D899
:103AC0000520E0542E20235C092B0AD8042B0ED8A5
:103AD0000A461A327B441B795B009F440231060878
:103AE0003300029888764876274A01201070B58AFC
:103AF000A8084A2801D80298B071E17E2020FDF77D
:103B000019FB04460C212846FDF714FB2146FDF75E
:103B100011FB308764212846FDF70CFB2146FDF799
:103B200009FBF0864B2081000846C83000900F4802
:103B3000C21C7B1C284600F027FFB08403B0F0BDF8
:103B40000120D0E71048029A02701048012202704A
:103B500019310A46C9E7C046C00000209D06002072
:103B6000D6060000E7030000CF070000B50B0000F9
:103B70009E0F00006D170000442C01405E05000000
:103B8000EE020000C4040020810400208004002014
:103B900000B58FB0FFF7BAFC7F2045012868E749E0
:103BA000884211D16868E64988420DD1287B1F28D8
:103BB00005D02B2805D0352806D1E24802E0E2489E
:103BC00000E0E248E249C864FFF742FDFFF78CFAE3
:103BD000FFF798FEDF4B1A7912204240D978022471
:103BE0000894614011434A1E91415A78D84B1C7881
:103BF000012394420C931A4600D800221143012954
:103C00000FD1D44E30710220F070701DD2A10C2261
:103C1000FDF76CFA7470CE48C26CC021304601F0DA
:103C20003FF9CB4C608E2086CA4A507C401E411E14
:103C30008841E073107D002801D10020D074262037
:103C40000190105CC84B002813D00020D0740121D3
:103C50009174A1715075907510751846BE306087CB
:103C6000A08D3230A085E08D3230E085208D32305D
:103C7000208500F0FFFFBD4F00267E87FDF760FF27
:103C8000BB48BC49016001F0ADF83878002801D08C
:103C9000012078711F35B848016829400160F96634
:103CA0000068010C3967000F01D11920C643BE77A7
:103CB00001F0D6FDFF20069068300E907D20820036
:103CC0000592C2000B9200010D90A24D08E0AB4896
:103CD000099E066046608660FEF7E4F95A203E526F
:103CE000A7488068052801D3089800E004209F4F6A
:103CF000A0746074A24AD08A918A0818118B401867
:103D0000518B4018918B4018D18B4018001D4008F2
:103D1000D060974897490160687D012809D1206DDE
:103D2000618E00914B086021C82200F02DFE208694
:103D3000687D022815D192480068014665399429AA
:103D400002D8052141430BE0411E632902D20E999E
:103D50008D3105E0F921C943FA388842894900D8F4
:103D600021864420385A884988420AD9F97D002999
:103D700001D000F0ACFC85498842834901D300F0B2
:103D8000C7FCB88D884232D92D20C100FC8D20049B
:103D9000FDF7F0F9796F401878677D4800780328BF
:103DA00009D0022816D001281FD10E999931F87F29
:103DB0000843022115E05420385A76494143090C42
:103DC000401A400840180009C1B26748D63008437D
:103DD000012106E0E0B229214143C80A03214A0239
:103DE00080186B4A11706C4908800020B885B88E25
:103DF00001210023C8280A4600D31A46604CA66851
:103E0000642E00D81946434243410B9CA6420C9CA9
:103E100000D81C46002C01D1114001D00021B974FA
:103E2000E97C00294A4C03D09F2801D80021B974AD
:103E3000397A00290E9905D02931884208D200200C
:103E4000B87405E0952801D8642000E00A20E071EC
:103E50004B4DE86803210A91FDF78CF928600B2E81
:103E60004E4E30D30146387B00282CD0444D286973
:103E7000FFF728FA29680D9A914220D24A08904209
:103E80001DD900203E4A9060FA79521CFA71226DC9
:103E90000B9B9A4200D901202E4BBA8F2F2A0C9AE5
:103EA00000D8CAE29B7C002B00D0CBE2012A01D1D2
:103EB0000020F8740120E072208D400838863048D8
:103EC000016100203873226D3B7C30460838016860
:103ED000334C2140002B0FD0792A0DD3016030687C
:103EE0002F4908402F49243901433160301F0168B0
:103EF00040200843BF210AE02A4A243A11430160C6
:103F00003068274908403060301F006806998843B0
:103F1000104D311F0860B87B002845D076203B5AF1
:103F20005420395A5A203C5AFA8DF87F009400F0F8
:103F300037FC3C460E340A203FE0C046DAE3255900
:103F4000D963B84E00F80008007C000800F80108AA
:103F5000C00000209D0600204644363238385F50AD
:103F600041322020000000002A030000C404002089
:103F700000300040AAAA000000580140342C014043
:103F800040050020E2040000204E0000419C00009B
:103F900084040020AF4700008A04002010E400E001
:103FA000FFFFFF00240000402020385C002808D0DC
:103FB00000F0E6FB3C462034312001F0A1F800205F
:103FC0002070787B401C7873C0B2C92875D3FDF788
:103FD0005DF9C74908884989091A5C22BA5A121A38
:103FE00050205043FDF7C6F806461E365E203E526E
:103FF0005424385B072545436020385ABD4948435F
:10400000BD49FDF797F8BD49C98C48436421099122
:10401000FDF790F84019C5083D53B9490868B94AF9
:104020001040001D08607A7C5300B74CE05A4621CE
:10403000795AE152FE77521CD3B20026632B3346E5
:1040400000D81346B14F7B74B14B5A68101A401810
:1040500058600999FDF76EF8F88680B2B867A549EF
:104060004843CD218900FDF765F8010400D53046AD
:10407000F885F87800281DD0787AA049098C41434A
:10408000A8B2814214D9788D401C7885397DA14A27
:104090005143A14A891880B281420BDA0024BC87BF
:1040A000FEF700F800F092FC7C87FC74FC7501E0E0
:1040B0000020788500207873984D00267E75387D25
:1040C000002840D0B88F312876D3F97D002973D0ED
:1040D00088288A4C00D933E18C4FB87800280FD05B
:1040E0008F4A106801218843106000F06FFC0024A3
:1040F0008C48046044608460FEF708F8BC707F4C14
:1041000050200A90395A4E2009903D5A4C203B5A73
:10411000E27B002A079000D112E24A1E11B2002968
:104120000E9E314600D411466A1E14B2002C304651
:1041300000D410465B1E1AB2002A32466F4C00D5DE
:1041400014E21A4612E27248C1687748FDF712F885
:10415000F97C41435A20395288B274494843C00C13
:1041600062217852654CA17900290D9908D0638F9E
:10417000228FE18EA48F0094604C00F005FC014674
:10418000A1862B202A5CF87F904209D9A38F0121B8
:10419000009111460A390A325B0800F0F5FBA0864F
:1041A0005B48806863282DD8216D0598814229D904
:1041B0000C20322932D332E009960126BE70287FC6
:1041C00000284E4C00D182E52920285C4000658EF5
:1041D000281813384021785281B2208E484329464E
:1041E000FCF7A8FF281A4D4D401C5824385300F006
:1041F0009FFD385B414C4B49086048608860FE7306
:10420000099E6BE5424800680C210091642103235C
:10421000059A00F0B9FB216D322900D202206073AB
:104220002F20285C002809D04020385A17210091FF
:1042300064210D230D9A00F0A7FB78773C480068B5
:104240003C49884200D24BE53048C07C012800D070
:1042500046E52E4DA87C401CA87400F0B7FB012059
:104260000990E072A88F2F2803D8334820650020DA
:10427000E8740026264886602D4F38684A21685227
:104280003E60216D0A9A4A4380B2101801092B4AF8
:104290001140C208521A4223EA5280082065298739
:1042A00090B21B498968052914D239681C490862F3
:1042B000E07CE17B0129194D00D0C8E0401CE0748E
:1042C000C1B20729099F03D310480773E774384622
:1042D0003840C7E039688142E8D239688142E5D286
:1042E00039688142E2D239688142F3D3DEE7C046C1
:1042F000B8F7FF1FE40C0000FF0F0000C000002013
:1043000008240140E8FFFF7FF6070020C4040020D6
:10431000400500207CFCFFFF204E00009D06002091
:104320000C200040342C0140C0270900CDCC0000F7
:1043300024000040C9AF000088130000FEFF000009
:104340000127F2498F7050200A90085A4E2202929B
:104350008A5A4C25495BE37B002B09960397079506
:1043600000D175E1431E18B200280E9D284600D4E6
:104370001846531E1AB2002A2A4600D41A464B1E6B
:1043800019B20029294600D41946079DF14B0A9E0F
:104390009853029FDA5359534026A05B09B2490053
:1043A000F54A515E4118608E48430D99FCF7E2FED4
:1043B0002D25FA4C615D48430A210491FCF7DAFE91
:1043C00080B201F057FAE14B985BE249C95F4900BE
:1043D000E94A515E4118588E48430D9F3946FCF713
:1043E000C9FEEE49495D2C4648430499FCF7C2FEDC
:1043F00080B201F045FAD54B985BD64E0A99715EB2
:104400004900DD4A515E4118588E48433946FCF751
:10441000B1FEE24D295D48430499FCF7ABFE80B242
:1044200001F034FA3746B08FC82859D90998079A4D
:10443000B852C64C0A98E08754E002469B7C002B99
:1044400000D133E50246012A00D131E532E5411EB3
:10445000E1740806099F03D1BE4807730621E17481
:1044600038468843A073EFF3108072B6B948C07B1A
:10447000002802D1E07CFDF7AFFE62B6FDF78CFEAE
:10448000B9480068B449884200D9E772B148C67695
:1044900006778675B44A9068411C9160E07C4000C4
:1044A0008218206D5082019AAA5C531E9A416B7F3C
:1044B000002B0C9B00D11346012B07D1142900D2ED
:1044C0000EE40D99491C884205D309E40D998842F0
:1044D00001D3FFF705FCE672FEF7FEFDFFF700FCD7
:1044E0009A4CE08F039EFEF701FC0798385A00288B
:1044F00001D0FFF7F5FB97493746CE74099E0E753C
:1045000096482065E772984B18611860944A1060CD
:10451000CE7314209860687F002801D0E08D088653
:10452000207BE17B012900D0A6E0401CE074C1B2F1
:10453000072903D387480773E77438463840A5E056
:104540004C1C21B200220E9EB142114600DC2146D5
:104550006C1C25B20E9EB542104600DC20465B1C4A
:104560001CB20E9EB44200DC1A46784C079B0A9D92
:1045700079533946099FC853CA5240200790205AA0
:1045800011B249007C4A515E4118608E48430D9D2E
:104590002946FCF7EFFD2D26804CA15D48430A21FA
:1045A0000491FCF7E7FD80B201F064F96748079CCD
:1045B000005B6849C95F49006F4A515E4118634812
:1045C000408E48432946FCF7D5FD7449895D484330
:1045D000049F3946FCF7CEFD80B201F051F95B48EB
:1045E000005B0A995B4A515E4900634A515E41187B
:1045F0005648408E48432946FCF7BCFD674CA15DF8
:1046000048433946FCF7B6FD80B201F03FF9E57E3C
:104610004F482946FCF78EFD064658482946254650
:104620004A4CFCF787FD03464A4FB88F009630216D
:10463000782200F0A9F9E08780B2FEF757FB0E98C8
:10464000F130E18FFCF776FD5A217852FFF748FBF5
:10465000431C18B20E9DA842304600DC1846531C7D
:104660001AB2AA42324600DC1A464B1C19B2A942C1
:10467000314600DC88E688E6411EE174080603D175
:10468000344807730621E17438468843A073EFF37A
:10469000108072B62F48C07B002802D1E07CFDF765
:1046A0009BFD62B6FDF778FD2F4800682A498842D5
:1046B00000D9E7722748C6760677E07C40002A4991
:1046C0004018216D4182FEF7F5FDFFF709FBFDF76C
:1046D000E9FC0020F8753876224908604860B88700
:1046E0007887886000F0C6FB012001021F48FCF7B4
:1046F00016FDBFF34F8F1E481E490160BFF34F8F59
:1047000000BF00BF00BF00BFFAE7C046C4040020DE
:10471000FDF7C8FC0020F87538761249086048603B
:10472000B8877887886000F0A5FB012001020F4858
:10473000FCF7F5FCBFF34F8F0D480E490160BFF346
:104740004F8F00BF00BF00BF00BFFAE7C0000020CE
:104750002A030000C4040020C4090000282300002C
:1047600024000040342C0140400500209C0500201E
:104770000CED00E00400FA05AC010020581B00001D
:10478000B0B5124CE249302520462A46FCF7AEFC73
:1047900020462946FEF7BAFD6055B0BD9D060020B3
:1047A000B0B50A4C049D2572A3712271A1702070CE
:1047B000280AE071180A6071100AE070080A607037
:1047C00009212046FEF7A2FD6072B0BD68050020F9
:1047D000F0B583B0654D6E89002E02D0002068814F
:1047E00015E063490978002900D16248C10B09D15D
:1047F00003229303034001218C03A34200D08EE0E7
:10480000062200E00722AA61D040560206435B4818
:104810000078800001905A490B1840275F60310AE8
:104820005848405C009084003846A04398603509A1
:10483000694071400F2402948C43310109194B4A9D
:1048400011620099CA003A404240DA60C8030299F6
:104850000D404C494D5DA90201434A48005D00905E
:10486000029C2640474CA45D0294660106433446F0
:104870000C433E484462C80A3840504018618A0AD6
:104880003A4042405A61480A384050409861AA0074
:104890003A404240DA61E900394051401962A209C8
:1048A0003A403F20C04301405140596262093A40BA
:1048B0004A409A62210939405140D962029CA200C3
:1048C0003A404A401A63E100394051405963720846
:1048D0003A404A409A63024071003E405640DE63CF
:1048E0003940714019640022254C019D6251009CA1
:1048F000A2003A404A405A64E1003940514099646C
:1049000022013A404A40DA64610139405140196558
:104910000140E007400E4840586503B0F0BD072352
:104920005B0303404C03A34201D105226BE70F2335
:104930001B0303400C03A34201D1042263E71F239E
:10494000DB020340CC02A34200D15CE73F2292028B
:10495000024089028A4201D1022254E77F214902A2
:104960000140054A89184A424A414CE78004002028
:10497000D7040020FFFF000000FEFFFFA904002075
:10498000600700204A60000870B5049D884214DD6D
:104990002C462546824214DDAB4215D01646EA1855
:1049A00054107218521091420CD08242F1DA511C0C
:1049B000814223463246EBDB01E016461C46864226
:1049C00000DC2C46204670BD184670BD0120400515
:1049D00002490A6882430A60486170470004014046
:1049E000F0B581B0C04DC1486860EFF3108072B679
:1049F000BF480078E8602861686179249B4E9C4F2D
:104A00003760A41E14212046FCF794FBC0B2FDF7CA
:104A1000E3FB60080A3028600A20FEF77FF9022CC9
:104A2000EED8FDF73FFB00202860B2490880B2486D
:104A30000088686062B601B0F0BDC046F0B583B0D2
:104A40000320FDF7C9FB00213520AA4EA54A02919B
:104A50000B4604E05B1CA81C313D7E2D4AD2054666
:104A6000834882490860029830805019401E0778B8
:104A7000FF2FEFD0505D00282ED00A219A4E3160D2
:104A8000F72141437D204001091822480193FCF79A
:104A900051FB044620482146FCF74CFB70609449CA
:104AA000097848439149FCF745FBF060306170613B
:104AB0000198C0B2FE214143CE1918482146FCF7A7
:104AC00039FB70438B4E6421FCF734FB80B2FEF758
:104AD00025F9844A0023BEE700248348C4600461AA
:104AE0004461D8B2FE214143C819FEF717F97D4A47
:104AF0002346B0E7FDF7D6FA00207B4A10607E49D6
:104B00000988516030805A485849086003B0F0BDA8
:104B10009D060020C0D8A700003E4900A0860100E5
:104B2000B0B5714D714868602820286070480078E1
:104B3000E860286168610220FDF74EFB962420465C
:104B4000FEF7ECF849484A490160502028602046A9
:104B5000FEF7E4F8FDF7A6FA002028606549088012
:104B6000654800886860B0BDB0B55F4D5F4868605B
:104B7000322028605E480078E86028616861022081
:104B8000FDF72AFB96242046FEF7C8F83748384937
:104B900001601E2028602046FEF7C0F8FDF782FA6B
:104BA0000020286053490880534800886860B0BDE1
:104BB000B0B5EFF3108072B64B4D4C4868602B488F
:104BC0002B4901605020286049480078E86028613E
:104BD00068610320FDF700FB64242046FEF79EF881
:104BE000462028602046FEF799F8282028602046B5
:104BF000FEF794F8FDF756FA002028603D4908803A
:104C00003D480088686062B6B0BDC046F0B581B06E
:104C1000354D36486860EFF3108072B6134E144F6E
:104C200037603C20286032480078E860286168617D
:104C30000120FDF7D1FA4B242046FEF76FF85020F3
:104C400028602046FEF76AF85A2028603760204620
:104C5000FEF764F8FDF726FA002028602549088051
:104C600025480088686062B601B0F0BD00300040A1
:104C7000AAAA0000B0B5EFF3108072B630208749C1
:104C8000085C194DFF2802D0FFF7D8FE25E0174831
:104C9000686017480078E860286168610320FDF7C4
:104CA0009BFA37202860C8242046FEF737F80520F5
:104CB000FDF792FA282028602046FEF72FF80620FC
:104CC000FDF78AFA192028602046FEF727F8FDF73D
:104CD000E9F90848002101802960074800886860D8
:104CE00062B6B0BD9D060020282C0140CF07000011
:104CF0009905002008050020F2000020B0B50A4DFB
:104D00006878022809D0012804D100242046FDF744
:104D1000C1FB6C7000F014FAB0BD04488089FFF745
:104D200057FD00206870B0BDC4040020400500207D
:104D3000B0B503210A050920C00603689343012288
:104D400014051B190360930283628B0404689C435F
:104D50009304E3180360530283620B0404689C43CA
:104D60001304E318036013028362094B1C680825CF
:104D700025430424A5431D601C6802252543954353
:104D80001D60890303688B43D10359180160B0BDCE
:104D900000040048F0B5012A23DB03241346234016
:104DA000042A01D200240EE0A24300240D5D055523
:104DB00005190E1977786F70B778AF70F678EE70C6
:104DC000241DA242F2D1002B0BD0625C0255012BB4
:104DD00007D0621C555C8554022B02D0A21C515C8A
:104DE0008154F0BDB0B51E4A501CBE490B68034348
:104DF0000B60012003040C689C430C60BA490B460D
:104E0000083B41241C600A230B60164B1B788B6007
:104E1000CA600A460C3A13680343136000224A60D2
:104E2000B34B114CDC600C4614349C600F4D2C7855
:104E30005C600F4C2D78402D00D124341C6043025F
:104E40000C46143C25681D4325600B6803430B602A
:104E5000A94B1A7020390A6802430A60B0BDC046E7
:104E6000FFFF0000A40100209C0500203C01002061
:104E70008B09000002480021416001607047C04674
:104E80002440014080B504490A7804484270CA6C45
:104E9000C02100F005F880BDC00000209D06002064
:104EA000F0B503AF8BB06E46F41D19341546716131
:104EB000B061C80F0B1801221946F2609143C91D59
:104EC000072291436A46501A59108546F0613161B4
:104ED000FCF725F97069022859DBB26903203369B0
:104EE00019460140B160591E03297460356001D232
:104EF000002121E08343736100231946D25CB0692D
:104F0000C01844782402A218F569EA528278C4785D
:104F10002402A218EC186280027945792D02AA18A1
:104F2000A2808279C07900028018E080B2690833DB
:104F3000091D70698842E1D1B368002B7468356837
:104F400025D04900B069405CB2695218527812020B
:104F50001018F26971615052012B18D07069801CD1
:104F6000B1690A5CB1690B185B781B029A18F36986
:104F70001A52B169B068022809D00A467069001D4A
:104F8000095C1218527812025118F26911523069F4
:104F9000A06035480168C90708D00168C90705D075
:104FA0000168C90702D00168C907F3D14168090641
:104FB00006D52E490A680346083B1A6049681960FD
:104FC000A905F3681DD1426802210A434260856049
:104FD00042684023134343600268D20708D0026846
:104FE000D20705D00268D20702D00268D207F3D1F7
:104FF0000268920601D52022026042688A4342601C
:10500000F3680021616007E041689943416061688D
:10501000891C61602168491C21602168A268914255
:105020001AD241681943416021684900F269515A16
:10503000626851530168C90708D00168C90705D0E3
:105040000168C90702D00168C907F3D10168890660
:10505000DAD520210160D7E7416880220A43426007
:10506000FE1F053EB546F0BD0C2002404401002065
:10507000B0B5012001041B4A13680B431360136889
:105080008B43136018490A46083A602313600322D1
:105090000A60164A12788A603D22CA600A460C3AB3
:1050A000136803431360124B124ADA600A46143243
:1050B0009A60114A547817345C60104C1C604302AB
:1050C0000C46143C25681D4325600B6803430B60A8
:1050D000C3034C6A1C434C62107020390A680243B7
:1050E0000A60B0BD0C10024020400140B104002015
:1050F0005800024060070020A80400209B0900001F
:10510000F0B50C490C680822144304239C430C603E
:10511000094C25680126B54325606568074F2F4077
:105120003818606020683043206008681843904356
:105130000860F0BD003801401C0002400000FFFF85
:10514000F0B585B0F24DA87C002805D0F14E707EF8
:10515000002805D0F08F2DE1FD48C18F818695E1B3
:105160007D22D400FB4800794300191926202D5CCC
:10517000F08F0127002D049418D0814247D2F54AC0
:10518000D27BF24C657CAA4259D13C46012503955D
:10519000F5730025B5863779002F00D19FE0F573B0
:1051A000039B9A1AEB4BDA7327464BE0814239D2C4
:1051B0000397E84BDF7BE54D6B7C02979F4200D065
:1051C0008BE0307D431E98414023F35AC82B039F48
:1051D0003B4600D30346DF4DAC8C2D6DA54200D875
:1051E0000346012B00D088E0DB48002484600120C6
:1051F000D84DE8720299401AE873FFF7E7FBB472E2
:1052000028794000049C0119F08FD04D79E0CF4DF2
:10521000E21A824228D8191981424FD300218242D2
:105220004FD94FE0C94DE21A824278D8191981420C
:1052300000D2B3E00021824200D8B2E0B2E0F27BBB
:10524000002A0CD100223271C44A00922F3A2F2337
:10525000FFF79AFBB086F08FBE4909794B00BB4D32
:10526000049CE21A8242D6D90397697C01277D1AF1
:10527000B84CE47BA5420BD1F7730025B586347991
:10528000002C33D0F573B34BD973039F049C04E017
:10529000F17B0029039F049C0CD1002131712F2345
:1052A0000093AE4BFFF770FBB086AA48007943002D
:1052B000E21AF08FA54D19198142AFD20121824225
:1052C00000D80F46002F72D10021B186F27B002A50
:1052D0006DD001223271F17369E0039F11E09B4DA3
:1052E0002746049CE21A824295D9BDE7974D039F59
:1052F000049C1919814291D2E0E7D000F087934DC8
:10530000049C964A00922F3A2F23FFF73DFBB0866C
:10531000F08F904909794B00E21A824286D9697C64
:1053200001235C1A8B4DED7BAC4220D1307D441EB5
:10533000A0414024345BC82C039700D30746854D19
:10534000AC8C2D6DA54200D80746012F7F4D11D1A1
:10535000804FF973FB72804800248460FFF736FBAE
:10536000B47238794000049C221AF08F05E0774D22
:10537000049C03E0049CF4872046039F2F210091A6
:105380000021764BFFF700FBB0867248007943009E
:10539000E21AF08F1919814200D34BE701218242B2
:1053A00000D80F46002F02D10021B172B186717E64
:1053B00000296BD07D21CC0021462F3188422DD988
:1053C000644FF97B6A7C914222D1B88C3D6D0122F9
:1053D00000238542104600D818464025755BC82D2D
:1053E00000D31A461040327D531E9A410243012ACF
:1053F0000BD15948002585600120F872401AF873D6
:10540000FFF7E4FAB572F08F01E00020F0874F4D0E
:10541000397A4200511AA84A8918B18601463039B2
:1054200089B2A1422DD22F46697C0122531A494CE0
:10543000E57BAB421FD1A08C256D00238542104631
:1054400000D818464025755BC82D00D31A46104079
:10545000327D531E9A410243012A0AD1E173012091
:10546000E0723D4800258560FFF7B0FAB572F08F15
:1054700001E00020F087217A4200511A3139B186CB
:105480003D462F2802D80020B072B086EB4FF87945
:10549000E94EB17C81420AD9A87D002807D0FCF7EB
:1054A00001FEFFF793FA6620B074002059E0E87C13
:1054B000002805D0B08E1D2825D80021B18739E0FD
:1054C000707900284CD03078002876D0796CBB6C8D
:1054D000B08E00912F21DA4C2246FFF755FA014693
:1054E000D948FBF747FEE97E4908FBF743FE3085C4
:1054F000B08E2E286ED800207865B0877066307D1B
:10550000002833D028E11E2806D11E2012E0C04614
:105510009D060020C40400202821695C14224A430F
:10552000824207D9A02100911E212F23FFF72CFAD8
:10553000B087B08E28216A5C14215143814211D872
:10554000BF4A0092A023FFF71FFA0AE09D06002041
:10555000C4040020C000002040050020FF07000018
:10556000B08EB087307D002800D0F5E0F07D0028B7
:1055700000D1F1E0E97C5024204648432F30B28F1F
:10558000904200D986E0F07C00286BD1FCF78AFDC0
:10559000F87A002861D1F07C00285CD1F87CF97B96
:1055A000012928D1401CF874C1B2072902D3012077
:1055B0003073F8740121014027E0706EA349FBF7B6
:1055C000D9FD81B2302900D830210004C00E0DD0A1
:1055D0009B490BE0706E9D49FBF7CCFD81B23029F1
:1055E00000D830210004C00E00D02146B187307DA4
:1055F0000028BBD0B0E0401EF874010603D10120A2
:1056000030730620F87401218143B973EFF31080E1
:1056100072B6F07B002802D1F87CFCF7DDFD62B6A3
:10562000FCF7BAFD87480168894A914202D30121FB
:10563000824AD1720021F1763177804F396D834AE9
:105640003A65FA7C834B844D1D60520010184182EC
:105650000120F074774DFDF73FFD0120F074388D87
:105660003086E97CBB8DB08F754A002905D0114684
:105670002F3900912833892103E011462F390091F9
:105680002F21FFF781F970862620285C002801D1A0
:105690000020F073E87C60432F30B18F884258D9E6
:1056A000F07A052815D8C046784400794000874430
:1056B0001205080B0E05C046FFF7FFFFFFF754FA6F
:1056C00007E0FFF72DFA04E0FFF78AF901E0FFF7A2
:1056D0009DFA0020F072287D002821D0F07C00285F
:1056E0006DD0F87C3C214143388B421810463C3841
:1056F00003B2FF2168318B4201DD584810184C225B
:10570000B0520246EF3213B28B4201DD0246793AC3
:1057100032530246773213B28B4210DC10460FE050
:1057200000207086F17C00296AD1464988600120FA
:10573000F872287F00285ED0FDF786FD60E0F13822
:105740004E217052E87C012801D1012030750020E3
:105750007086F07B002801D005B0F0BDB08F2E28F8
:1057600012D9697F1E22CA40748E364989689142D7
:105770000BD2398D8C4201D271860C46798D8C42C8
:1057800003D971860C4600E0748EB98E8C4201D923
:1057900071860C46B179002905D02221795E8C42B0
:1057A00001DD8CB274863028D6D3B06E0128D3DBED
:1057B0002649FBF7BFFC2018708605B0F0BD2148D4
:1057C000002181600122FA72B175287F00280FD074
:1057D000E87C002885D12920285C40001849401821
:1057E000433870840492FFF7A3FA0498F07378E7C3
:1057F000FCF758FC75E7F07B002801D1FCF752FC60
:105800002620295CF07B0029A4D00028A2D0F18FAB
:105810007D20C4002046FDF755FD0019708480B23C
:10582000798E491E814202DDFFF782FA91E7FDF78A
:105830000BFD8EE79D060020C4040020C000002060
:10584000FF07000040050020008793031027000099
:10585000C509000024000040881300005CFEFFFF23
:105860000348016810220A4320218A4302607047DE
:105870000C000048014908607047C046342C0140C4
:10588000014908607047C046382C01400149086052
:105890007047C0463C2C01400B2800D30B20400031
:1058A000014908707047C04699050020F0B58FB0D7
:1058B0000120069082030192034600903B48416814
:1058C00011434160416811400891089999040268A8
:1058D0000A43026000680840089000240794059479
:1058E000022003900898402602960325049530482C
:1058F00002A9FBF737FE2F4F38682F4901401031BE
:105900003960280339688143396038682021884329
:1059100038603868B0433860386880263043386073
:105920002802396881433960A802396881433960A7
:105930000E940D9408200C900B940A940994E12085
:10594000400208901D4D2C46083C08A92046FCF753
:105950009DF8009B98022968814329600920C002B4
:10596000291F0A6882430A6028682A218843286020
:1059700020681843206001991031386808401028C9
:1059800005D10F48F86028462030B86004E00C4884
:10599000B86028462030F86078680A490140313103
:1059A00079602868304328600FB0F0BD14100240C1
:1059B000000400481C000240EFBFFFFF0838014010
:1059C000680500200000FFFFF0B583B0F24D688E3F
:1059D0004027E853A88D401CA885A88C401CA884AB
:1059E000E88C401CE884E87D002834D0EE4EF17F3E
:1059F000002910D056202A5A521C2A5292B2EB4B40
:105A00005B78C91814234B43143B934203D2002103
:105A100029520120A873287D002800D0A9E1E34C79
:105A2000E07A00287CD0E87C002879D0FEF7CEFF11
:105A3000FDF74EFCA17B00291AD000281AD0A87DC2
:105A4000401CA875227CC0B290424DD8E87E002848
:105A500066D1287F4FE0687A0028C7D1287E0028C9
:105A6000C4D0A88E00280CD0522000212952BDE7B6
:105A7000002832D0287F401C2877EA7E002A4FD1A8
:105A800037E05220295A491C295289B2C34A91420F
:105A9000ACD3698F1F2933D30120E875E8783E46DF
:105AA000002800D16BE154202C5AB9204100204637
:105AB000FBF740FB68726008B92800D261E100245E
:105AC000B84FFFF775F86420FDF728F9B448076070
:105AD000641C687A8442F4D353E1A87D401CA87505
:105AE000227CC0B290420FD900202877EA7E002A9B
:105AF00016D100290CD0617CC0B288420CD80FE0CE
:105B000000212952297671E7E87E002808D1287FF4
:105B1000A17CC0B2884203D90120E87600F0EEF9FA
:105B2000E88C152800D2B8E000200090E884E97CD9
:105B3000A8790028029701913FD000293DD02E205E
:105B4000285E2C21715CC722D2434A431018984921
:105B500008608A69831A8E68CA680F695A434A6165
:105B600088614643F3190E6AB34200DB334676423E
:105B7000B34200DC33460B61D2184B68584310180F
:105B80004A6A9042029F00DB104652429042864E83
:105B900000DC1046C8618749FBF7ECFA618C0818F5
:105BA00002B2A18D8A4200DB014608B27D210901C3
:105BB000884200DB084660840199707F002831D05C
:105BC00000292FD0E08A216D091A79488162026C80
:105BD0008B1A066B426B876B5A43C26301644E4358
:105BE000F319866CB34200DB33467642B34200DCE5
:105BF00033468363D218C36A59435118C26C914229
:105C0000029F00DB11465242914200DC1146416482
:105C1000A86E08186849884200DB0846C117884307
:105C2000A86601996879002837D0002935D0384610
:105C3000298DF44AD268511A6165E26E8B1AE66DBD
:105C4000226E676E5A43A266E1664E43F319666F91
:105C5000B34200DB33467642B34200DC3346636630
:105C6000D218A36D59435118A26F9142074600DB29
:105C700011465242914200DC114621676A6E891832
:105C80004E4A914200DB1146CA1791436966DD48CE
:105C90008068632801D800986066607900282CD05D
:105CA0007D208000D74B196881420190384601D889
:105CB000102600E00626298E02229629174600D3D8
:105CC00037469B68962B00D33A46627207462B5A9A
:105CD0005E1A964207DD8918E953216D01988142C9
:105CE0001ED9012005E0C81A904201DD881AE85348
:105CF0000020A072C648C07DA070E87D002814D0A6
:105D0000E87C002811D0A88F30280ED3EE5B278EB8
:105D1000304678437D210901FBF70CFA401C1FE057
:105D20000020A072E87D0028EAD1E87B00280FD08F
:105D3000688C26463C46378E78437D210901FBF767
:105D4000F9F9718E081A401C582168522E5B09E03F
:105D5000EE5B278E304678437D210901FBF7EAF997
:105D60005821685216490F6080B28860C8602E863C
:105D700008614420295A491C295203B0F0BDFEF79E
:105D800017FFA87E0028374600D02FE62620A0491E
:105D900000220A542AE6C046C4040020214E000016
:105DA00000300040AAAA00009D060020C00000208C
:105DB0004C010020F0D8FFFF60E31600F0583801D6
:105DC0002C2C0140B0B540490978404C2278002A7B
:105DD0000BD0002909D03F480078002810D0FFF7E9
:105DE00001F8454802210170B0BD394A1278012AF4
:105DF0000CD0002A66D1FDF747F8FEF7F3FFB0BDDF
:105E0000FFF736F93C4801210170B0BD00290DD0E3
:105E100030480078002820D02F480088FEF7D8FCB2
:105E20000020FCF737FBFEF7DDFFB0BD2B4D2978D6
:105E3000002906D0FCF72EFB2878012801D8FEF7B0
:105E4000D1FF27480078012811D1FDF757FA002823
:105E500006D024480321017007E0FFF709F9B0BD1F
:105E6000204802210170FCF76BFEFEF7BBFF207893
:105E7000002827D11D4801881D4A2B78002B16D0F9
:105E8000194B1B88002B12D01479072C0FD8062928
:105E90000DD3641C14711569EB181361082C06D11D
:105EA000DC09DB081D1B15811B190E4CA380114B4F
:105EB0001B88002B04D11278002A01D1491C00E074
:105EC00000210180B0BDC046D4040020DB040020C6
:105ED000DC040020A80400204C050020DD04002084
:105EE000DE0400203C0100208E040020FE0400207F
:105EF000AC040020F8040020C5040020F0B581B0F7
:105F00003C4801684A223C4EB152002404603B4D9B
:105F10002A6D0323534389B259180A09384B134099
:105F2000CA08D21A4227F25389082965338791B2E9
:105F3000344FBA68052A11D2006833480160E87C02
:105F4000E97B012917D1401CE874C1B2072902D3AB
:105F500001203073E8740121014016E002688A4292
:105F6000EBD202688A42E8D202688A42E5D202682D
:105F70008A42F3D3E1E7401EE874010603D1012011
:105F800030730620E87401218143A973EFF3108078
:105F900072B6F07B002802D1E87CFCF71DF962B6EE
:105FA000FCF7FAF838681949884201D30120E872F1
:105FB000F4763477B475B868411CB960E87C400069
:105FC000C219286D50822622114B9A5C5B7F1343C5
:105FD0007D221201002B05D0142908D3511C8842C0
:105FE00002D304E0904202D2EC72FDF775F801B0E2
:105FF000F0BDC04624000040C4040020C0000020C2
:10600000FEFF0000400500202C200040C5090000D4
:106010009D06002002E008C8121F08C1002AFAD11C
:1060200070477047002001E001C1121F002AFBD118
:106030007047000000000000000001020304060792
:1060400008090000000001020304191B12131D15AA
:1060500016171A090A0B1E0D0E0F000080600008AB
:10606000C0000020C0030000F411000868630008AD
:1060700080040020400800002460000800000000A8
:10608000101A021E012D6401010A01020101050519
:10609000010102020201D0076419B418084C046C13
:1060A00007DC054A0E14DC0541127812C81A2D02CD
:1060B0001008CF07CF07D0071412462A90281912CC
:1060C0002123102733E803127C6408D430720A02BB
:1060D000136429302350C312202B204E084009237B
:1060E000016745AB89EFCD6390013950F123204E14
:1060F0004BA086215927110A1932601113127A1206
:106100001C3401400832FA12B412B712BA12BD128E
:10611000C112C412C712CA12CD12D012D312D61293
:10612000D912DC12E012E312E612E912EC12EF12BD
:10613000F212F51AF7321AFD671866030106010913
:10614000010B010E0111011301160119011B011EA2
:106150000120012301250128012A012C012F0131F1
:10616000013301350138013A013C013E0140014251
:106170000144014601470149014B014D014E0150C7
:10618000015101530154015601570158015A015B55
:10619000015C015D015E015F0160016101620163FB
:1061A000021C640165021A66023A6702FA68024933
:1061B000182922292A3A64361A62401A60481A5E5F
:1061C000501A5C581A5A601A57681A54701A517843
:1061D0001A4E801A4B881A47901A44981A40A01AEF
:1061E0003CA81A38B01A33B81A2FC01A2AC81A2570
:1061F000D01A20D81A1BE01A16E81A11F01A0BF858
:1062000015060103011301FD12FA12F712F512F23D
:1062100012EF12EC12E912E612E312E012DC12D9CC
:1062200012D612D312D012CD12CA12C712C412C182
:1062300012BD12BA12B712B412B112AE12AB12A73B
:1062400012A412A1129E129B129812951292128FF2
:10625000128C128812851282127F127C12791276A9
:1062600012731271126E126B126812651262125F53
:10627000125D125A125712551252124F124D124AF3
:106280001248124512431240123E123C1239123784
:10629000123512331230122E122C122A1228122604
:1062A000122412221221121F121D121B121A12186E
:1062B000121712151214121212111210120E120DC0
:1062C000120C120B120A12091208120712061A05F2
:1062D0000212041A03021A020219D9190201124900
:1062E000182922292A3A04361A06401A08481A0A96
:1062F000501A0C581A0E601A11681A14701A17786E
:106300001A1A801A1D881A21901A24981A28A01A7D
:106310002CA81A30B01A35B81A39C01A3EC81A4318
:10632000D01A48D81A4DE01A52E81A57F01A5DF8F8
:10633000126212651268126B126E1271127312766B
:106340001279127C127F128212851288128C128F9F
:10635000129212951298129B129E12A112A412A7C9
:0863600012AB12AE52B10000B5
:020000040800F2
:107BE0004644363238385F463035310000000000F8
:107BF0000000000000000000000000000000000085
:04000005080010BD22
:00000001FF
